:10E8000070810020192102001FA0030005210200D1
:10E810000521020005210200052102000521020058
:10E820000000000000000000000000008122020043
:10E83000052102000000000015220200052102004F
:10E8400015240200152402001524020015240200DC
:10E8500015240200152402001524020015240200CC
:10E8600015240200152402001524020015240200BC
:10E8700015240200152402001524020015240200AC
:10EA50001524020027CC030015240200152402000F
:10EA6000152402001524020057CC030015240200CF
:10EA700015240200152402001524020015240200AA
:10EA8000152402001524020015240200152402009A
:10EA9000152402001524020015240200152402008A
:10EAA000152402001524020015240200152402007A
:10EAB000152402001524020015240200152402006A
:10EAC000152402001524020015240200152402005A
:10EAD000152402001524020015240200152402004A
:10EAE000152402001524020015240200152402003A
:10EAF000152402001524020015240200152402002A
:10EB00001524020015240200152402001524020019
:10EB10001524020015240200152402001524020009
:10EB200015240200152402001524020015240200F9
:10EB300015240200152402001524020015240200E9
:10EB400015240200152402001524020015240200D9
:10EB500015240200152402001524020015240200C9
:10EB600015240200152402001524020015240200B9
:10EB700015240200152402001524020015240200A9
:10EB80001524020015240200152402001524020099
:10EB90001524020015240200152402001524020089
:10EBA0001524020015240200152402001524020079
:10EBB0001524020015240200152402001524020069
:10EBC0001524020015240200152402001524020059
:10EBD0001524020041CC0300152402001524020074
:10EBE0001524020015240200152402001524020039
:10EBF0001524020015240200152402001524020029
:10EC00001524020015240200152402001524020018
:10EC10001524020015240200152402001524020008
:10EC200015240200152402001524020015240200F8
:10EC300015240200152402001524020015240200E8
:10EC400015240200152402001524020015240200D8
:10EC500015240200152402001524020015240200C8
:10EC600015240200152402001524020015240200B8
:0CEC7000152402001524020015240200E7
:10EC8000064A074BDB7802604FF43472C3710023ED
:10EC90008280082203728271704700BF65EB010019
:10ECA000A0120020064A074B1B7902604FF4B47291
:10ECB000C371FF238280082203728271704700BFF4
:10ECC0001FE70100A01200202DE9F341C41D002818
:10ECD000064624F007040CBF0020204600F01CFD6F
:10ECE000071E04DA6FF00B0002B0BDE8F0810EB928
:10ECF000FC42F7D4364D6989288903316B7B033098
:10ED00002A7B89B280B20CF03BFC0028EADB3C4451
:10ED1000A978EB78002E04F10304194424F00304CD
:10ED200000FB01F10CBF0020204600F07FFE2044D4
:10ED30000EB90028D6DB2B790446B3B1697D19449E
:10ED40006B791944FF29CDDC0330002E2A8AC9B221
:10ED500020F003040CBF0020204600F0D7FE00285E
:10ED6000C0DB04440EB9002CBCDB012000F0CAFC5F
:10ED7000C8B1A97BB9B195F82C300734002B24F029
:10ED8000070415BF402325234FF481722822002E4B
:10ED900014BF2046002002F099FC0028A2DB0444A6
:10EDA0000EB9002C9EDBAB7CDBB12B7993B1073421
:10EDB000002EA97C24F007040CBF0020204605F09B
:10EDC000C1FA00288EDB04445EB9002C09DA89E719
:10EDD000A0120020012000F095FC10B1AB7B002BAD
:10EDE000E5D1724B1B6893B1A97981B10334002E30
:10EDF000EA7C24F003040CBF00202046984700283A
:10EE0000FFF670AF044416B9002CFFF66BAF684BE9
:10EE10001B688BB1297D79B10334002E24F00304E3
:10EE20000CBF0020204698470028FFF65BAF044443
:10EE300016B9002CFFF656AF5E4B1F68B7B1697D5F
:10EE4000A1B10334002E2B7E24F0030408BF002060
:10EE5000009318BF2046EB7DAA7DB8470028FFF637
:10EE600041AF044416B9002CFFF63CAF072000F078
:10EE700049FC98B1A97989B10334002EAA7E24F007
:10EE800003040CBF0020204600F02EFF0028FFF6F0
:10EE900029AF044416B9002CFFF624AFB6FA86F762
:10EEA00095F825007F09A0B10334EB7F297F24F07A
:10EEB000070419443B4644F00404C9B2224600F05A
:10EEC00055FF0028FFF60EAF044416B9002CFFF6DC
:10EED00009AF95F82610002959D00734002E2A8D45
:10EEE00024F007080CBF002040460CF05EFB041E17
:10EEF000FFF6F8AE444416B9002CFFF6F3AE1EB18F
:10EF0000298D404609F064F995F82010002940D079
:10EF100095F82430002B3CD06A8C0734002E24F066
:10EF2000070802F124020CBF0020404692B20CF008
:10EF30003CFB041EFFF6D6AE444416B9002CFFF687
:10EF4000D1AE0334AB7F297F24F0070495F8240069
:10EF500019443B4644F00404C9B2224600F0F8FECE
:10EF60000028FFF6BFAE044416B9002CFFF6BAAE77
:10EF70003EB16A8C404695F82010083292B209F0F2
:10EF80002DF92B6B5BB176B12C630020ACE6884683
:10EF9000B5E7002EF5D0002211461046EFE7002E0F
:10EFA000F3D12046A0E62834FBD59BE6640500207B
:10EFB0006C050020680500201FB572B6194B5D6B0B
:10EFC000E5B9BFF34F8F1849184BCA6802F4E062E5
:10EFD0001343CB60BFF34F8F00BFFDE7B4FBF6F4E4
:10EFE000D3B20132002CF9D103F110026A4402F8C5
:10EFF0000C4C0A2233B901A8A847E2E704460022D4
:10F000000A26EDE7013BDBB203F110040DEB040629
:10F01000B0FBF2F402FB1400303006F80C0C204672
:10F02000E8E700BFA012002000ED00E00400FA05B0
:10F0300013B5114C6846637B8DF80130237B8DF846
:10F0400000306389ADF804302389ADF8023003F055
:10F0500017F918B1DB210320FFF7AEFF207E03F084
:10F060003FF908B1DE21F6E7E07D03F033F908B19E
:10F07000DF21F0E702B010BDA012002070B50546F8
:10F08000002850D00BF048F918B94FF0FF34204653
:10F0900070BD09F0EBFCB0F5FA7FF6D8234C0326DF
:10F0A00023486563002500F0A9FA2A222946A01CFE
:10F0B00084F83850257084F82C50256310F086FAB7
:10F0C00040F2011301212A46A67363801B230846E0
:10F0D00021712381638140F20323A176A3811F2341
:10F0E00023824FF40273638244F60113E382F72311
:10F0F0006384FB23238502F047FB20B140F24F31AC
:10F100003046FFF759FF02F05BFB044610B140F2B6
:10F110005231F5E7EFF3108572B600F051FE002D85
:10F12000B5D162B6B3E76FF01504B0E7A0120020C6
:10F1300031F0000038B51446002840F0D080694D09
:10F1400095F83830032B00F0C780B9B112B96FF0D1
:10F15000150038BD0139162900F2C180DFE801F041
:10F160000C1D20355F68863B6B6E804147555A8C7D
:10F170008F9DA0A395A6AA001378AB700020FFF77F
:10F18000A3FD0028B7BF012302236FF00B0085F811
:10F190003830A8BF85F83830DBE71378EB70EDE73F
:10F1A0001379002BD3D05379002BD0D01288FB2AAF
:10F1B000CDD81A2A6388CAD91B3BE02BC7D823684D
:10F1C000A288AB60484B9A80D8E713786A7993425B
:10F1D000BDD32B71D2E713782A799342B7D86B71DC
:10F1E000CCE713782A799342B1D86B75C6E71378C8
:10F1F000002BACD05378013BDBB2F82BA7D8138897
:10F200009278EB82394B9A70B8E71078687607F0FD
:10F210007DFCB3E71378002B99D0AB76AEE70120E5
:10F2200000F070FA237808B1012B90D9AB73A5E7F1
:10F2300013882B82A2E71378AB719FE7072000F0B9
:10F2400061FA10B92378012B81D9072000F05AFA0E
:10F2500018B12378002B3FF47AAF2378EB748DE755
:10F260001378082B3FF673AF2B7587E71388FF2BB6
:10F270003FF66DAFAB7481E71378EB767EE71378DA
:10F280000E2B3FF664AF2B7778E72368184A2B6282
:10F29000636853602389138170E713786B776DE798
:10F2A0001378EB776AE71378AB7767E7137885F81D
:10F2B0002A3063E792786178207802F065FA0028B6
:10F2C0007FF447AF6378012B7FF658AF08F078FFE3
:10F2D00000287FF453AF3AE74FF0FF3039E76FF083
:10F2E0002C0036E7A0120020A8120020B612002041
:10F2F000C0120020F8B50D46064630B329B311F010
:10F30000070422D1124F97F83830012B02D16FF049
:10F310000B00F8BD032B02D14FF0FF30F9E700F0EE
:10F320009DF80028F8D02846FFF7CEFC0028EEDB39
:10F330000FF0E5FC3046396B03F054F8FFF778FE28
:10F340000323204687F83830E3E76FF01500E0E745
:10F35000A012002010B5074C94F83830032B03D1CD
:10F3600003F05CF804F0B4F80CF048FA002084F8DC
:10F37000380010BDA012002050B1074B03F1140259
:10F3800053F8041B934240F8041BF9D10020704746
:10F390006FF01500704700BF116B0400074B10B5EC
:10F3A00093F838403CB902F0E7FF0320044900F02D
:10F3B000A1F9204610BD4FF0FF30FBE7A01200205E
:10F3C000A5EC0000074B10B593F838403CB902F0AB
:10F3D000E7FF0220044900F08DF9204610BD4FF0F0
:10F3E000FF30FBE7A012002081EC0000054B10B5B8
:10F3F00093F838401CB902F081FF204610BD4FF051
:10F40000FF30FBE7A0120020054B10B593F8384001
:10F410001CB90DF03FFC204610BD4FF0FF30FBE75C
:10F42000A0120020054B10B593F838401CB90DF020
:10F4300034FC204610BD4FF0FF30FBE7A012002047
:10F4400002680020014B1A60704700BFDC120020E8
:10F45000014B1B68184700BFDC120020024B1868E4
:10F46000003818BF01207047DC120020F7B50446B1
:10F470002D4E071D2C48376004F042F8022805463F
:10F4800006D1294920460BF0F4F9284603B0F0BD17
:10F49000042842D13378092B0AD0262B1ED03146BE
:10F4A00020460BF060FAB0F5817F2DD3722112E077
:10F4B00005213E200BF0B0F90028F0D1F37801A926
:10F4C0003279684643EA0223ADF800300BF01AFEA9
:10F4D0000028CFD053210820FFF76EFD1A213E20CF
:10F4E0000BF09AF90028DAD17368694601A8C3F3D2
:10F4F0000F23ADF8043011238DF806300BF024FEF5
:10F500000028B7D06521E6E70028B3D0A17820789D
:10F510000BF082F90028B8D1ACE70828B5D1024930
:10F5200020460BF0DEF9B0E7E0120020074B4FF069
:10F53000FF3141F6FF72C3E9001205490022C1E91B
:10F5400000221F21C3E90212704700BF00050020FE
:10F55000E41300203F280CD801380B4BC0F34212B3
:10F5600000F01F0053F8223023FA00F000F00100F1
:10F570007047FF2806D04038044BC0F3421200F019
:10F580001F00EFE70120704700050020E413002072
:10F59000074B0146006849681A4603C240F48C22B2
:10F5A0001A6041F0107242F4FF625A60704700BF67
:10F5B000000500200246024B0068516803C37047F3
:10F5C000E41300200246024B0068516803C37047F1
:10F5D00008050020FD28084B16BF00F1FF303F2032
:10F5E000C0B2420900F01F0003EB82039B6823FABC
:10F5F00000F000F00100704700050020014B18608A
:10F60000704700BFEC13002010B5FFF78FFF0CF020
:10F610000BFE034B04461B6803B19847204610BD00
:10F62000EC13002070B50C88C27CA6B2C4F30E04A3
:10F63000931C058804F118021D44825AADB21A4485
:10F6400043882A44013AB2FBF5F202FB054292B22A
:10F650009342044B8BBF3340B34313439BB20B80A5
:10F6600070BD00BF0080FFFF4A1E062A08B5034692
:10F67000084604D84FF4D1711520FFF79DFC094AC4
:10F68000914202D940F2A311F6E711B903B1196012
:10F6900008BD2BB11B680022C3E901211A1D1A60A5
:10F6A0000430F5E7FAFFFF7F10B5114B00EB410482
:10F6B0001A786389B3FBF2F303FB0223013A1A447D
:10F6C000B2F5706F027928BF00231A448378B2FB29
:10F6D000F3F0194403FB1020091AB1FBF3F003FB0C
:10F6E000101313446FEA43436FEA5343638110BD21
:10F6F000F0130020024B03EB80035960704700BFFA
:10F70000F0130020034B03EB80035868003818BF48
:10F7100001207047F01300202DE9F04F10F0070A88
:10F7200085B0054604D040F261111720FFF744FC74
:10F73000544F04464FF0010B07F14806B146B0465E
:10F7400057F8043B8DF80BA03BB101A898479DF8F2
:10F750000A30082B01D9E821E7E79DF80B1081BB9F
:10F7600005B13160B94506F10406E9D12DB3002396
:10F77000DFF814E111221E468EF8003058F82200FE
:10F78000013A60B190F804A08178BAF1FF0F64D11A
:10F790004FF000078E4207713CBFCEB20123511CCF
:10F7A000ECD10BB18EF80060112640F6FF6A58F8D4
:10F7B0002670002F63D1013EF9D2601B05B0BDE871
:10F7C000F08F9DF80AC04A1DBCF1020FE64604EB1B
:10F7D000420438BF4FF0020E53000EF1FF300444D4
:10F7E000CEF100002040BDF808406444CCF1000C8C
:10F7F000013C04EA0C04B4F5803F01D3F82194E7FE
:10F8000075B1C31A336099701C8083F803B09DF8FA
:10F810000C201A71019A4FEA124C1A81A3F806C003
:10F8200004FB01049EE758F82C90B9F1000F06D0B4
:10F8300099F804B0D34504BF99F802904F440CF1F5
:10F84000FF3CBCF1000FEEDA3944FF29A2D90BB11D
:10F850008EF8006040F2271167E794460027F0E732
:10F8600007EB410309F101093846A3F80AA0FFF7A5
:10F870001BFF5FFA89F1BB788B42F1D89BE74FF011
:10F880000009F6E7F4130020F0130020F8B54FF656
:10F89000FF7305460380184B03EB8103D86CB8B1A6
:10F8A00086780379B3FBF6F206FB1233DBB2194616
:10F8B0000A1D00EB4202B2F902705488002F09DBE6
:10F8C0000131B1FBF6F206FB1211C9B28B42EFD146
:10F8D0000020F8BDFF29FBD0C4F30E03C4782B80B1
:10F8E00024B94FF4D5711720FFF766FB5380BDE8AC
:10F8F000F8400BF024BE00BFF01300201D4B03EBBB
:10F90000810370B5DC6C054644B3030404D54FF4A1
:10F91000DC711720FFF750FB014620460BF0F2FD8B
:10F92000FF28014604D02046BDE870400BF007BE1A
:10F93000A078B5FBF0F300FB1353DBB219460A1DA8
:10F9400004EB4206B6F90260002E09DB0131B1FB7F
:10F95000F0F200FB1211C9B28B42F0D1002070BD51
:10F96000FF29FBD08B4204EB42021CBF0023E37053
:10F970005580D8E7F0130020094B03EB81030146C3
:10F9800010B5DC6C20460BF0BDFDFF28014604D00D
:10F990002046BDE810400BF0D2BD002010BD00BFD6
:10F9A000F0130020F8B5104B074603EB8103014626
:10F9B000DC6C20460BF0A6FDFF28054611D0E6883A
:10F9C000238953EA064606D0014620460BF0B7FDD0
:10F9D00001463846B04720462946FFF765FE00201D
:10F9E000F8BD0520FCE700BFF013002038B50E4B32
:10F9F0000446827903EB8203D86C08B9052038BD30
:10FA00008278E1799142F9D24B1CE37100EB41031A
:10FA10005D89B3F90A30002BF3DBA5800BF08FFD75
:10FA200020600020EBE700BFF013002070B5044613
:10FA300010F003000E4603D04F211820FFF7BCFA48
:10FA4000FFF712FE054624B1034831460460FFF774
:10FA50000BFE284670BD00BF841400202DE9F14F35
:10FA6000DFF870B01E4607460D46DBF800309046C2
:10FA70009DF828A09DF82C901BB961211820FFF754
:10FA80009BFA5246092140460BF0ADFB4A4684B230
:10FA9000092130460BF0A7FB81B2DBF800002144BE
:10FAA0000BF005FD386018B9286001B0BDE8F08F93
:10FAB00004445346414609222C6038680BF04CFB45
:10FAC0004B4609223146286801B0BDE8F04F0BF0E3
:10FAD00043BB00BF8414002070B50E4604460BF0F3
:10FAE00095FB054630460BF091FB044B2A18214646
:10FAF0001868BDE870400BF0FEBC00BF8414002005
:10FB0000014B18680BF0C7BC841400201F2AF8B5FD
:10FB1000044613460ED89200033222F00303B3F5D5
:10FB2000803F2DD2184DACB1A00710D05F21092025
:10FB3000FFF742FAFF2B4FEA420204D9FF339A4201
:10FB4000A8BF1A46E8E77C2AB8BF7C22E4E7297000
:10FB50006C602B8122F0030228230127120403FB8F
:10FB600001F06B680025120CEEB28E4200D3F8BD96
:10FB700014B126181F705E60104401352833F3E776
:10FB80004FF0FF30F3E700BF88140020144A002133
:10FB900038B553681478C8B2844203D8AB21092021
:10FBA000FFF70AFA1846013128330578002DF2D004
:10FBB00000218170012412898161051D4470920821
:10FBC000C16100F12001446821F8022B994245F8F7
:10FBD000044B1444F8D100234361037038BD00BFC7
:10FBE000881400200A4B1B89B3F5FF7F4FEA93006E
:10FBF00006D25A089B1A9BB2984238BF18467047E3
:10FC0000B3F5EE6F01D8FF22F4E740F27263F3E739
:10FC1000881400202DE9F8434B7880460C4602F00A
:10FC2000040602F0FB07D3B1DFB12E4BD4F80490E9
:10FC30001D89B7BB0123AD084A46211D637004F13D
:10FC4000280004F12003A761E76123F8025B9842D2
:10FC500041F8042B2A44F8D10023636101E0002F0E
:10FC6000E3D0FF23A370002E18BF0226A3191B7D2B
:10FC7000032B03D1022F1CBF0136F6B2A3190122B8
:10FC80001A7506F10C02002304EB860624F81230E4
:10FC90007268A3704046C8F80020A8F80430BDE898
:10FCA000F883002114226170A0180FF08FFCB5F5C5
:10FCB000FF7F0FD26B08ED1AADB209EB0502C4F855
:10FCC00004902584A2606384C4F80C90A58422610A
:10FCD000E384C6E7B5F5EE6F4FF0FF03EBD940F2D2
:10FCE0007265EAE7881400202DE9F84305460C46C2
:10FCF000F720052191460BF076FA061E22DB1DB98E
:10FD000006FB04F0BDE8F88315F0030703D0982143
:10FD10001920FFF751F9DFF83480C8F81050A5B268
:10FD2000A8F81460BBB29D42EAD9B8F814C04B469B
:10FD3000D8F810000522F72107FB0C0001370BF063
:10FD40000BFAEFE74FF0FF30DCE700BF9C14002018
:10FD500007B5CDE900230B4603490246081D0BF009
:10FD600027FD03B05DF804FBB414002013B5064C66
:10FD7000CDE900230B46024604F1080104F10C0012
:10FD80000BF016FD02B010BDB414002008B54B1ED8
:10FD9000032B03D923219020FFF70EF9002801F14E
:10FDA000010114BF0C230523C9B203EB8101034BEE
:10FDB000013121F00101197008BD00BFC4140020F9
:10FDC000124B01224FF0FF3000211B685A60C3F82C
:10FDD0000803C3F80015C3F804250D4B1B685A60CF
:10FDE00040F6FE72C3F808034020C3F80015094B23
:10FDF0000949C3F80825C1F88800BFF34F8FBFF346
:10FE00006F8FC1F88801C3F8082570471C240020B3
:10FE1000182400200020085000E100E00A460648AF
:10FE20003A2302F8033BC368C1F803300369536007
:10FE300043699360704700BFC8140020024B5A8C7E
:10FE400002435A845B6A1847C8140020014B002102
:10FE50005B6A1847C814002010B5154C07F096FDD2
:10FE600007F09AF8208DFFF7F1FF237E63B1224659
:10FE7000104904F1190052F80C3BE36063685360C9
:10FE8000A36893600DF078FD0B4B228D93E803007F
:10FE900004F0E2FA236B188804F008FAA36B94F8D4
:10FEA000341094F835009847002384F83C3010BD96
:10FEB000C81400201DFE0000F4140020034B93F82A
:10FEC0003C300BB1FFF7C8BF704700BFC81400201B
:10FED00070B5224C0646636C256B236495F88C3014
:10FEE00094F848000BB10430C0B295F86D102EB9EB
:10FEF000FF2803D195F86C308B4201D007F0E2FB6C
:10FF000095F88C3023B3E06C07F022FE94F82C3087
:10FF1000E16C003B206C18BF012384F87030D5E9F8
:10FF20003A23C4E9182306F051FF46B995F86D301D
:10FF3000033B012B94BF2820002007F04FFE95F8CB
:10FF40006C10002007F0AAFE022384F83C3070BD3C
:10FF5000206C07F0FDFD07F01FF8E6E7C81400204D
:10FF60000138C0B2032808B504D940F26741062021
:10FF7000FFF722F8014B185C08BD00BFD00A04004F
:10FF800008B5094B93F83C20022A04D040F22D21F9
:10FF90002720FFF711F8DA7A42F00102DA72BDE8A1
:10FFA0000840FFF759BF00BFC814002010B50E4C21
:10FFB000A26F137803F00303032B04D1D378022B31
:10FFC00001D1002010BDE06F0BF0A8F90028F9D195
:10FFD000A36F1B7803F00303032BF2D002F048FC5D
:10FFE00080F00100C0B2EDE7C814002038B51E4C07
:10FFF0000546D4F88030984708B9012038BD94F8F8
:020000021000EC
:100000003430002BF9D194F82C301BB9012D03D0DA
:100010000020F3E7002DFBD194F88430DD06C3F314
:10002000001001D5FFF7C2FF636CD4F888201B785D
:10003000C3F300132AB9B4F88C2013B1B2FA82F3D7
:100040005B0994F82C10628C39B1910705D5A36F28
:10005000D878023818BF0120D0E7002ACDD1002877
:10006000D6D183F00100C9E7C81400202DE9F3417F
:10007000324C06460F4694F83C30256B012B5FFA54
:1000800083F804D040F29D412720FEF795FF95F8B4
:100090007C3053B10021042085F87C10FFF7CEFEA0
:1000A00094F82C300BB185F87E80A16F0B7803F0AB
:1000B0000303032B05D195F8823013B90220FFF713
:1000C000BDFEA26F137803F00303032B02D0537815
:1000D0002BBB012385F8823095F88C30CBB194F896
:1000E0002C30226B003B94F84880D5E93A0118BFC8
:1000F0000123C4E9180192F86D0084F87030FFF70D
:100100002FFF002203460E4902200092424606F0CD
:10011000F5FD36B102B0BDE8F041FFF79DBE022308
:10012000D8E7002FF6D03046FFF760FF0028F1D166
:1001300002B0BDE8F041FFF7CBBE00BFC8140020FD
:100140001815002037B5724C0023256B8DF805304B
:1001500095F88C2094F848300AB10433DBB295F856
:100160006C1028B9FF2B03D195F86D308B4202D06B
:10017000FF2007F0A7FA95F88230032B00F2B68033
:10018000DFE803F0023B94A794F88E306148ADF8A5
:100190000630A5F85C3002F041FB80B1A16F4FF44E
:1001A0008070FFF74BFE0121A36F85F87D10DB788F
:1001B0001B2B1ED105F1100007F0B4FA19E00DF168
:1001C00005020DF10601E06F0BF048F8A067A0B141
:1001D00095F8C7308BB99DF805302BB90380012104
:1001E0008370A06F0DF063FABDF80610A06F0DF0DC
:1001F0006AFB012384F88F3001E0474BA36795F831
:100200008330A16FDB0003F008020B7803F0F303E7
:10021000134395F88420920002F00402134323F064
:1002200010030B70FFF7C2FE0028A06F14BF10234D
:10023000002302781343037095F88B30002B58D0BD
:100240004378002B55D0E06C07F082FC94F82C30FA
:10025000A06FB3FA83F35B0984F87030D5E93823D3
:10026000C4E918230DF038FA021EE16C18BF012210
:10027000A06F07F083FE18B9A16FE06C06F0A6FD31
:10028000A06F0BF0CDFA95F86D10012007F006FD78
:10029000A26F0123118884F8E030A4F884109178CB
:1002A0001E4A84F83C30917003B030BDB5F85C3024
:1002B0000DF105020DF10601E06FADF806300AF010
:1002C000CDFFA067002894D140F2CD212720FEF772
:1002D00073FE104802F0A2FA10B940F2D721F5E7F8
:1002E000A36FDB781B2B84D1012163E740F2E5216A
:1002F000ECE707F02DFC06F04FFEA06F0DF0ECF9D7
:10030000011EA06F18BF01210EF020FDB8E700BF4D
:10031000C814002040150020581500204C1500205E
:10032000064B10B593F83C2002F0FF0422B91C766E
:1003300004F08AF8204610BD0C24FBE7C814002006
:100340000A4B0B4A70B506460D461A60FFF7E8FFE8
:1003500018B1DE212720FEF72FFE064C012104F103
:1003600090000DF0A4F96664E56470BD800500207E
:1003700070050020C8140020024B012283F8E12000
:10038000704700BFC81400202DE9FF419C4C02AE0D
:100390000A9F86E8030094F83C1001F0FF0511B9AC
:1003A0000AB103B127B940F26D112720FEF704FE10
:1003B00096E8030004F12C0C84F8E15084F83450E2
:1003C00084F8E25084F8355084F8E05084F88F5077
:1003D00065842585C4F880306262A7638CE80300D9
:1003E000256B07F0C1F906F0D7FD95F9740007F009
:1003F0001FFAA86A07F090FB286A07F01FFA95F821
:100400009C0007F041FA95F87630002B00F0AE80A2
:100410004D2007F0F7F894F82C00002840F0A88051
:1004200095F86C20774B03EB820359684FF47A738D
:1004300001F5FA71B1FBF3F16E3107F093FA724BEB
:10044000724E05F58077186807F06CFB6B69E367FF
:10045000AB69C4F8E43005F1F0031868083353F8C9
:10046000041C3246BB4203C21646F6D15968D5F881
:100470000001236B664A03C293F8862093F86C0050
:10048000A2F12601012903D993F88710262977D1F3
:1004900094F82C20002A70D193F802120BF0B0F9D6
:1004A000064605F13407314638460DF021FB31464A
:1004B0000CF03DFEB5F8403095F86D10834228BF32
:1004C0000346384684F88E300DF0D8FA95F86D1052
:1004D00095F88C600429B5F8488008BF03210CF01A
:1004E00026FE0EB9043080B2404528BF40465FFA70
:1004F00080F884F8E88003F0FFF830B103F002F9E7
:10050000404538BF40465FFA80F894F82C6084F884
:100510004880002E59D195F88B308BB1012395F886
:100520006C0084F87030D5E93823C4E91823FFF74C
:1005300017FDFB22034635490420009606F0DEFB3A
:100540000120FFF7FFFD002323606360A360B5F87F
:10055000803063802B88238095F89C3023712B6F2B
:100560000BB101221A6004B0BDE8F081962050E77B
:1005700095F86D20C42101205FE793F89A128DE76A
:10058000213A012A0FD824290FD094F82C20BAB18F
:1005900093F826315A0711D413F001017FF47EAF8E
:1005A00003F002017AE724290AD194F82C203AB109
:1005B00093F8262193F865301340EBE704216DE7AB
:1005C000032814BF064604266BE795F88C3093B1D8
:1005D000012395F86D00D5E93A6784F87030C4E9D5
:1005E0001867FFF7BDFC002203460849009202206D
:1005F000424606F083FB0120FFF76AFCA3E700BF39
:10060000C8140020D00A040080050020181500201E
:100610003015002008B5114B93F83C201AB9BDE8FD
:100620000840FFF719BC93F82C2042B993F83C30EE
:10063000012B12D040F20B212720FEF7BDFC93F8CE
:100640003C20022A02D040F20F21F5E71B6BD3F8C1
:10065000D801BDE8084007F095BA08BDC8140020CD
:10066000014B1876704700BFC8140020014B93F867
:10067000E0007047C8140020044B93F88F201AB98B
:10068000188DC0F30030704701207047C814002057
:10069000024B188DC0F3C020704700BFC814002063
:1006A000014B93F8E2007047C81400202DE9F34194
:1006B00082071E4D06460F462C6B22D5D5F8883092
:1006C00023B940F28E412720FEF776FCB5F88C2046
:1006D0001846296C033291F8018009F0D9FF0DF119
:1006E000020201A92864D5F8E4000AF0CAFE0198C4
:1006F0000AF0B1FE012238604146D5F8E4000AF064
:1007000057FEF3070ED5D4E93A32013342F1000225
:10071000C4E93A3294F88430012B0CBF0023012342
:1007200084F8843002B0BDE8F08100BFC814002016
:100730002DE9FF47B44C002380468946276BCDE95D
:10074000023394F83C30022B04D040F211512720A0
:10075000FEF732FC238D590606D44020FFF776FBC6
:10076000238D43F04003238597F88C30B8F1000FB8
:1007700000F05081A3B106F01DFC88B9236C5A78B3
:1007800072B11B7897F88420C3F3C0039A4207D153
:10079000012384F83530FFF75FFB04B0BDE8F08734
:1007A000236C5978A4F88C1009B3D4F8E4000AF04B
:1007B000D6FDC4F88800238D97F8832043F4007396
:1007C0002385236C1B78C3F380039A4200F0C28018
:1007D000256B95F88230002B40D0022B11D102A955
:1007E000E06F0AF05DFD28B940F20541AFE7C4F8BB
:1007F0008810E0E7D5E93832013342F10002C5E95B
:100800003832002194F82C3085F882103BB195F8ED
:100810007E3023B1102085F87E10FFF70FFB95F88E
:100820007D309BB1002685F87D6002F009F810B993
:1008300040F21C418BE731460820FFF7FFFAD5E96B
:100840003832013342F10002C5E9383295F883307D
:10085000012B0CBF0023012385F88330238D4FF03B
:10086000000A43F400632385216C97F884200D78F7
:10087000C5F3C0039A426FD00025206C0AF0D0FF68
:1008800097F88B30B3B194F82C3097F86C00B3FA2A
:1008900083F35B0984F87030D7E93823C4E918235F
:1008A000FFF75EFB00220346584900920420FB221A
:1008B00006F024FAB9F1000F00F0CA80012607F013
:1008C0001FFA1DB103A90220FFF7F0FEBAF1000FD5
:1008D00010D094F82C3043B1B4F80720B4F80530A8
:1008E0001343B7F88020134304D0B4F80930013320
:1008F000A4F80930B8F1000F00F0C480B4F8053056
:100900000133A4F80530002384F8E230404803F0B6
:10091000BBFC029830B10AF09EFD216B00220272EE
:1009200002F032FE039B33B1216B00221A720C22BB
:10093000039802F0F7FD002E7FF42DAF238D1B06E8
:100940003FF52BAF8020FFF781FA238D43F0800322
:10095000238522E7C24687E705F00305266B032DB2
:1009600014D0F5B996F88430013B18BF012386F8FE
:100970008430236C5B78002B3FF47FAFD6E93A32AA
:10098000013342F10002C6E93A3276E7238D0120B5
:10099000002543F4805386F87C002385FFF74EFA48
:1009A000E0E74D78002DDDD0238D96F88C5043F490
:1009B0008053238506F03CFE042894F8E83006D1E5
:1009C000002D14BF1B221F22934228BF1346226C06
:1009D00052789A420BD8D4F88830002B3FF44CAFB1
:1009E00094F8E1306BB12020FFF730FA44E794F837
:1009F0003430012043F0100384F8343008F064F9F7
:100A00003AE74546AEE700BFC8140020181500209D
:100A1000F41400200BB106F0E1FA94F8E23001334F
:100A200084F8E230238D43F48063238597F86D309A
:100A3000033B012B05D80025012008F045F9AA4603
:100A40001EE702F059FE82460028F4D1054617E75A
:100A500094F82C2094F8E2303AB1628C120704D555
:100A6000A26FD278022A3FF429AF012B3FF626AFBE
:100A70000120FFF7BBFA064600287FF41FAFFFF7FF
:100A800061FB1EE7B4F807300133A4F807303DE7F7
:100A90002DE9F04F04468BB01E4600230D46174645
:100AA000069390F86D800CF054F994F8C0310B2B3C
:100AB00004D940F2F2310620FEF77EFA794A32F884
:100AC00013B094F887308344442B1FFA8BFB3CD03F
:100AD0000E2B94F8862038D0443A53425341039366
:100AE00087F001030493002F57D194F80432032BAD
:100AF00053D1039B002B50D0B4F89832AB424CD169
:100B0000D4F80C322046B4F8DC2141F64B59C4F835
:100B1000F831E369C4F8FC31B4F852321344C4F834
:100B2000003205F065FFD4F8A03294F8AC224B45B2
:100B30008CBF4FF000094FF0010942B9E2699342BE
:100B40001AD020880EF0B7F816E00123C7E72088F6
:100B50000EF0AEF818B940F232713020ACE7B4F8BC
:100B6000A832B9466386B4F8AA328381B4F89832C1
:100B7000C7814381013B0382D4F89C3284F876908C
:100B8000E362B4F89A322386D4F8A032E361D4F851
:100B9000A4326362022384F80432B4F850A204F54C
:100BA0000873B4F88090A5EB0A0A0593A5EB090930
:100BB0000FFA8AF30FFA89F9002B17DAD4E98E239A
:100BC000C4E992230023012284F81B324B4694F897
:100BD00004A2354F5FFA8AFABAF1030F00F2C88116
:100BE000DFE81AF006002601640045013246EEE710
:100BF00094F86D1094F8D6010CF0C0FA8046E06AC3
:100C00005946404407F0E8FE5946C4F80802E06936
:100C100007F0E2FE94F8763007A9002B18BF4FF0DA
:100C2000020A5044C4F80C0208A807F071F8079BA8
:100C3000D4E992010093DDE908230EF09FFB814681
:100C400020460AF012FED4F8543294F86D00D4F81D
:100C50002CA0069307F08AF9069B00F52240D4F8F1
:100C60000812BB3BB1309A444FF47A73AAEB010AE5
:100C70003031B0FBF3F0D044238EA8EB090803EB2E
:100C80004101A8EB0000069094F86D000AF0F9FD10
:100C9000D4F85422069B38609B1ACC2B69D840F2BA
:100CA000D2415AE7E80A0400B4150020E36A594625
:100CB000D4F8FC01184407F08FFE5946C4F8080226
:100CC000E06907F089FE94F87630002B08BF4FF0FA
:100CD000000A5044C4F80C0220460AF0C6FDB4F8DD
:100CE000DC31D4F82C80D4F8FCA1002B40F09980A2
:100CF000002E00F09680D04494F86D0007F036F98D
:100D0000D4F80832A8F1BB0800F5224994F86D0028
:100D10004FF47A7BA8EB0308D4F8403209F1B1090B
:100D20009844C31ED4E98E12012BA8EB0108B9FB2D
:100D3000FBF973D907F01AF900F2E730B0FBFBFBBF
:100D4000A8EB090808EB0B000690D4F80812D4F8B9
:100D5000F831D4F80022303194F86D0002FB031111
:100D6000238E03EB41010AF08CFD0123386084F8E7
:100D70000432E3694FF00008D4F80C2204F1340087
:100D8000A3F5A2733F6806999B1A84F820829F42BC
:100D900028BF1F46D4E99232C4F8D8715B1842F1DB
:100DA0000002C4E98C320CF067FE0744A4F85052EC
:100DB000C4F82472D4E98C23C4E9922305F04AF8DC
:100DC00020B1D4F824321E33C4F82432B4F8C81148
:100DD00084F828824D1B2DB2002DC4BF022384F855
:100DE0002832039B002B40F0C680002E40F0C480C8
:100DF00094F80432002B00F0DC80E16904F50870FF
:100E0000D4F80C32C91A0CF061F980B2002800F055
:100E1000D080149B03B118800120DAE04FF03E0B24
:100E20008EE7D044D4F80832A8EB030306938CE78E
:100E3000D4F80C22E169D4F8F801891A4B43D4F8AC
:100E400000120693B4F8DC319944CB439944D4F8AA
:100E50000832303300FB0133218E94F86D0002FB21
:100E6000093301EB43010AF00CFD386081E7E069CA
:100E7000584306905EB3B4F8DC1141BB84F81B12F2
:100E8000D4F80C1201FB130A94F88630262BCDF807
:100E900018A003D094F88730262B09D1B4F89832E3
:100EA000EB1A1B0404D494F89B32002B18BF98460D
:100EB000002A3AD0B4F8DC31BBBBD4E98E23D4E9A4
:100EC000900182428B4108D340F2265145E694F8C6
:100ED0001B1200297FF44DAFD2E794F86D00C31EBA
:100EE000012B40D907F042F800F522404FF47A7BFD
:100EF000B130B0FBFBF000F1AB0BD4F8403294F80A
:100F00006D00103BD4E98E125A1AC31E012B924475
:100F10002CD907F02BF84FF47A7300F2E730B0FBCE
:100F2000F3F0AAEB0B0A50440690B4F8DC114046EB
:100F30008944D4F80C1201FB09F909F130094FEA90
:100F4000490949460AF09DFC234A94F8763010601E
:100F5000002B3FF40EAF06AB4946E0690CF02BF9CD
:100F600084F81B0205E74FF4897BC6E73E20D8E7EB
:100F700040F23E51F1E5E6B1B4F8F01119B3B4F81E
:100F8000F22194F8F431501CA4F8F22102FB03334F
:100F900099420EDD94F828325BB10023A4F8F201E7
:100FA00084F8283202F0B4FB00F00700013084F826
:100FB000F40104F5087194F81C0208F01BFD20B937
:100FC00040F28751C9E50A46DBE7049B84F81832F2
:100FD00000200BB0BDE8F08FB4150020F0B504463A
:100FE00085B018B9A8213020FDF7E6FF072900F2E7
:100FF0000681DFE811F008004500450040000401CB
:10100000F000F800020190F8183253B3B0F816322D
:10101000B0F8802093421ED1B0F8CC21D31AA0F8AA
:101020008020A0F8CE312046D4E98C23C4E98E2359
:1010300005F0FEFB94F8D331002B00F0CA800DF0D0
:10104000B6FD704B1B68002B00F0C380204605B036
:10105000BDE8F04018479A1AA0F8CE21A4F88030D5
:10106000E1E7B0F81432B0F880209B1AA0F8CE3136
:10107000B0F81432F2E705B0BDE8F04006F054BE17
:101080000EF00CF9D4E98E23801A61EB03010128DC
:1010900071F1000302DA40F21261A4E76FF001037C
:1010A00083424FF000038B4102DA40F213619AE76A
:1010B000E5690DB1B0FBF5F594F88730442B14D0F9
:1010C00094F88620442A0AD00E2B08D0A2F14306B9
:1010D00072427241B4F81612B4F880303AB1B4F8E2
:1010E00016320133A4F8163214E00122F2E72B4441
:1010F0009BB2CA1A150454BF4B1C01339BB2A4F80F
:10110000163294F819322BB9B4F81622B4F8CC314F
:101110009342E6D0B4F8523202AEB4F880500133B4
:10112000394FA4F85232B4F8BA301D44B4F8B8308C
:10113000013DED1AADB23B685BB1B4F81612002266
:101140002046013989B29847B4F816321844A4F8F9
:101150001602B4F816126B1A18041ED40023204687
:1011600000961A46FFF794FC98B3012812D1B4F800
:101170001622B4F8C811BDF808301344521A1204EC
:101180009BB204D5EA1A12F4004F18BF0B46A4F81C
:101190001632D0E740F26A6125E794F88A3030468B
:1011A0000394002B0CBF3E23082384F8A9300123AD
:1011B0008DF8083002F006FE20460DF0FAFC002300
:1011C00094F81C0284F8043208F09AFB202384F877
:1011D0001C3205B0F0BD012007F076FD05B0BDE87A
:1011E000F0400AF02DBB90F80432042B01D0CE2140
:1011F000F9E6002380F80432EBE7D421F3E6D821A6
:10120000F1E600BF88050020900500202DE9F0419F
:1012100004460E46154690F8383103F0FF071BB11F
:101220000C273846BDE8F08101464C4808F042FBE7
:1012300020288046F4D05822394604F588700EF0F4
:10124000C5F984F81081C4F81461FF2384F838319B
:1012500036B102F075FA00F00700013086F8F401AB
:1012600002234FF00008A4F8483184F8408107F0C9
:1012700007FC00F1490620460DF0D9FA0146B6B246
:10128000D8B30BF066FD00F5CD61284689B207F0B2
:10129000A3FB2844C4F844010EF000F830184FF0C6
:1012A0000106A4F8268041F1000184F81861C4E920
:1012B000540120460DF0D1FAD0B1A5F2AA4531462D
:1012C00020460DF036FA2D1AC4F81C514FF0FF32AB
:1012D0006FF00043C4E9562304F5A07194F810019F
:1012E00008F088FB70BB4FF4E5713020FDF764FE19
:1012F0003046AE3D0DF084FBE5E72046DFF8608028
:101300000DF017FAAE30C4F84401B8F8040048B143
:10131000E08C38B102F014FAB8F80430B0FBF3F204
:1013200002FB130006440DF0B9FF361841F100012D
:10133000C4E95461002DC9D0AE1941F10001C4E9DE
:101340005661C9E7D4E9542300212046C4E94A2361
:10135000C4E94C230DF0B7FA63E700BF51B90100AF
:10136000B4150020F0B5002385B0CDE90033032388
:101370008DF806306846FEF739FB88B11D4E012313
:101380000027B3710223CDE902778DF80E3002A851
:10139000FEF72CFB0546A8B10023B37105B0F0BDE4
:1013A00000980AF0BCFBE5E790F81C0208F032FE5A
:1013B00094F81C0284F8045208F0A2FA202384F85E
:1013C0001C32DFE7029B002BE1D093F81C22202A7D
:1013D000DDD018884FF6FF739842DDD00221FEF76A
:1013E000CBFA04460028DFD14FF49A713020FDF784
:1013F000E3FD00BFB4150020044B0022DA719A719E
:1014000042F210729A80FFF7ADBF00BFB415002002
:10141000014BD871704700BFB415002008B506F025
:101420000DF9044B9A6882422ABF9879002080F017
:10143000010008BDB4150020F0B5044685B090F851
:10144000D33103F0FF05002B6ED190F80432032B4B
:101450006AD10DF023FFD4E98E23801A61EB0301DA
:10146000012871F100035FDB6FF00103834275EB2C
:10147000010304DA40F2BB513020FDF79DFDE26923
:10148000B4F880300AB1B0FBF2F2013313449BB2DE
:10149000A4F81432B4F8CC31B4F814229B1A1BB25D
:1014A000002B41DD94F81C0208F0A8FB00283BD07B
:1014B000FF2384F81932B4F8BA300DF10E07B4F8EE
:1014C00080501A4E1D44B4F8B830013DED1AADB24B
:1014D000336863B1B4F8141200222046013989B28E
:1014E0009847B4F81432184480B2A4F81402B4F83F
:1014F0001432EB1A1B0417D4B4F81412002301227F
:10150000204689B20097FFF7C3FA68B1012808D1D5
:10151000B4F81432BDF80E2013449BB2A4F8143270
:10152000D6E740F20261A7E705B0F0BD90050020C4
:101530002DE9B3430446062900F28380DFE801F079
:10154000042815252C317C003F4B9B7903F0FF02CA
:101550005BB900920123B0F8CC11FFF799FA38B1CA
:101560004FF4DA613020FDF727FD042384F80432BC
:1015700006F068FA08F098F80023B4F88020A4F880
:101580005232A4F8162284F8193202B0BDE8B083B2
:10159000032380F80432F8E70DF0CEFBC4E9900194
:1015A000F3E72A4B1B681BB10246D0E9900198472C
:1015B00094F86D30E569033BDFF88C90012BD4F88B
:1015C0000C3294BF4FF028084FF000089D4208F5F8
:1015D000807888BFED1A99F8073098BF00251BB9AD
:1015E000636B9D4228BF1D46D4F8D87104F13400C6
:1015F0000CF042FA0744022008F05EFC0221ED1BC9
:1016000025EAE575854228BF0546284608F09AFC7C
:1016100000B92F444246394620460CF0BBFAD4F8B4
:10162000D831C9F80800E069184408F017FC002810
:10163000ABD140F27E3195E702B0BDE8B0430AF08D
:1016400014B940F284718DE7B415002084050020A0
:10165000012A70B505460C46164615D0022A18D048
:1016600042BB05F0EBFF3246014620460AF027FA5E
:101670002A46124994F8100107F016FB40B940F2CF
:1016800097713020FDF798FC05F0D8FFC5F854029B
:1016900070BDD0F85412012220460AF010FA2A46F2
:1016A000064994F8100107F0FFFA0028F0D14FF432
:1016B000F561E6E740F2AE71E3E700BFDD0F010040
:1016C000014B9880704700BFB4150020343270B5CC
:1016D000054692B20C461E4609F067FF25B1034A43
:1016E000556014745674147070BD00BFD815002076
:1016F000014B1870704700BF11050020014B587056
:10170000704700BFF01500200138C0B2032808B5AB
:1017100004D94FF450710620FDF74EFC014B185CC4
:1017200008BD00BF700B04000138C0B2032808B523
:1017300004D94FF450710620FDF73EFC014B185CB4
:1017400008BD00BFF20B04000138C0B2032808B581
:1017500004D94FF450710620FDF72EFC014B185CA4
:1017600008BD00BF680C04000138C0B2032808B5EA
:1017700004D94FF450710620FDF71EFC014B185C94
:1017800008BD00BF400D040008B5034610465A1EB0
:10179000032A10D84A1E032A0DD8084A012951707D
:1017A00014BF0A2100211071937091721946FEF73F
:1017B000EDFA002008BD6FF01500FBE74609002098
:1017C000054A537A20B143F0040300205372704756
:1017D00003F0FB03F9E700BF46090020F8B58D1FB1
:1017E00040F67A4C0746BDF82460ADB21046BDF80D
:1017F000182065453BD8841FA4B264458CBF0024E3
:1018000001242546AFBB1D4F3F796FB15CB96FF422
:1018100050654D19062D06D86FF450640419062C36
:101820008CBF002401242546FDB1814224D803FB4E
:101830000666B6F5FA7F1FDCA2F10A0340F676448D
:101840009BB2A34218D80AF054FA42F2107300FB7C
:1018500006F15A43B2EB410F0ED9BDF81C50BDF84A
:10186000200085428CBF002501252846F8BD0024B4
:10187000C7E797F87570C8E70025F6E7B8160020A7
:10188000304BF0B5B0F860700C4611461A88B0F8CD
:101890005E6085B097425D8828BF1746964228BF94
:1018A00016461B2E2ED0B5F5A47F2DD040F648034A
:1018B00001AA9D4228BF1D460AF044FABDF80A302D
:1018C0009F4228BF1F46BDF80C30AB42E78028BFBF
:1018D0002B462381BDF806309E4228BF1E46BDF828
:1018E00008309D42668028BF1D46A580FF232370D7
:1018F000E3881B3B9BB2E02B08D940F219613920E9
:10190000FDF75AFB1B2FCED105B0F0BD63881B3B02
:101910009BB2E02B02D940F21B61F0E7238940F62D
:101920004812A3F5A4739BB2934202D940F21D6101
:10193000E5E7A388A3F5A4739BB29342E4D940F2F0
:101940001F61DCE7B81600202DE9F34100230446AF
:101950000E46174600F10A08CDE900336846FEF747
:1019600045F808B1002015E0009DA542F6D03046AC
:10197000EB1C0AF0B8F93946AA780BF035FB0028C1
:10198000ECD005F10A036A7A4146607A0BF02CFB31
:101990000028E3D002B0BDE8F0810000054A1346FC
:1019A00092F8202053F8211B11F8030BC0F380108C
:1019B0000BF01ABB241C0020114BF7B59C7E064689
:1019C000DD7E9F8B14B900F075FD0446A5B900F0CB
:1019D00071FD054614B9092003B0F0BD0028FAD006
:1019E000304601A98DF804408DF80550ADF8067019
:1019F0000BF0C0FB0020EFE7002CF1D1EBE700BFBC
:101A00007C1B002010B503210020FDF7B5FF044624
:101A100070B90321FDF772FF044620B940F24D3141
:101A20003920FDF7C9FA034B93F960100CF03BFE27
:101A3000204610BDB816002038B50BF0D4FA0025AA
:101A400001F0BEF8234C00F043FD0BF06DFF01F0F8
:101A500007FB02F089FC01F02BFB012000F0FCFCED
:101A60001D4B1E4A29465D831A601B229D839A8066
:101A7000F9229D771D761A4B22835868194A1B89D3
:101A800022601422E06104F12400238484F8615070
:101A9000A4F85450A576A580A5750DF097FD0123F7
:101AA00042F2107204F13A0084F8565084F824305F
:101AB00084F83930C4E90A220DF0F0F804F144004A
:101AC0000DF011F90022002384F87050C4E91A23A4
:101AD00038BD00BFB81600207C1B002003021B008D
:101AE000F20B04001B004801044B41F64C521B2131
:101AF0005A611974C3E90222FFF79EBF7C1B0020C4
:101B000073B5394D0446AB6840F8343F0AF03EF8EF
:101B1000064600F0C9FC2B7C10F0200FE68784F805
:101B20003C30324B0EBF1B22AA8869881B6814BF49
:101B3000A4F85E10A4F85E20A4F860201BB194F90C
:101B40007410208898472A490B79003B18BF01235D
:101B500084F87530274B1B6813B1083120889847EB
:101B600094F875302046002B41F64C5318BF4FF4C3
:101B70007A73E361FFF720FF064648B1022120880F
:101B8000FDF710FF60B340F2D3513920FDF714FA8E
:101B900001236386184B1B6813B1014620889847C0
:101BA000164B1B6813B1002120889847697804F10F
:101BB0001400AB886A8801910333297803329BB201
:101BC000009192B204F11801FDF748FF636913B95F
:101BD0004FF4BE61D9E7A3691BB940F2F151D4E7D4
:101BE0000926304602B070BD7C1B002098050020FD
:101BF000B8160020AC050020A8050020A405002090
:101C00002DE9F34105460E460CF08EFD002800F04C
:101C1000AF8028460CF00BFE30B1B6F80130013B26
:101C20007F2B01D9122404E028460CF004FE20B9D1
:101C30000C24204602B0BDE8F081284609F0F2FFEE
:101C40000028F5D128460CF018FD80460028EFD179
:101C5000284603F03BF90028E4D042F21073B6F8AE
:101C60000170F17828465F430CF0CDFD04213078F7
:101C7000FDF782FE044606213078FDF77DFE002C3C
:101C800078D038B141F6F3113920FDF795F90446C3
:101C900090F8BD80414E3368002B6DD04034204613
:101CA0000CF0E0FF002867D020460CF0CFFF0028A2
:101CB00062D1B8F1000F08D0394B20461B68984715
:101CC000002859D041F60721DEE7364942463368FD
:101CD00020464969984700284ED041F60C21D3E7A9
:101CE00028460CF0A4FD40B902210DF10600FDF7D5
:101CF000CDFD064658B90D249BE728460CF0A9FDFA
:101D00000028F1D1284B1B79002BEDD18AE7002167
:101D100001F014F9BDF806302846314633800CF046
:101D2000C3FD28460CF095FDA8B9296A28460CF099
:101D30009AFD01463046FFF7E3FE044600287FF493
:101D400078AF3A4631462846FFF760FA044620B19C
:101D500041F6382198E70121ECE7134BDB6D002BAE
:101D60003FF467AF024606F58D713046984760E74D
:101D700042245EE700288AD128460CF050FD014637
:101D80000028ADD13A462846FFF740FA044600281D
:101D90003FF44FAF41F6152176E700BFA0050020C4
:101DA0009C0500207C1B0020B8160020034B5A889D
:101DB00002801B7883700020704700BF7C1B0020CE
:101DC0007FB5837806461A2B09D8042B05D9012242
:101DD00002FA03F3314A134205D112251AE0292BE6
:101DE00001D03B2BF9D13088B0F5706FF5D2694640
:101DF0000BF048F988B9019B93F8182102F0FF0510
:101E0000C2B9B27883F81921FF2283F818216846F5
:101E10000BF063FD284604B070BD09213088FDF742
:101E2000ABFD0446002837D002A9B0F8AC010BF096
:101E300029F908B10C25EDE70821B4F8AE01FDF74A
:101E40009BFD20B940F628113920FDF7B5F803783D
:101E50001BB994F8C831032BECD1039B93F82E21C6
:101E6000002AE7D194F8F02102F0FF05002AE1D121
:101E7000B4F8B021A3F8302194F8B42183F83221CA
:101E8000027D83F83321B27883F8342184F8F0217D
:101E9000FF2283F82E21BDE70225BBE7200038048E
:101EA0000188A1F11B039BB2E02B0CD8428844F2BD
:101EB0004810A2F5A4739BB2834204D8034B0020C0
:101EC00019805A8070471220704700BFB816002052
:101ED000034B1A885B88028043800020704700BF54
:101EE000B816002038B50478427804F001038578EC
:101EF00004F0020452EA030101D1112038BDBCB93B
:101F0000002DFAD0002B08BF144601E0002425461E
:101F1000204609F0B2FF0028EFD0284609F0ADFFB7
:101F20000028EAD0054B00209C76DD769883E5E713
:101F3000002BEBD114461D46EAE700BF7C1B0020B6
:101F400013B5008869460BF09DF818B102242046AD
:101F500002B010BD68460AF02EF80028F6D00198AD
:101F600090F82A310BB13A24F1E790F8D23003F01F
:101F7000FF04002BF7D190F8C9309B0706D1FF234F
:101F800080F82A3168460BF0A8FCE0E70249CA3025
:101F90000BF0F2FCDBE700BF59E101002DE9FF4146
:101FA000077804460E46EF2F04D91226304604B0B7
:101FB000BDE8F081B0F80130ADF80C309DF90C208F
:101FC0009DF80C30002AF0DB9DF80D209507ECD130
:101FD000D80660D4990603F0030259D5002AE4D14B
:101FE0001D0703D503F06703012BDED163781807C3
:101FF00011D42179E278E07942EA0122617942EA5A
:102000000142A17941EA0021207A41EA00418A4255
:10201000CBD81F2AC9D9627A013A062AC5D8A27A32
:10202000032AC2D813F0040102D1023A012A03D8CC
:10203000E27A012AB9D811B9A27C032AB5D813F0E3
:102040001001227D37D0012AAFD1237E012BACD8DD
:10205000002940D06378D90703D500F0BDF90028E6
:1020600040D06378227D03F01803082B4AD1022A5E
:1020700038D11FFA87F803214046FDF77DFC05465D
:10208000002845D009F0CEFD00284DD00C268DE764
:10209000032AA5D189E713F0600F86D103F00F0260
:1020A00003F00703052BA1D0931E012B9ED9002A14
:1020B0007FF47BAF9AE7022A04D103F06F03092B68
:1020C0007FF473AFA37D013B022B3FF66EAFE37D40
:1020D0000F2BBAD969E700F0EDF9820707D4237D09
:1020E000022B01D1112661E7A37D022BFAD000F06B
:1020F000E1F94307AED4237D032BF3D0A37D032B5B
:10210000A8D1EFE7022AB4D0237F002BB1D0E9E7B2
:1021100003214046FDF7F2FB0546002843D0234B40
:1021200093F960100CF0BFFA002138460CF07AFDEC
:1021300028BB28460CF070FB21463070E07428461E
:1021400002F01CFFE37E0646002B3FF42FAF002871
:102150007FF42CAF0246E96C6846FDF75BFD324622
:10216000E86C012109F076FAE96C68460422FDF773
:1021700051FD32463146E86C09F06CFA16E7403002
:102180000CF070FD0028D4D0637813F0330F7FF487
:102190000CAFA77D2846296A0CF065FBFFF7C4FA4F
:1021A0008742C6D072E7072600E700BFB8160020B6
:1021B00030B502798BB00346042A5CD84488B4F564
:1021C000804F58D82D4800211044ADF800108DF8EC
:1021D0000810827C457B42F010028DF81D1042EA07
:1021E0004502C57D007F42EA850242EAC00202F054
:1021F0001F028DF80020BDF80020ADF809201A88D4
:102200008DF80E40240A8DF80B20120A8DF80D105F
:102210008DF810108DF80C208DF80F405A7BD3F8F4
:1022200007008DF811205A79059002A88DF8122028
:102230009A798DF81320B3F80B209B7BADF818200A
:102240008DF81A307F238DF81B3001238DF81C3058
:102250008DF81E308DF81F108DF820108DF823108A
:102260008DF824108DF821108DF822106946FFF7A3
:1022700095FE0BB030BD1220FBE700BFF20B04004F
:102280000278034672B1427862B142881A2A09D9AB
:1022900082881A2A06D90068034A106000209B88A9
:1022A00093807047122070477C1B0020026800203A
:1022B000014B9A60704700BF7C1B00200378A3F19C
:1022C0000A02112A9BBF024A002012201374704791
:1022D0007C1B0020014B187600207047B8160020A8
:1022E000014B587600207047B8160020024B1B683F
:1022F00003B11847112070479405002008B5052048
:1023000000F0B6F804F0F6FB014B024ADA6508BDAE
:10231000B81600208118010008B502F0B9FDFFF7DA
:102320006BF80248BDE8084002F09CBD2C17002065
:1023300008B50AF056FE064800F58471FEF700F86D
:10234000022009F004F90020BDE8084009F0FFB8B8
:102350002C17002008B50122064B83F80A2202F050
:102360009FFD03F069FDFFF7E3FFBDE8084001F0C2
:10237000BFB800BF2C17002010B5064C064904F565
:1023800003700AF0A6FC04F504700449BDE810408F
:102390000AF09FBC2C170020B0050020B8050020D3
:1023A00010B5094C094904F503700AF092FC04F5D4
:1023B000047007490AF08DFC04F505700549BDE875
:1023C00010400AF086BC00BF2C170020C805002072
:1023D000D0050020C0050020014B93F80A02704789
:1023E0002C17002038B5094C0D4601F05DF8D4F8E3
:1023F0000C02C4F804510AF064FCFFF775FB01F00D
:10240000B7F9012384F8183238BD00BF2C1700201B
:10241000014B93F8180270472C17002010B50D4C93
:10242000D4F810020AF04DFCD4F814020AF049FC6A
:10243000FFF702FB202000F029F82F2000F026F8FB
:10244000262000F023F8292000F020F8002384F84B
:10245000183210BD2C170020014B83F81902704769
:102460002C170020014B93F8190270472C170020FD
:10247000C2080549012300F0070003FA00F08B5C55
:1024800018438854704700BF18050020C20805494A
:1024900000F0070001238340885C20EA0300885491
:1024A000704700BF18050020014BD3E900017047B9
:1024B00018050020054B1868C0F3C022C0F30020A7
:1024C000400040EA820040F00100704718050020FB
:1024D00008B506F0CBFA0023074A32F823108142F0
:1024E00005D302EB83039B78044A137008BD0133C4
:1024F0000C2BF2D10023F7E7380C0400461900201A
:10250000024B1878072828BF07207047461900207B
:1025100010B54468238884F87B11A4F87C3194F8C2
:102520006C00FFF711F984F87E0194F86D00FFF755
:102530000BF9054984F87F0104F5B9700BF01CFA1A
:10254000002384F8243110BD57CD010040680749AD
:102550000388A0F86E3190F8643080F8703190F8FC
:10256000653000F2651003730BF000BA6DCD010009
:102570002DE9F04F0C4685B0054608460BF08CF966
:10258000064620460BF080F9804620460BF080F985
:10259000834620460BF07EF96C68074694F8873036
:1025A00094F886A0242B30D104F18709002E4BD05B
:1025B0000BF0070B58460AF028FC88B394F86C30EF
:1025C00098422DD094F82421012A0CBF94F826219A
:1025D00094F868201BEA020F36D0BAF1220F1FD000
:1025E00094F865201BEA020F1AD1461EF6B2032E9C
:1025F00006D8013B5E4ADBB21644032B31790BD976
:1026000040F21F210620FCF7D7FCBAF1220F40F060
:10261000AA8004F18609C9E713441B798B4213D8B9
:1026200008F0070108460AF0F0FBC0B394F86D30DB
:10263000834234D094F82431012B0CBF94F8273115
:1026400094F8693019422AD194F82431012B15D11C
:102650001E212846FFF75CFFBAF1220F12D16B68EA
:10266000182283F809210A2283F8862093F8C230C1
:10267000002B44D140F2B3217E20C4E7002384F82C
:102680002431E9E70023284689F800300BF0D0FA1E
:102690001821284605B0BDE8F04F0BF0F5BA03ABA2
:1026A00020465A4600933B460AF0BAFB6C6880BB52
:1026B00094F82431012B29D1B4F8803004F5267226
:1026C00094F86C10B4F828010AF00AFC0446C0B96A
:1026D00001462846FFF71CFF89F800406B6803F1AC
:1026E0008702914502D1002283F887206B6800247D
:1026F00003F18702914533D128460BF099FA002067
:1027000032E06B68282283F88620E7E784F824010A
:10271000E4E7B4F8800047F6FD73A4F89872C0436C
:102720000744BFB29F4206D92823284684F8A9301F
:1027300001F048FBDAE794F887300E2B02D00B3B10
:10274000012B01D82A23F0E79DF80C3084F89A3247
:102750009DF80D3084F89B32262389F80030C5E7B8
:1027600083F8C240CBE7022005B0BDE8F08F00BF80
:10277000680C0400064B002283F850204FF6FF72CD
:10278000A3F85220A3F85420A3F85620704700BFA6
:1027900048190020064BB3F85220824201BF0022A4
:1027A00083F850204FF6FF72A3F85220704700BF05
:1027B00048190020014BA3F8540070474819002025
:1027C000094A03464FF6FF71B2F85200884206D11B
:1027D00092F85010012905D001201A60704700209E
:1027E000186070470020704748190020074B93F885
:1027F0005020012A1BBF0120B3F85420002083F889
:10280000500018BFA3F85220704700BF481900209D
:10281000014BA3F85600704748190020074B0246A9
:10282000B3F85610B3F85200884205D193F850001F
:1028300018B101201360704700207047481900202C
:102840000A4BB3F85210B3F85620914201D0002041
:1028500070474FF6FF72A3F8522093F85020002AD9
:10286000F5D00022012083F850207047481900203D
:10287000064BB3F85210B3F85620914203BF93F8B9
:102880005000B0FA80F0400901207047481900203C
:1028900050B90A4A0120134603F8010B0868C2F830
:1028A00001008A889A807047012805D1034B0A6885
:1028B000D8719A608A889A81704700BFA019002059
:1028C00048B90A4B187880B1D3F80120B3F8053025
:1028D0000A608B807047012806D1044BD87920B15B
:1028E0009A689B890A60F4E700207047A0190020CD
:1028F00020B9054B187800F00100704701280ABF85
:10290000014B0020D879F6E7A0190020F7B58B8895
:1029100000228DF80600ADF8043008680B4B8DF8E6
:10292000072001461C7803F5AC73019DD0B28442A8
:1029300001D8082007E0D3E9007601320833AE421F
:1029400008BF8F42F2D103B0F0BD00BFB019002024
:10295000084B0146002230B55C7803F58173D0B294
:10296000844201D8082004E013F8015B01328D4253
:10297000F5D130BDB0190020F8B52D4C6378221880
:10298000013B92F80251DBB28342637030D01A01EE
:102990000101961C8F1C2644274406F1100C56F8A2
:1029A00004EB664547F804EBF9D1823282312244C8
:1029B000214402F1100652F8047BB24241F8047B34
:1029C000F9D1E118221891F8026182F80261062615
:1029D0007343704303F5857300F58570E618E3587B
:1029E00027182350B388BB8091F83A3182F83A31E6
:1029F0002846FFF7ADFF082818D12378013BDBB24A
:102A00009D42237012D02B3305F12B0204EBC3033C
:102A100004EBC20293E8030082E803002078FFF78A
:102A200097FF08281CBF241884F80251F8BD00BF86
:102A3000B0190020F0B5254D89B095F8984105F200
:102A400099116846224607F023FE214668460AF09F
:102A5000E9FA0446B8B300EB400102A8C9B2FCF79A
:102A6000F7FC601E95F8A1610124C0B295F8982189
:102A700005E0731CB3FBF2F102FB1133DEB206F189
:102A800020030DEB030111F8203C002BF1D100EBEA
:102A9000400201F8204C06EB460320322B446A44E6
:102AA00012F8187C83F8A27112F8177C12F8162C11
:102AB00083F8A37183F8A4210138AB19C0B283F85D
:102AC0009941FF28D2D109B0F0BD00BFB019002054
:102AD00070B5064688B00C46002A4FD02A4A92F8B4
:102AE000A131D01890F8991121B94FF480712820A4
:102AF000FCF762FA03EB43010133114491F8A25150
:102B0000E57091F8A35191F8A4112571617100212C
:102B100080F8991192F89811B3FBF1F001FB103392
:102B200082F8A13192F8C23123B9184902F5DD705B
:102B30000AF01FFF65790D220021684605F03F0568
:102B400045F0400565710CF041FDE37804AA694643
:102B50008DF80F30304623798DF80D508DF80E30FA
:102B600004230CF077FC9DF81F3023709DF81E3075
:102B700063709DF81D30A37008B070BD032160180C
:102B8000FCF766FCD6E700BFB0190020352A01002B
:102B9000044B5A78824286BF1B1893F84A010020E2
:102BA000704700BFB0190020044B5A78824286BF9C
:102BB0001B1893F842010020704700BFB019002095
:102BC000064B00224FF461711A8083F8C32183F809
:102BD000C421A3F8C61183F8C2217047B0190020A0
:102BE000014B83F8C4017047B01900202DE9F0476C
:102BF0008246894617469846FFF788FE082805460C
:102C0000064603D0FFF7A4FE082863D1334C63784F
:102C1000072B61D8082D18D12678731C072E237036
:102C200003D96B212820FCF7C7F906F12B03D9F84B
:102C30000000DAB204EBC30344F8320004EBC20133
:102C4000B9F804208A8083F806A0657807F110029D
:102C50006B1C290163704B1C234412F8010DBA420E
:102C600003F8010FF9D1813108F11003214413F861
:102C7000012D984501F8012FF9D125441021404636
:102C80000AF018FA102185F8420138460AF012FAC3
:102C9000002385F80261667885F84A0185F83A31A3
:102CA00031460F480AF0BEF9054631460D480AF094
:102CB000B9F9012D03D8002818BF0135EDB284F809
:102CC00098510025284684F8A151FFF7B3FE284605
:102CD000BDE8F0871220FBE70720F9E7B0190020D4
:102CE000F21A0020FA1A0020064B10B55878013865
:102CF00040B2002800DA10BDC4B22046FFF73CFE07
:102D0000601EF5E7B0190020014B83F8C30170473E
:102D1000B0190020014B93F8C3017047B01900208F
:102D2000431E4AF2B7129BB293429DBF024BA3F8D7
:102D3000C601012000207047B0190020014BB3F8F4
:102D4000C6017047B01900200A4B30B55C78844248
:102D50000ED9184490F802012B3003EBC004A5797A
:102D60000D7053F8300010600120A388938030BDAF
:102D70000020FCE7B01900200246074810B590F883
:102D8000C34124B1417821B1023003F0DFFE204677
:102D900010BD0C46FBE700BFB01900202DE9F74F2E
:102DA0002F4C9A46804689466378834256D9231829
:102DB00093F8425185F00105F9B193F84A31E3B92E
:102DC00045F002070135BAF1000F18D1FA070AD50C
:102DD000062104EB0810524601FB0841823001F540
:102DE0008571FFF775FEBB0734D504EB081052461A
:102DF00049460230FFF76CFE2CE02F46E3E794F8DB
:102E0000A1614FF0010B002DE0D0A31993F89911A7
:102E1000019399B90092DAB100F07AFC019B06EBBC
:102E20004601009A4FEA102C83F899B1214481F8A9
:102E3000A201000C81F8A3C181F8A401013694F825
:102E40009831013DB6FBF3F103FB1166F6B2DAE708
:102E500047F00407384603B0BDE8F08F0027F9E7D4
:102E6000B0190020074B5A78824209D91A1892F8F3
:102E700042212AB9062202FB003000F58570704716
:102E800000207047B0190020064B5A78824281BF5B
:102E90001B1893F83A01B0FA80F0400998BF00205F
:102EA000704700BFB0190020F8B50E46074606214E
:102EB000154630460AF0FEF8044640B10A48294655
:102EC000427800F59D700CF081FB2046F8BD31463C
:102ED00038460AF0C3F808281FBF034B0124C01866
:102EE00080F83A51F1E700BFB019002030B5002456
:102EF00042F21075A0F84040B0F844404C43B4FB97
:102F0000F2F4A0F84440541E05FB0343B3FBF2F374
:102F1000A0F84230084BB3FBF2F30133A0F848307D
:102F2000838F05FB0344436B5943B4FBF2F4B1FBBD
:102F3000F2F28463426330BD005A620270B5044607
:102F40000D4651BB4FF434720CF040FB012384F862
:102F5000DE5084F88E306FF0360384F8D9300423C5
:102F600084F8DA306FF03B0384F8DB306F2384F8A9
:102F7000DC306FF03C0384F8DD30062384F8DF306A
:102F80002B2384F8D830FE2384F80E317F2384F875
:102F90008530202384F81C3270BD012917D100230D
:102FA000A0F8DC3180F8D3310D4BC26913441146CF
:102FB000B3FBF2F3C0F8B03040F6B833A0F8B43049
:102FC000C38C04F17800BDE87040FFF78FBF022981
:102FD000E2D1B0F8A632D0F8A022C169F1E700BF73
:102FE0007FC3C901034B80F874101B680BB10088C4
:102FF00018477047D8050020074B93F90030184454
:10300000142804DC10F17F0F03DB40B2704714205A
:1030100070476FF07E007047781B00207F2307B554
:103020000DF107008DF8073004F02CFE9DF90730F4
:1030300068B10A4A5078404240B21844142808DC6B
:1030400010F17F0F07DB40B203B05DF804FB1846B8
:10305000FAE71420F8E76FF07E00F5E7781B002010
:10306000024B00221A705A70704700BF781B002074
:10307000054B1B7833B9054B1A681B790260037145
:1030800001207047002070477A1B00202005002097
:10309000054BFF221A70054A016811600179117110
:1030A00000221A70704700BF7A1B00202005002004
:1030B000064B07B518681B79009068468DF80430F8
:1030C000FFF7E6FF03B05DF804FB00BF266B0400CA
:1030D0000346407898B1DB783C2B05D8084AD35C8E
:1030E0001B1A58425841704703F11602D2B2042A03
:1030F00004D8034A134413F8AD3CF1E701207047AC
:10310000700C04003C2908B5C17003D80B4B5B5C04
:10311000437008BD01F11603DBB2042B04D8074B42
:10312000194411F8AD3CF3E7FF2904D040F25941AE
:103130002A20FBF741FF0123EAE700BF700C0400DF
:103140002DE9F04385B089461446984602A909F056
:1031500099FF054600283DD1039E34B9012486F825
:103160008D40204605B0BDE8F0837769214638469A
:1031700008F013F8014678B3194B5B88A3422DD3AE
:1031800001AA384608F061F996F88D300198002BB5
:103190000CBF494602210AF08AFA019822464146AC
:1031A000033007F075FA2146384608F03BF804462C
:1031B00018B97D212B20FBF7FFFE9DF808302BB1BD
:1031C00002A80AF08AFB039BA3F8CA51002386F8E1
:1031D0008D30C6E70124C4E70446C2E72C46C0E7A9
:1031E0007C1B0020024B987FC04300F00100704719
:1031F0007C1B0020034B987F80F00200C0F340004E
:10320000704700BF7C1B002083230B70014B1B7891
:10321000CB7070479C1B00202DE9F74387698146DE
:103220000D46384608F003F9014618B9FC21102074
:10323000FBF7C2FE01AA384608F007F9064610B9A6
:103240004FF48071F3E7019BB9F8000003F1030824
:103250001D4B1B687BB9B9F800300198AB80002387
:10326000EE806B720AF02BFA01280ED002280CD0E7
:103270004FF48D71DBE732464146984704460028FB
:10328000E9D1204603B0BDE8F0832872384608F043
:10329000E4F8044610B940F22311C8E7FB2E02D926
:1032A0004FF49671C3E7286810B940F22D11BEE7BC
:1032B0003246414607F0ECF9384608F016F8002887
:1032C000DFD140F23111B2E7E00500202DE9F347EC
:1032D00006460D460527DFF86C81DFF86C912B69F7
:1032E0004BB11B7A1BB97E211020FBF765FE2C69C0
:1032F00094B9002066E06C68237A012BF9D0EFF3D3
:10330000108372B66A6812686A6003B962B62C618B
:10331000237A0BB9A421E7E794F808A05FFA8AFAA8
:1033200027720AF1FF330B2B77D8DFE803F073061F
:103330001027703D4E3D3D3D3D61636813B94FF42C
:10334000D471D1E731462046984704201EE06368D7
:1033500013B940F2B111C7E73146204698470346FA
:10336000ADF80400C0B2C3F30723012B58D0022BE1
:103370000CD100232B610028B1D023E0636813B97E
:1033800040F2B911B0E7204698470020EFF31083D0
:1033900072B6227A052AD1B24AD1002222722A615B
:1033A000002BE8D162B6E6E7D9F80030002BECD06C
:1033B0005246314660689847BAF10A0FC5D10023DA
:1033C0002B61042002B0BDE8F08763680BB9B3211C
:1033D0008AE70D2200243270012219885869B270E0
:1033E000A6F803107271B47107F07FFF2C61E8E753
:1033F000606810B940F2E11176E7D8F80030314644
:103400009847034660B1002302202B61DAE74FF4AE
:10341000F97169E740F2F51166E74FF4FC7163E773
:1034200084F808A00028CDD1002B7FF458AF60E7C6
:1034300011B940F2192157E7002B7FF450AF62B663
:103440004DE700BFDC050020E405002070B5144CFA
:1034500014260021231D324618460CF0B7F8034607
:103460000125257404333246002104F11800C4E913
:1034700001330CF0ABF884F8245004F11C03094A22
:10348000C4E906330023E362236384F83430C4F8CC
:103490003530C4F8393084F83D30136070BD00BF5A
:1034A0009C1B0020E005002010B5084C2378FF2B62
:1034B00004D04FF49D711020FBF77EFD07F000F85B
:1034C0002070BDE81040FFF7C1BF00BF25050020F8
:1034D00010B5034C207807F00FF8FF23237010BDC0
:1034E00025050020014B187807F016B825050020A7
:1034F000014B024A1A607047DC05002019320100B6
:1035000010B506490446FFF7E1FE28B920460449F4
:10351000BDE81040FFF7DABE10BD00BFB41B0020AD
:10352000A01B0020134610B5027A22B140F295216B
:103530001020FBF741FD0A4601460248BDE8104055
:103540000AF0F4B9A01B0020044890F834301BB9ED
:1035500003492C300AF007BA704700BF9C1B0020BB
:103560001FD901000346064890F83E203AB190F872
:103570003D2022B9034900F8353B0AF0F4B9704701
:103580009C1B0020093201000A4610B5037A23B1C2
:1035900040F29D211020FBF70FFD01460723024852
:1035A000BDE810400AF0C2B9B41B00201346027AED
:1035B0000AB1037270470A46014601480AF0B6B9DB
:1035C000A01B00201B234FF01B1283840384826105
:1035D0008382C260038541B94FF4A473094AC3844E
:1035E0004384C261C382026170474FF429634FF480
:1035F000A472C384438403F12963C282C36103615B
:10360000704700BF4801480103460846B3F85820F8
:10361000B3F84C10B3F842C08A42F0B493F86D404E
:1036200028BF0A46B3F85060B3F85A10033CB3F809
:103630004870B142E4B2B3F8465028BF3146012C7D
:10364000A3F842208BBFB3F84A604FF429660C46BA
:103650004FF429649742A3F8464038BF17468E427C
:1036600038BF0E469445A3F84870A3F84A6026D1A7
:103670002C1B18BF0124B3F85420B3F84E50B3F8F4
:1036800040609542B3F8441028BF154693F86C206B
:10369000033A012A15D9B3F85220B3F85670BA424A
:1036A00028BF3A46AE42A3F84050A3F8442002D1C6
:1036B000914200D144B10549F0BC0AF05DB9012442
:1036C000D9E74FF42962EDE7F0BC70477FD90100DC
:1036D0000B8BA2F809001046A2F80B304B8BA2F816
:1036E0000D308B8BA2F80F30CB8B0249A2F8113032
:1036F0000AF03CB9E1D90100014B1878704700BFCE
:10370000DB1B0020014B1878704700BF2605002006
:10371000094AD2E90003434083EAB01181EA432118
:103720004FEAF34311605360044B58434FEAF06093
:1037300000EB8000704700BFDC1B0020BB79379E88
:10374000094AD2E90003434083EAB01181EA4321E8
:103750004FEAF34311605360044B58434FEAF06063
:1037600000EB8000704700BF28050020BB79379E22
:1037700010B50A4C08210948FBF76AFED4E900237A
:103780001343F7D0064CFFF7DBFF2060FFF7D8FFAD
:10379000236860600343F6D010BD00BF28050020F9
:1037A000DC1B0020174B184A9A60184A5A60184AC6
:1037B0001A60184A9A62184ADA62184ADA60184A95
:1037C0009A61184A1A63184A1A62184ADA64184A3F
:1037D0009A64184A5A62184B184A9A60184A5A62F0
:1037E000184ADA62184A1A61184A5A61184A9A61E4
:1037F000184A1A63184A9A64184ADA64184A9A638B
:10380000704700BFE8050020DBDC010011DD01008E
:1038100089DD010067DF0100D9DF0100ED3E010015
:10382000EFDF0100D141010045400100A9E00100A6
:10383000D1E00100A1400100F0060020FDDC010004
:103840006DE0010011E00100B5DF010035E001008D
:10385000953F010077E1010017E1010005E101005A
:1038600053E00100044B054A5A65054B054A1A65A9
:10387000054A5A65704700BFE8050020E5DE0100F3
:10388000F0060020CBDE010013DF0100054B064AE5
:103890009A65064A1A66064B064A9A65064ADA652A
:1038A000704700BFE80500201BCF01007125010013
:1038B000F0060020F1CD0100C3CF01003A2A73B514
:1038C00005460C463ED83A2A45D8DFE812F04900B2
:1038D0008D009700A300BB00A100A100CA00CC008E
:1038E000D200A100A100D700E200CC0044004400B7
:1038F000E600A100A1000101010108010F011B0167
:10390000440044003A01570164016A0170017B01DF
:103910007D017F0181018C019401C301C501440037
:1039200044009C0144004400B501AB01AD01AF016E
:10393000B101B701BB01B901BF01A1004400BD0144
:10394000B301C101EB2A00F08B81FF2A00F08A81CC
:10395000EA2A00F0838140F266415120FBF72CFBFC
:10396000416841F27070D1F80C32B1F80622A3F52B
:103970007A7585420CD84FF47A70B3FBF0F303F5F7
:1039800050639BB26420B2FBF0F20120D2B20DE092
:1039900040F2E2406FF45065B3FBF0F39BB25D1967
:1039A000062DEFD9B2FBF0F20020D2B22271D1F88D
:1039B0000822B0B16420E3711B0AB2FBF0F292B2AC
:1039C000237220466271120AA271B1F8103263723A
:1039D0001B0AA372B1F8121202B0BDE8704009F0E0
:1039E00096BE40F2E240E6E743682046D3F8F8117D
:1039F000013102B0BDE8704009F0BDBE02784368F5
:103A0000012A02D193F8103101E093F819312371A2
:103A100002B070BD4568204605F5107109F0BAFE88
:103A200005F51271204609F0BFFE05F50871204624
:103A300009F0C0FED5F80011204602B0BDE8704084
:103A400009F0C6BE4168204601F5F37109F0C6FED3
:103A50006B682046D3F8041102B0BDE8704009F04D
:103A6000BFBE4368CEE7084602B0BDE8704000F034
:103A700069BB02B0BDE8704000F074BB0E230B714F
:103A800059234B7100238B71F323CB7130230B72BD
:103A9000BEE7436893F80A31B9E7037846687BB913
:103AA00096F8103163B196F80D11204609F003FF26
:103AB00096F80C11204602B0BDE8704009F0FFBE38
:103AC00096F80B11204609F0F6FE96F80A11F1E778
:103AD0004168204602B0BDE870400AF0E6B843688D
:103AE00093F82621227193F8273109E0436893F86F
:103AF0002421012AF4D093F868200A7193F86930E0
:103B0000637185E7456895F8030209F0FCF9014601
:103B1000204609F0BBFE95F80202C31E012B07D810
:103B200095F86C30DA1E012A02D8984218BF00209E
:103B300009F0E9F90146204602B0BDE8704009F0FD
:103B4000A1BE45680023204601218DF8043009F00C
:103B5000BAFD2A7C01A96B7C2046032A03F01F03CF
:103B600008BF002243EA82139DF8042002F02002DD
:103B700013438DF8043009F0B3FD49E74368112180
:103B80001888FBF7F9FE00F15B01204602B0BDE8A2
:103B9000704009F054BE084602B0BDE870400BF01A
:103BA0006DB8084602B0BDE870400BF06FB8334BFB
:103BB0001B68002B3FF42CAF2946204602B0BDE81D
:103BC000704018472E4BF3E72E4BF1E72E4BEFE7F3
:103BD0002E4B1B68002B3FF41BAF0246232002B084
:103BE000BDE870401847294B1B68002B3FF410AF0D
:103BF00002462420F3E7254B1B68002B3FF408AF57
:103C000002462520EBE7436811211888FBF7B4FE34
:103C100000F17D0200F15B01204602B0BDE870407A
:103C200009F019BE1A4BC3E71A4BC1E71A4BBFE79D
:103C30001A4BBDE71A4BBBE71A4BB9E71A4BB7E76C
:103C40001A4BB5E71A4BB3E71A4BB1E71A4BAFE77C
:103C50001A4BADE71A4BABE71A4BA9E71A4BA7E78C
:103C60001A4BA5E74368204693F88F22D3F89012A9
:103C700002B0BDE8704009F036BD00BFFC0700206F
:103C800000080020F8070020040800204808002051
:103C9000080800200C080020140800201808002044
:103CA000280800202C080020200800201C080020E4
:103CB00024080020100800203008002034080020CC
:103CC00044080020400800203C080020380800205C
:103CD0003C2803D8064B53F82000704700F1160328
:103CE000DBB2042B01D8AD38F4E70020704700BFE9
:103CF000E80500203C2803D8064B53F82000704705
:103D000000F11603DBB2042B01D8AD38F4E7002034
:103D1000704700BFF006002030F8023CF7B50446BB
:103D20000E467BB100238DF804308DF8053000205D
:103D30009DF8043063F307009DF8053063F30F200E
:103D400003B0F0BD1B4B30F8A05C1B680BB12838EA
:103D50009847194B1B680BB128469847174B1B68AF
:103D60000BB1284698470A230027A6F80350337062
:103D7000B770637A54F8880C737107F0C8FA18B9F1
:103D8000B1216320FBF718F92846FEF703FD3946F9
:103D90002846FBF707FE02212846FBF703FE18B969
:103DA000074B1B6803B1984704238DF804300223A6
:103DB000BBE700BF50080020580800204C08002036
:103DC00054080020F7B5456804464FF6FF776E6942
:103DD0000DF102010DF101023046ADF8027007F05D
:103DE0003DFA01A9304607F05BFA40B1019807F0AF
:103DF00032FB616800220272FFF7C6FBE8E7044964
:103E000005F1A00003B0BDE8F04009F0AFBD00BF70
:103E1000193D0100F0B5044685B00D46FF2600F8B7
:103E2000C16C10F8C23CF3B1184F3B781BB148216C
:103E30001F20FBF7C1F80C21381DFBF709FB3E7072
:103E4000002304F8C13C09232A4602F8033BD4F8B6
:103E50000930C5F80330D4F80D305360D4F8113070
:103E6000936005B0F0BD01A80C21FBF7F1FAA4F5B1
:103E70002C73039AC3F8042101AB03CB44F8CA0C9A
:103E800044F8C61C04F8C26CDAE700BFE41B00204B
:103E900010B5054C23782BB90C21201DFBF7D8FA5F
:103EA000FF23237010BD00BFE41B0020024690F8E2
:103EB000EE31BBB990F8EF3103F0FF010BB10020F8
:103EC0007047094B18780028F9D01970D968043365
:103ED000C2F8041103CBC2F8E601C2F8EA11FF23CD
:103EE00082F8EE3101207047E41B0020426870B573
:103EF00092F8873004460D463BB1142B05D0123B97
:103F00000B2B94BF0820012070BDD2F8143183BB65
:103F100092F8C83013B9204609F07AFE6168284645
:103F200001F5EF7109F04DFC2846666809F053FC75
:103F30006168C6F8000128460B8801F2BB2121F810
:103F4000023C09F02CFC6168284601F2C32109F00B
:103F50002EFC6368002583F8EE5160680C4900F57B
:103F60002C7009F000FD63681622284683F887202C
:103F7000CAE70C220321204609F06DFE6368322255
:103F8000204683F8872009F043FE0020BCE700BFED
:103F9000153E010038B54368044693F887201D2A72
:103FA00004D04FF4DE711F20FBF706F8002293F8CF
:103FB000C8101D8803F5D37083F8C72069B10B4979
:103FC00083F8C820A3F8B05183F8AF2109F0CBFCE7
:103FD0006368002283F8872038BD012283F8AF117F
:103FE000A3F8B051024983F8B221EFE753DF010093
:103FF00045DF01000B46072210B503F8032B0446EA
:10400000D0F80920C1F80320D0F80D205A60B0F88C
:1040100011201A81C27C9A7210F8483C7BB1084B7F
:104020001B681BB935211C20FAF7C6FFA0F5C0722A
:10403000A0F5847168389847002304F8483C10BD07
:104040005C08002038B50578446825B994F88730B5
:1040500023B1012518E0A36FDB07FAD44A680E4BA1
:10406000896813400D4AC4F8D830C3F307630A4087
:1040700043F00803C4F8DC2084F8DB3009F0C8FD05
:1040800025B9042384F88730284638BDA36F00255E
:1040900043F00103A367F7E72FC904F76FDB0006BE
:1040A000436870B593F88620042A30D14C681A4AC8
:1040B0008E6822400578194CC3F8D820C2F30762F5
:1040C000344042F00802C3F8DC4083F8DB200022D1
:1040D00083F8C22083F8862015B9426882F82B51F4
:1040E00093F8882102F0FF049AB91A8803F5C0708A
:1040F00083F88941A3F88A214A68C3F88C218A6829
:104100000749C3F8902109F02EFC204670BD012418
:10411000FBE70024F9E700BF2FC904F76FDB0006B7
:10412000F53F0100406890F8883143B9038800F5F5
:10413000C070034943811A23437209F014BC7047CD
:10414000F53F010010B50446FEF7AEF9034A044BF3
:1041500002400B406260A36010BD00BF2FC904F78E
:104160006FDB000637B50C464568FEF79DF9084B36
:10417000084A03400A4095F8D81000930B4001927A
:104180008DF800306B4603CB6060A16003B030BD9A
:104190002FC904F76FDB0006DB0410B5144604D505
:1041A000037D13B10023436310BD436B01334363AD
:1041B00009F0C2FFD0E90D239A42F5D30023034949
:1041C00043632046BDE8104009F0D6BB9BE00100E8
:1041D000F8B5446805460E46077894F88630012BFA
:1041E00008D027B994F8873023B1012040E0A36FAD
:1041F0009A07FAD494F8C9309B0719D4304609F0CD
:10420000F1FA84F8D300B6F80530A4F8D430B6F843
:104210000730A4F8D63094F8C93043F00202D8072A
:1042200084F8C92010D5174904F1CA0009F0A4FB8D
:1042300094F8C930D90712D4DFB994F8873043B164
:1042400050214020FAF7B8FE94F82A31002BEAD129
:10425000EEE7012384F88730284609F0D9FC94F86A
:1042600086300020012B03D184F8860084F8C20038
:10427000F8BDA36F9A0701D55521E2E743F0020389
:10428000A367E9E759E1010070B545680446FEF708
:10429000C5FE054B014685F885001B681BB120460D
:1042A000BDE87040184770BD64080020024B1B68D1
:1042B00003B11847704700BF60080020F0B5204EDA
:1042C000054600243078147080B1431E7768DBB255
:1042D000181B01280BDC07EBC40057F8346040685A
:1042E000884208BFAE4212D114700120F0BD1819E7
:1042F0004610C0F3470057F836C007EBC60EAC4572
:10430000DEF804608E412CBF03460446E0E7B54268
:1043100071EB000002D214700020E7E707EBC30046
:1043200057F833404068884208BFAC4201D113704F
:10433000DBE7A542814128BF01331370ECE700BFE2
:10434000041C002010F0070208B503D063214820A8
:10435000FAF732FE18B1034B197258601A70C80090
:1043600008BD00BF041C0020014B00221A707047DA
:10437000041C0020014B187A704700BF041C002069
:104380002DE9D34309F021FF0DF1070207460E4640
:10439000FFF794FF98B9114C2278237A93420ED0FC
:1043A000616813466FF0604E9DF80700984209D38C
:1043B00001EBC003013201202270C3E9007602B094
:1043C000BDE8D08303EB0E00013B01EBC000DBB284
:1043D000D0E90089C0E90289E6E700BF041C00209B
:1043E00037B509F0F2FE0DF10702FFF767FF04464B
:1043F000A0B10C4A9DF8070013785568411C013B99
:1044000005EBC101DBB213701A1AD2B2D20083429B
:1044100038BF002205EBC0000BF0C0F8204603B007
:1044200030BD00BF041C00200A460648822302F863
:10443000033B0368C1F803304368536083689360AB
:10444000704700BF0D1C00201622002101480BF010
:10445000BDB800BF0D1C002017B402AB03E9030078
:104460001B48437D83B30B469DF8001009BB93F8AE
:104470006C10184A52F821204FF47A7102F2E73298
:10448000B2FBF1F2D3E970146E3144F1000452181A
:10449000198844F10004426001808460B3F88030E0
:1044A00002220D490C3020F80A3C03B010BCFFF783
