:10000000986700207D810000CD8B00006981000091
:100010006981000069810000698100006981000038
:100020000000000000000000000000002582000029
:100030006981000000000000DD810000698100008E
:100040007917000079170000791700007917000070
:100050007917000079170000791700007917000060
:100060007917000079170000791700007917000050
:100070007917000079170000791700007917000040
:10047C0053B94AB9002908BF00281CBF4FF0FF31FF
:10048C004FF0FF3000F00CB8ADF1080C6DE904CE64
:10049C0000F008F8DDF804E0DDE9022304B0704751
:1004AC00704700BF2DE9F04786468C460846089EEB
:1004BC00154674461946002B40F0C1808542B2FAAD
:1004CC0082F245D94AB1C2F1200300FA02FC9540F0
:1004DC0094402EFA03F343EA0C0C4FEA154EA8B2E3
:1004EC00230CBCFBFEF80EFB18CC08FB00F943EA0E
:1004FC000C43994528D9EB1808F1FF3704D29945DC
:10050C0002D9A8F102072B44A3EB0903A4B2B3FB55
:10051C00FEFC0EFB1C330CFB00F044EA0344A0422F
:10052C0014D92C190CF1FF3304D2A04202D9ACF12E
:10053C0002032C44241A43EA07401EB1D440002382
:10054C0034607360BDE8F0874746DDE76346F1E74A
:10055C0092BB431B01214FEA154EAFB2200CB3FBEB
:10056C00FEFC0EFB1C330CFB07F840EA03439845DA
:10057C0061D9EB180CF1FF3004D2984502D9ACF1DB
:10058C0002002B44A3EB0803A4B2B3FBFEFC0EFB4E
:10059C001C330CFB07F744EA0344A7424DD92C1932
:1005AC000CF1FF3304D2A74202D9ACF102032C4464
:1005BC00E41B43EA0040C0E7C2F12003954094409D
:1005CC0020FA03F12EFA03F34FEA154E9040AFB226
:1005DC000343B1FBFEFC0EFB1C10190C0CFB07F8C3
:1005EC0041EA0041884522D969180CF1FF3004D248
:1005FC00884502D9ACF102002944A1EB08019BB259
:10060C00B1FBFEFC0EFB1C110CFB07F743EA01438C
:10061C009F420ED9EB180CF1FF3104D29F4202D944
:10062C00ACF102012B44DB1B41EA004193E760462D
:10063C00E3E76146F7E76046A4E76346B8E7834221
:10064C0006D916B9002108467CE7C6E900E0F9E7AF
:10065C00B3FA83F78FB9834201D3724508D8BEEB46
:10066C00020460EB030301209C461EB9002169E7DC
:10067C003846FAE7C6E9004CF8E7C7F1200CBB4056
:10068C000EFA07F522FA0CF42EFA0CF1BA401C43C0
:10069C0020FA0CF3B8404FEA144901431FFA84FEC8
:1006AC00B3FBF9F809FB18300B0C08FB0EFA43EA04
:1006BC0000439A4540D9E31808F1FF3004D29A451B
:1006CC0002D9A8F102002344A3EB0A0389B2B3FBBD
:1006DC00F9F809FB183308FB0EFE41EA03418E457D
:1006EC002CD9611808F1FF3304D28E4502D9A8F138
:1006FC000203214443EA0040A1EB0E01A0FB029847
:10070C004145CE46434602D306D14D4504D201386D
:10071C00B9EB020E68EB0403002EA7D0B5EB0E026A
:10072C0061EB030101FA0CFC22FA07F3F9404CEAE5
:10073C000303C6E9003199E74046C5E74346D9E7CC
:10074C002DE9F047058B04462807904612D4022960
:10075C0005F0070540F0CD80204607F08EFD80B1F6
:10076C000138218B042800F29F80DFE800F0C29D45
:10077C00657D8D0001290CBF45F0100545F0200565
:10078C00258388F31188BFF36F8FBDE8F08701F0E4
:10079C0007035A1F012A1CD8002221F00701062B3F
:1007AC00276889B2C4E9002209D13B4603E0628B79
:1007BC00013262831B68002BF9D141F00201204603
:1007CC00218307F05AFD002800F0A18041F02001A0
:1007DC009CE0042B0AD121F0070189B22046218329
:1007EC0007F04BFD10B141F020012183218B01F06A
:1007FC00070AAA4575D00027B946A368002B00F05C
:10080C008E8041F00801218388F31188BFF36F8F2C
:10081C00A168002900F08C800D68002900F0888008
:10082C00334652462046D1F80480C047002D48D0AC
:10083C002B6829461D46F0E7236921F0070141F09A
:10084C000601062DD3F80090218335D1B9F1000FA4
:10085C0047D041F00801218388F31188BFF36F8FD3
:10086C0020463D49C84731E021F00701236941F09A
:10087C00040189B2042DD3F804902183E6D000271B
:10088C004FF0040A3E46B8E721F00701236941F016
:10089C00050189B2052DD3F808902183D6D0002705
:1008AC004FF0050A3E46A8E701F0070AAA4518D002
:1008BC000027B9463E46A0E700274FF0060A3E4601
:1008CC009BE72B46B5E7B9F1000FC9D1EFF31188BF
:1008DC00202383F31288BFF36F8F238B23F008033D
:1008EC002383258BEA062ED525F01003238305F0F0
:1008FC0007056669218B002EBFF649AF00232768D8
:10090C00C4E9003321F0070141F001012183218B5F
:10091C004FF0000901F0070AAA457FF46EAF002FD3
:10092C0094D041F00801218388F31188BFF36F8FB5
:10093C00002FC8D03D68394633465246204607F052
:10094C008AFC2F46F4E7AB067FF51BAF25F020039E
:10095C00238305F00705FFE6BF820000002318463D
:10096C000649D1F89020C2F30722934200DB70476E
:10097C00C1F89830C1F8A0000133F6E700ED00E0B3
:10098C0030B5104CD4F89030C3F30723013B984298
:10099C0015D80D7A0B6805F01F0223F01F031A43BC
:1009AC00CB686D0923F01F0343EA450343F00103B1
:1009BC00C4F89800C4F89C20C4F8A03030BD6FF087
:1009CC001500FBE700ED00E0064BD3F840231C2A92
:1009DC0005D1D3F84403431E5842584170470020B8
:1009EC00704700BF00C0FF0008B5264A264B2748B9
:1009FC001A600122264BC3F8042441F6F873D0F890
:100A0C002416C1F3080203EA5133132182F48072D5
:100A1C00883201FB02331F495A0ADB0548BF0132F9
:100A2C00C1F80429D0F820364FF47A60C3F30802D9
:100A3C00C3F30943434342F21C5082F4807202F226
:100A4C00172200FB02334FF47A701B0AB3FBF0F24F
:100A5C0000FB1233B3F5FA7F28BF0132C1F81C2713
:100A6C00FFF7B2FF40B13423C1F82436D1F83C363D
:100A7C0023F40023C1F83C360123C1F800360020D2
:100A8C0008BD00BF0020A1070402002000C0FF0029
:100A9C00002008E000001250084B70B5C31A0D4638
:100AAC0007499B10044659434022064807F0D2FCE4
:100ABC002B4601462046BDE87040184724250020EF
:100ACC00B76DDBB638A10000402373B50B4C009317
:100ADC00041B0B460D460A49A41061430646094AFD
:100AEC00094807F0E3FC011E05DA30462B4602B03C
:100AFC00BDE87040184702B070BD00BF242500202F
:100B0C00B76DDBB62385000038A100000023054932
:100B1C00CB60054B4B6003238B60044B186807F0CC
:100B2C00D5BB00BFFC240020F927000010250020B5
:100B3C000122064BD3E8EF1F002903D1C3E8E02FB5
:100B4C000028F7D101D1FFF7E1BF70471C25002029
:100B5C000023024A0020C1E90023704700D017008F
:100B6C0000487047A0A40000024B0B6001231360E7
:100B7C00704700BF98A400000122054B0020C3E978
:100B8C000222C3E90033034A034BC3F80C25704718
:100B9C004C2400208000008000B004500369012127
:100BAC004FF0FF32C3E90033C3E90212014907F0E9
:100BBC00BBBC00BF1B9400000048704790A4000011
:100BCC004209022A034670B503D0012A18D0CAB1D3
:100BDC0070BD0E4E326951680029F9D0012503F021
:100BEC001F030C689D400029F2D08A682A4002D06D
:100BFC0030464B6898473CB1236821461C46F2E7C7
:100C0C00034EE7E7034EE5E72346F6E760A1000055
:100C1C004CA1000074A100000122014B1A60704726
:100C2C0000700D500C2903690BD15B6A064907480B
:100C3C004B4393FBF0F100FB113311600020536028
:100C4C0070476FF08500704790D0030040420F0052
:100C5C0048B1054B054A1B68B3FBF2F35843044BF0
:100C6C0043F00103184770470402002040420F0074
:100C7C0090A2000038B528220021164807F0D8FBB6
:100C8C00154808F0ADFD154B154A164C1A60164B5D
:100C9C00164A00211A6014F003030FBF4FF40065CD
:100CAC0003F2FC75C3F10403E4182A46204607F04E
:100CBC00BFFB084B0E4AC3E900452260A2F110228B
:100CCC00203DA2F1EF129C606560E261DC600020C7
:100CDC0038BD00BFE8230020FC230020B00000201A
:100CEC00691400004E310020AC000020A11500005A
:100CFC0055AA00FF03689A070CD50368DB070DD5CE
:100D0C000922074BC3F80C250F22C3F80425012236
:100D1C001A60FEE7034B0360EF3B0360704700BFB4
:100D2C0000801050F000FA5010B50368CB40DB0780
:100D3C0010D401238B40026843EA0201D0E8EF4F44
:100D4C00944204D1C0E8EC1FBCF1000FF6D1F2D1F3
:100D5C00014810BD0148FCE70000AD0B0400AD0BD1
:100D6C000128F7B5054615BF042071201422042272
:100D7C002F4918BF4FF48473C1F808034FF00100DA
:100D8C0008BF4FF4807302F1A04202F58712106085
:100D9C00002203F1A04303F587131A601B68254B4F
:100DAC00D3F840331C2B17D0854219D10DF107060F
:100DBC0042F210741E4F8DF80720012D23D0D7F866
:100DCC004C3403F480336EB923B10120FFF740FF9C
:100DDC00013CF4D103B0F0BD012D01D1CD60E5E7AC
:100DEC001646E5E7D7F84C2402F003023270002BCC
:100DFC00F0D09DF80730002BECD10120FFF728FF35
:100E0C00013CDAD1E6E7D7F80C3403F480333EB971
:100E1C00002BDFD00120FFF71BFF013CF3D1D9E7FA
:100E2C00002B0CBF012300233370E2D1D2E700BFAB
:100E3C0000E0105000C0FF0010B5EFF31184202328
:100E4C0083F31288BFF36F8F074A136823F00201F4
:100E5C00DB07116002D40120FFF782FF84F31188B5
:100E6C00BFF36F8F10BD00BF74250020012838B56B
:100E7C002F4B304C3DD0D3F84C14D3F84C24CD032D
:100E8C001FD5900702D00020FFF76AFF0022284BE5
:100E9C000420C3F8402410224FF48473002103F182
:100EAC00A04303F5871319601D68012502F1A042C8
:100EBC0002F58712156022689AB31D4BC3F8040320
:100ECC000CE0D3F84824D107E0D5D3F8502492078E
:100EDC00D9D122681AB10422C3F8042338BDD3F83F
:100EEC000821002AFBD00022C3F80821D3F80831CE
:100EFC00F4E70022C3F81021D3F81011C3F818211D
:100F0C00D3F81811C3F81421D3F814210A4AD2F8D3
:100F1C0040231C2A08BF986000224FF48073712074
:100F2C00BCE71A68002AFCD019601B68D6E700BF22
:100F3C0000E010501425002000C0FF00144BD3F823
:100F4C000C24D10320D5D3F84C24D2031CD5114A40
:100F5C00517901F0FF00C9B9C3F80C01D3F80C1199
:100F6C00012151719961126822B10822C3F804233E
:100F7C0009487047D3F80C21002AFBD00022C3F893
:100F8C000C21D3F80C31F3E7044870470448704740
:100F9C0000E01050142500200000AD0B0500AD0B37
:100FAC000B00AD0B034A4309D35C00F01F0018443F
:100FBC00C0B2704739BB000010B504460846FFF7B5
:100FCC00F1FF3622237902FB0300034B083033F880
:100FDC001000C0F3401010BD1C01002010B50446D9
:100FEC000846FFF7DFFF3622237902FB0300034B91
:100FFC00083033F81000C0F3400010BD1C01002075
:10100C0010B504460846FFF7CDFF3622237902FBC4
:10101C000300034B083033F81000400B10BD00BF29
:10102C001C01002070B505460846FFF7BBFF3621B2
:10103C002A79174B01FB0202083233F81200C10562
:10104C0025D56C240026C0F3432120F4F85023F856
:10105C0012002A7904FB02340E3434F8020F10F417
:10106C00807F03D0C0F34320814210D00136232E61
:10107C00F3D16C200024424302EBC1029C502A792C
:10108C00BDE8704000FB02306030FFF74DBE70BD14
:10109C001C010020F0B50646002487B0114F0191C9
:1010AC0017F8012B06AB03EBD20313F8143C02F038
:1010BC000702D34013F0010306D10134032CEFD106
:1010CC000023184607B0F0BD074A03AD07CA85E8F0
:1010DC00070055F824100A6A46F824200A62002AF0
:1010EC00EBD0EEE736BB000070A20000104B70B5E1
:1010FC0053F82040013053F82060A64200D870BD50
:10110C00D4E9003595B153B12846984738B1002839
:10111C00B8BF4042FF28A8BFFF20EB681870EA68F0
:10112C00537843F0010353700834E6E79847FBE724
:10113C006CA40000F8B5806890F90E308B4243D057
:10114C00EFF31186202383F31288BFF36F8F437B59
:10115C0049B2DA0617D18269AAB903F07F03437347
:10116C0007F046FB194A437B144663F07F038173F7
:10117C00437354F8183FA34224D1D569C0E9004504
:10118C002860D06116E08173002086F31188BFF3CC
:10119C006F8FF8BD9D42F1D01B68002BEED093F9F8
:1011AC000E70B942F6D08F42F4DD5968C0E90031B7
:1011BC00086058609369A34200D003B9D36801203A
:1011CC005361E2E7D569E8E70020E2E71827002041
:1011DC0048B1064B5B68984205D003681BB1DA68CE
:1011EC00C1680A44DA6007F003BB00BF1401002099
:1011FC0001680E4A0346914215D1C169A2F1102231
:10120C00A2F1EF1291420ED18268012A0BD8C2686A
:10121C0012B101698A4206D0586928B19B691B1A20
:10122C005842584170470120704700BF55AA00FF33
:10123C0070B50D4B9E68A6B13046FFF7D9FF04463A
:10124C0078B9F3686BB935690DB9204670BD28467D
:10125C00FFF7CEFF28B9EB68B34202D12E462D69B9
:10126C00F2E70124F1E700BFE82300201FB50022BC
:10127C000123CDE902236B46084ACDF800D0CDF806
:10128C0004D007F041F9002804DB43F60951684605
:10129C0007F0B8FA05B05DF804FB00BF99960000A2
:1012AC0010B4EFF31182202383F31288BFF36F8FF6
:1012BC001648016841F002040460C80707D482F3A1
:1012CC001188BFF36F8F012010BCFFF7CFBD104901
:1012DC00D1F80C14C903F2D5EFF3118083F3128803
:1012EC00BFF36F8F0B490B6C03F0C00343F0020389
:1012FC000B6480F31188BFF36F8F82F31188BFF3F7
:10130C006F8F002010BC04F077BD00BF7425002047
:10131C0000E01050242500202DE9FF41214B4FF017
:10132C0001085C689B68E44304F067041C400023DC
:10133C0025461D4F03931DBB01271B4B194CD3F89E
:10134C002063039B1E40207D07FA00F333420FD02D
:10135C00E16869B10201D4F810C002F1A04202F5B3
:10136C006222D2F82435D2F82025CDF800C0884767
:10137C000135052D04F10C04E5D104B0BDE8F08174
:10138C0095FAA5F6B6FA86F6B2002146384603ABB6
:10139C0002F5807208FA06F607F0ADF925EA0605A3
:1013AC00C9E700BFB400002000200E5030B504681F
:1013BC00ACB1B4FA84F30122C3F11F03DBB29A403F
:1013CC0024EA0202D0E8EF5FA54204D1C0E8EC2F7A
:1013DC00BCF1000FF6D1EAD102480B7030BD0248C7
:1013EC00FCE700BF0000AD0B0200AD0B70B5002593
:1013FC00184C194ED4F80C2302B970BDB2FA82F213
:10140C00C2F11F02930003F580739BB203F1A0435A
:10141C0003F587131D601B6801239340DBB2102B6F
:10142C00D0B2C4F8083309D0402B10D0082B00D10F
:10143C00757133689847D4F80C23DDE7B571C4F89F
:10144C001451D4F814312023C4F80433F1E7B571E6
:10145C00EFE700BF00E01050142500202DE9F0410B
:10146C00494C05462046884608F0C5FA18B10024B8
:10147C002046BDE8F081A4F1140754F8144CFB6825
:10148C00DCB1BC68CCB1002D71D0B8F1000F70D0BC
:10149C0008FB05F6B6FBF5F5A8456CD1341D6AD8EA
:1014AC00B10710D026F0030204321C4603E0616839
:1014BC00914262D2A469002CF9D1334808F09FFA0A
:1014CC000028D5D0D3E73246EFE7891A232919D85B
:1014DC000123A360D4E9052392B19361A3690BB1F5
:1014EC0062695A610023C4E905333B69DA0737D5D1
:1014FC00FFF79EFE002833D0244804F043FDFEE79E
:10150C00FB60EBE702F1200563192039C3E90110F8
:10151C00DC6021691E4819616051A0F11020A0F116
:10152C00EF10D86101B1CB6061695961A069986114
:10153C00A1B18B61996901B14B6101212361002338
:10154C00C4E90121C4E905333B69DB0708D5FFF782
:10155C006FFE28B10D4804F015FDFEE7FB60E9E7CE
:10156C00203432460021204606F062FFA5E72C46C7
:10157C00A3E74446A1E704469FE7A0680028A4D04F
:10158C00024804F0FFFCFEE7FC230020C6BA000072
:10159C0055AA00FF70B54B4C0546204608F02BFAB7
:1015AC00002840F08E80002D00F0868054F8143C0A
:1015BC00A4F11406002B7FD0B268002A7CD09D4287
:1015CC0003D3726813449D4203D33F4804F0DAFC02
:1015DC00FEE7A5F120042046FFF70AFE18B13A48B1
:1015EC0004F0D0FCFEE755F8183C012B03D036482C
:1015FC0004F0C8FCFEE755F8143C45F8180C2BB366
:10160C009A681ABB55F81C2C02F120015A680A443E
:10161C005A6055E905321A6155F8145C2B6903B10F
:10162C00DD6020220021204606F002FF286910B15F
:10163C008368002B2CD033699B073DD5FFF7F8FD51
:10164C00002839D0204804F09DFCFEE755F8100C1A
:10165C0000282AD0836843BB426863681344203354
:10166C00636003692361D4E905239AB9CBB9436953
:10167C0063618269A261B3B19C61A36903B15C61CE
:10168C00236903B1DC602022002106F0D1FED2E7F1
:10169C002C46E1E79361A369002BE8D062695A619B
:1016AC00E5E7F360F7E7F460E7E7F36845F8083C33
:1016BC0003B15C61F460BEE70248BDE8704008F01D
:1016CC009EB970BDFC230020C6BA000038B5044694
:1016DC0006F0B4FD25688DB94FF412722946201D11
:1016EC0006F0A6FE084B28466360012384F84832B6
:1016FC008023C4F8C4310523236038BD204608F08C
:10170C00E3F96FF08800F8E7C0A40000002310B5DF
:10171C000B4A147884420AD00133092B02F11002CF
:10172C00F7D16FF0010010BD00200A60FBE7D06814
:10173C0006F050FE0028F7D16FF01200F3E700BF5F
:10174C00DCA30000074A936893F90E10002907DB0D
:10175C00526993421FBF044A536843F0805353604D
:10176C00704700BF1827002000ED00E008B5EFF32C
:10177C000583064A103B02EBC30152F8330049685B
:10178C008847BDE80840FFF7DDBF00BF30BE000052
:10179C0010B572B6002484F31388FFF7DFF82346E4
:1017AC004FF0FF300C4A03F120010133102B42F8AB
:1017BC002100F8D100234FF0FF30074A03F16001FC
:1017CC000133102B42F82100F8D162B6BFF34F8FD2
:1017DC00BFF36F8F10BD00BF00E100E0002807DBF6
:1017EC0001234109034A00F01F00834042F82130D5
:1017FC00704700BF00E100E000280CDB0122064925
:10180C00430900F01F008240203341F82320BFF32E
:10181C004F8FBFF36F8F704700E100E02DE9F84365
:10182C000446067900681E4DC0F30830FFF7E4FF4C
:10183C0024237343EB5853B123681A4A06EBC601B1
:10184C00C3F80823206805EB810106F0A7FF2427C5
:10185C0007FB06572368D3F80006D3F80486D3F8A1
:10186C000896BB7FDB0714D406F0EFFF484606F062
:10187C00ECFF404606F0E9FF386A06F0E6FF236805
:10188C00D3F80C06D3F8104606F0DFFF204606F01E
:10189C00DCFF242303FB065500232B77BDE8F883DC
:1018AC00282400200700F81F0028ACBF00F160407E
:1018BC00064B4FEA4111C9B2ABBF00F5614000F0D5
:1018CC000F0080F800131954704700BF14ED00E0AE
:1018DC001E4AF8B50221054640F20510FFF7E4FF59
:1018EC001379002B2CD11A495371116001211171FC
:1018FC00184A29691160184A1360184A1360184B6A
:10190C001B6A9B0603D440F20510FFF767FF002407
:10191C00144BC3F840442B69ABB11C22214618462A
:10192C0006F086FD01261C220F4F066407612D6907
:10193C002146A81806F07CFD2046EF62EE64F8BD47
:10194C006FF00400FBE76FF01500F8E7142500209A
:10195C005933000010250020202500200C250020E4
:10196C0000E100E000E01050A8A400002DE9F041D7
:10197C0047683B69B3B36C203E7D214D00FB065894
:10198C0098F8684074BB404621464622103006F059
:10199C004FFD21463869D8F858C08C4525D1002414
:1019AC00C0F84441D0F84431C0F308300130FFF79F
:1019BC0015FF6C23012203FB065686F8682032665D
:1019CC003A7D104903FB025291603A7D022103FBE0
:1019DC000255DB20EC60FFF767FF022140F20D108F
:1019EC00FFF762FF0020BDE8F081CBB29B0003F54E
:1019FC008072442B04BF845083580131CDE700BF63
:101A0C001C010020CD0B000010B50E4A03699A6230
:101A1C0000244FF0FF32C3E90033C3E9024203F163
:101A2C0010020221C3E90644C3E90422D720FFF7C0
:101A3C003BFFD720FFF7D2FE0122034B2046C3F811
:101A4C00042310BD2425002000700D5010461A46AA
:101A5C00084B10B5994209D8C1F5BE1404F5805451
:101A6C00A24203D807F0BEF8002010BD6FF015009D
:101A7C00FBE700BFFFCF1700036803F01F025F2BCB
:101A8C0002604FEA53129ABF024B53F82200002017
:101A9C00704700BF84A40000F7B503681646D3F85E
:101AAC001423044692035CBF4FF40032C3F8142392
:101ABC000D46FFF781FAF8B12046FFF78FFA07467B
:101ACC00D0B92046FFF79CFA05B22168AD0005F5A8
:101ADC0080728F508A5821682944D1F8102542F021
:101AEC000102C1F810252EB10122216802FA00F37F
:101AFC00C1F8143303B0F0BD2846FFF753FA362271
:101B0C00237902FB03000F4B083033F81030C3F37A
:101B1C008203042B11D0052B11D001A80195FFF7DE
:101B2C00ABFF019AC368D34003F00103991C28460C
:101B3C0003B0BDE8F04007F0E2B80321F7E702215B
:101B4C00F5E700BF1C0100202DE9F04F0D46D0F841
:101B5C00141387B0C9B241F40031AA6D009006F09D
:101B6C0084FD810306462ED50023696E03A8CDE9BA
:101B7C0003330593FFF78EFADFF868A1DFF868B13D
:101B8C000DF10C091AF8013B05EBD30292F8642015
:101B9C0003F0070322FA03F3DA076AD4534B09F173
:101BAC00040953450BF1010BECD14FF40031AA6D34
:101BBC00009806F05AFD696E03A8FFF76BFA00282F
:101BCC00DAD126F400360124002E73D107B0BDE81B
:101BDC00F08F91FAA1F1B1FA81F19BF8004041EA42
:101BEC0044142046FFF7DEF9083035F81080C80899
:101BFC004FEA98030193012319F8002001F0070123
:101C0C0003FA01F122EA010209F8002002A8029469
:101C1C00FFF732FF029A019B203250F82220C8F3C2
:101C2C0082075B07B846C2F3014227D52846D7B2D4
:101C3C002146424606F040FD02A80294FFF71CFF25
:101C4C00029B203350F82330C3F301439F4207D14A
:101C5C000021204607F053F83946204607F04FF88C
:101C6C0002A80294FFF708FF0122029B02FA03F379
:101C7C000362D9F800100029ABD18FE7022A0DD1ED
:101C8C000321204607F03BF807F00503012BE7D1B1
:101C9C0042462146284606F00FFDE1E70221204688
:101CAC00019207F02CF8032FF2D0019A032AD7D116
:101CBC00022FECE796FAA6F3B3FA83F304FA03F2D5
:101CCC0026EA0206009A284602EB8303D3F8101585
:101CDC00D3F81025C1F30811C2F3014206F0ECFC55
:101CEC0072E700BF36BB000036BB000039BB0000FA
:101CFC0001490248FFF728BF1C01002000A00D502D
:101D0C0001490248FFF720BF8801002000C0105095
:101D1C002DE9F743174604460846FFF743F93E689A
:101D2C008846054696B32046FFF758F938B1204649
:101D3C00FFF742F918B16D4803B0BDE8F08301A874
:101D4C00CDF80480FFF798FE019B327800EB8300FE
:101D5C00D0F8803023F00F0343EA8203C0F88030C0
:101D6C0036202379624A00FB0353083332F81310F0
:101D7C0021F0020122F81310237900FB03530833DE
:101D8C0032F8131041F0010122F813107B68FBB1FB
:101D9C004146204693F800905E68FFF71FF9E0B1CA
:101DAC00002EC8D136202379514A00FB0353083347
:101DBC0032F8131021F01C0122F81310237900FBC8
:101DCC000353083332F8131041EA890122F8131037
:101DDC00BB68002B4CD14748AEE7362023794449E9
:101DEC0000FB0353083331F8132022F4604222F035
:101DFC00200221F81320002ED4D0B9F1030F9AD869
:101E0C007B6826685B6893F800C006EB8C06B9F11A
:101E1C00000F04D1C6F81095C6F81095C2E7D6F895
:101E2C00102522F00302C6F81025226802EB8C0361
:101E3C00D3F8102522F4473222F47C72C3F8102513
:101E4C0041F6F072D3F8106502EA081242EA094230
:101E5C003243C3F81025237900FB0353083331F8C0
:101E6C00132042EA4C3242F0200221F8132099E769
:101E7C004146D3E900972046FFF7D4F8B9F1000F9B
:101E8C00A9D06C2320791A4E4343F218F358994584
:101E9C0004D153689F4201D100210CE06C2303FB59
:101EAC00006001A96030FFF781FA124B98427FF471
:101EBC0043AF9DF804106C222379534303EBC10309
:101ECC0046F8039023795343362203EBC103334482
:101EDC005F60237902FB0353083336F8132042EA80
:101EEC00412242F4807226F8132074E70400AD0BF3
:101EFC001C0100200000AD0B2DE9F04FD50640F27F
:101F0C00063548BF4FF00308476802EA05053B7BDE
:101F1C0058BFC2F340188BB001F01F06B5F5837F94
:101F2C0014464FF0000A46EA43168DF8138042D04F
:101F3C000DD8062D41D005D8A5B1022D12D06FF0C9
:101F4C00150035E0B5F5807FF9D101250AE040F2A6
:101F5C0002239D4233D0B5F5407F32D0B5F5007FDA
:101F6C00EDD104250123200303FA01F12BD57B6865
:101F7C0059603B6963BB07A80796FFF77DFD079B7C
:101F8C0084F4803100EB8300D0F88020C1F3004151
:101F9C00C4F3404343EA410322F4706243EA8803EA
:101FAC0022F00F0243EA05231343C0F880300020CF
:101FBC000BB0BDE8F08F0925D4E70825D2E706253C
:101FCC00D0E70525CEE7620344BF7B689960D0E774
:101FDC0007F1100831464046FEF7EEFF002855D0B9
:101FEC003046FEF7DFFF36223B7DDFF87CB102FB8B
:101FFC0003005E4B083033F810A04FEA5A3A14F441
:10200C00403946D13046FEF7CDFF36223B7D574D49
:10201C0002FB0303083335F813300446DB0727D5DE
:10202C003146404606F07EFE31464046FEF7C4FF80
:10203C0060B13B6940460393FEF7E2FF039B00B29D
:10204C0003EB8003C3F81095C3F810953146404656
:10205C00FEF7E8FF36223B7D304602FB03440023AB
:10206C00083425F8143001221946009305F036FE89
:10207C003D4B9B459BD15C226C23397D3B4813FB2C
:10208C00012351461844FEF74FFE90E7DFF8E0B00D
:10209C00B5E7002305AACDE908233146404607AA37
:1020AC00CDE905330793FFF733FE2F4B814698425A
:1020BC007FF445AF14F4003349D09DF8133030460B
:1020CC000393FEF76FFF31468146404604F480349B
:1020DC00FEF784FF28B94046FEF76EFF00287FF418
:1020EC002EAF36223B7D214902FB0393083331F896
:1020FC00133013F01C0F02D0002C3FF420AF07A8B4
:10210C000796FFF7B9FCB4FA84F4079B039A00EB2B
:10211C008300D0F88030640923F4706323F00F033C
:10212C0043EA8203362243EA440343EA052343F09D
:10213C000103C0F880303B7D02FB039909F10809CB
:10214C0031F8193043F0030321F8193090E7CDE949
:10215C00083331460DF11303404607AA0793FFF7E6
:10216C00D7FD484584D0EAE60000AD0B1C010020E9
:10217C000400AD0BF0B5456801F01F04287B87B057
:10218C0044EA40142869002869D0B2F5001F05F113
:10219C00100606D12146304606F0C4FD002007B0DB
:1021AC00F0BD0027B2F5800F01A8019747602FD131
:1021BC00B3F1007F14BF052304238DF804300023F2
:1021CC00CDE904030393AB68CB40D90739D4B2F102
:1021DC00A07F36D168460094FFF74EFC009B20335D
:1021EC0050F82330DB072CD421463046FEF7E4FEB2
:1021FC002D7D1E49B8B96C2303FB051069465C3074
:10220C00FFF7D4F81A4B984219D06FF00B00C6E7C1
:10221C00B3F1C06F05D0B3F1007F14BF01230223CB
:10222C00CBE70323C9E72046FEF7BCFE362303FBAE
:10223C000500083031F810305B0B8DF80030CDF80C
:10224C0008D02146304603AAFFF762FD084B98429E
:10225C0008D1012221463046FFF71EFC9EE76FF0A5
:10226C0085009CE76FF0150099E700BF1C0100206A
:10227C000000AD0B10B51E4BD3F840331C2B15D101
:10228C001C4B9B7F180711D51B4BD3F80423D1078C
:10229C000CD5D3F800214AB10022C3F80021D3F8A1
:1022AC000011C3F8842C0122C3F808230421134A1B
:1022BC00114806F035FAC8B10E4C206A421C04D005
:1022CC00A37F9B070FD506F05CFD637F1BB109490B
:1022DC00094806F063FA002323720948D4E9003157
:1022EC00BDE81040184706F040FDEEE710BD00BFFA
:1022FC0000C0FF002824002000A00450342400203B
:10230C003024002070B5114BD3F8100510F00200EA
:10231C0019D0EFF31184202383F31288BFF36F8F4E
:10232C004FF0FF306FF04041094DD5E9002390424A
:10233C0071EB0306F9D31046C3F3130184F3118830
:10234C00BFF36F8F70BD0146FCE700BF00200E503D
:10235C0040270E5008B5084B1B685BB9FFF7D2FF3E
:10236C00064AD2E90032C01A61EB0201400940EA88
:10237C00C16008BD0020FCE72424002008030020D5
:10238C0010B5094B1C689C4204D1FFF7E3FF6FF0BA
:10239C00004010BDFFF7DEFF002CF8D0E368181AE0
:1023AC0020EAE070F5E700BF140100202DE9F843A6
:1023BC0014461D46FFF7A6FFA042A9415CD32F4946
:1023CC00D1E90060A41B24F01F0265EB00039219F5
:1023DC0040EB0300C1E90020EFF3118C202282F3C3
:1023EC001288BFF36F8FDFF898804FF00009D8F890
:1023FC000000244D404508BF0020640944EAC36432
:10240C00214E2C606746D6E900212B6828B3C4689E
:10241C009C4202DDE41AC4601FE0A21841EBE47197
:10242C00C0F80C90C6E90021FEF7D2FE87F31188A4
:10243C00BFF36F8F83689847EFF31187202383F3E3
:10244C001288BFF36F8F2B68D8F800001B1B404518
:10245C00BC462B60D6D1D6E900219A1841EBE3712A
:10246C000023C6E900212B60FFF78AFF04F068FA0D
:10247C0087F31188BFF36F8FBDE8F8830803002042
:10248C0014010020242400200003002010B5EFF3D9
:10249C001184202383F31288BFF36F8FFFF75AFF49
:1024AC000346054AD2E90001181841EBE37184F3A5
:1024BC001188BFF36F8F10BD0003002030B50D469F
:1024CC00816887B0102302AA1039044606F0F6FA88
:1024DC00002802DA012007B030BD1022204602A9E4
:1024EC0006F041FB00283FD11022204902A806F03B
:1024FC00F9FB00280CBF012302232B70A1680123D8
:10250C00203921F00F0120460DF10702203906F089
:10251C00D5FA0028DEDB9DF80730204603F00F02C9
:10252C001B096A702B7101220DF1070106F01BFBD0
:10253C0010B96B78042B03D901236B7000232B711A
:10254C00A2682046203A22F00F02103AA91C06F08D
:10255C001BFB0028BED1A2682046203A22F00F02B5
:10256C00E91C06F011FBB6E70323C6E798BA000096
:10257C0030B5816885B0103921F00F04054606F09E
:10258C00EBFA10220146684605F052FF102268460D
:10259C00064906F027FB10236A462146284606F01A
:1025AC00AEFA003818BF012005B030BD98BA000053
:1025BC00012208B5334B3448C3F80028FEF79AFBC8
:1025CC000830FEF797FB0830FEF794FB0830FEF757
:1025DC0091FB00F5F470FEF78DFB2C4AD2F88C3091
:1025EC0043F44063C2F88C300022D30003F57F0320
:1025FC0003F54043D3F8001401310AD0D3F800148A
:10260C0039B1D3F800140132D3F80434402A0B60EA
:10261C00EBD11C4BD3F840247AB3FEF7D5F948B173
:10262C001B4BD3F834231B4B9A429EBF154B1A4AB3
:10263C00C3F84026FEF7C8F918B1184B184AC3F86E
:10264C00AC27FEF7C1F948B134220E4BC3F824264F
:10265C00D3F83C2622F40022C3F83C260323114A6B
:10266C000A49C2F81835D1F88C3043F44063C1F8EC
:10267C008C300023C2F8A03508BDC822C3F8402412
:10268C00CBE700BF0000125000C50D5000ED00E07C
:10269C0000C0FF00001D0A1840E0A91E00A0085051
:1026AC0078000A0400B00450F8B504460E46EFF367
:1026BC001187202383F31288BFF36F8FC368304ACE
:1026CC005BB1856891688D4215D0B6B987F31188D6
:1026DC00BFF36F8F6FF00F00F8BD916891F90E107A
:1026EC000133E36093682161A36087F31188BFF322
:1026FC006F8F0020F0E70169F2E791F90E1095F960
:10270C000E306FF07E029942A8BF19469142B8BFB5
:10271C0011468B422BDDFEF70DFD05463246214658
:10272C00384604F0CBF80028E3D0EFF311862023D1
:10273C0083F31288BFF36F8FA368D3B12368216929
:10274C009C420AD04BB193F90E309942A8BF19465E
:10275C006FF07E039942B8BF19462046FEF7EAFC9B
:10276C0038B1304604F070F96FF00A00B4E7002578
:10277C00D4E7002DF5D186F31188BFF36F8FF3E703
:10278C00182700206FF00A01094A9368C3F88010DB
:10279C000849D8674B6843F080534B60002383F3A0
:1027AC001188BFF36F8F9368D3F88000704700BF18
:1027BC001827002000ED00E0EFF31183202282F3B4
:1027CC001288BFF36F8F4BB9EFF3058030B9064A0F
:1027DC0051699268914201D0FFF7D4BF83F31188FD
:1027EC00BFF36F8F704700BF1827002070B52C48BF
:1027FC0005F0F0FD28B9FEF7A1FB0122294B1A7058
:10280C0070BDEFF31186202383F31288BFF36F8F13
:10281C00254CE368980704D586F31188BFF36F8FB6
:10282C00EEE75907F8D4DA0716D5A568002DF3D0D2
:10283C001E48D5F89C30806803F00101A842C3F310
:10284C00800202D1EFF3058040B10029E4D0002AC8
:10285C00E2D11B07E0D405E0154DE9E70029DBD0F8
:10286C00002AF6D000232360D5F888309BB9C5E93F
:10287C002144002105F18C0007F0FDFBE36843F0D7
:10288C000403C4E9025386F31188BFF36F8FBDE8CC
:10289C007040FFF791BF1C60C5F88840E9E700BFA6
:1028AC00C4A100004F390020F4010020182700209B
:1028BC005C24002070B4EFF31180202383F3128882
:1028CC00BFF36F8F174A9468D5692368AC4214BF65
:1028DC0019460021646823605C609368D46929B947
:1028EC001149C3E900142360D3610CE093F90E5035
:1028FC0091F90E60B54210D0AE420EDD4C68C3E9C2
:10290C00001423604B60936907498B4200D003B9D4
:10291C00D368536170BCFFF735BFA142E0D00968A2
:10292C00DDE700BF182700203027002070B590F994
:10293C000D20437B002A34DBDC0632D18269002A6D
:10294C002FD11A4A63F07F031146437351F8183F95
:10295C008B4227D1D469C0E900142060D06111E00A
:10296C009C42F8D01B68002BF5D090F90E5093F9CF
:10297C000E60B542F4D0AE42F2DD5C68C0E90034C2
:10298C002060586093698B4200D003B9D36891687A
:10299C00487BC00604D1C8897F2801D9986918B131
:1029AC00536170BDD469DEE75161FAE71827002046
:1029BC008FB5544A544B22F07F029A60BFF34F8F6D
:1029CC00BFF36F8FD3F88820504822F47002C3F8FD
:1029DC0088204F4A0021121A05F02AFD4D484E4A14
:1029EC004E49121A06F0FEF84D484E4A4E49121A3C
:1029FC0006F0F8F840F20F14002210B20121013257
:102A0C00FEF752FFA242F8D10020FEF76FFB474EB3
:102A1C0086F308880021E0223B4BDFF8148183F811
:102A2C002220D9771976597699765A6A42F4E0229F
:102A3C005A6283F823105A6942F010025A615A699B
:102A4C0022F008025A6110221A614FF0FF329A628A
:102A5C00DA62D3F89020120A12F0FE0F2AD0BFF3DC
:102A6C005F8F344AC3F89410C3F8C0200222324856
:102A7C00C3F89810C3F89C20C3F8A0000120C3F839
:102A8C00980000F10050C3F89C0000F53B3000F2B8
:102A9C00E230C3F8A00088F80020D3F89000C0F30F
:102AAC000720824212DB0522C3F89420BFF34F8F1C
:102ABC00BFF36F8F214998F800404D68002D00F04E
:102ACC00A2801F2D3CD86FF015049CE0C3F8982011
:102ADC00C3F8A0100132E0E72046C3F89870D3F891
:102AEC009C2025F01F0502F01F021543C3F89C50D3
:102AFC0005F085FC82E0CA45EED1F8B205F07FFC0A
:102B0C0081E000BF0000000000ED00E000030020A9
:102B1C00543A002040000020FC020020A8C600000F
:102B2C004000002040000020A8C60000986F002044
:102B3C0050390020AAFF4400E1CF1700B4A40000D4
:102B4C00EA06C0D10A68D306BDD1104605F04EFC8A
:102B5C00154405F1FF398246484605F047FC5045BF
:102B6C000746B0D110F1160FADD0A042ABDA854BB1
:102B7C00C3F89800D3F89C00C3F89870D3F8A0A0C1
:102B8C0020F01F0090424AF01F0AB4D0013AC3F85B
:102B9C00987022F01F00D3F8A020CA4502F01F0243
:102BAC0042EA0002C3F8A0202046A1D005F027FC81
:102BBC0010F1160F87D0734B0AF1FF3AC3F89870D7
:102BCC00D3F89C109DF80820013061F304028DF8B5
:102BDC000820D3F8A030009525F01F0555445B085C
:102BEC00D2B2A5EB090563F3471225F01F05694620
:102BFC00C0B28DF808200395FDF7C2FE10F1160F38
:102C0C003FF461AF441C6048604B88F8004083423D
:102C1C000CD005F0EBFB02465D4805F0E7FB90425B
:102C2C005C4B00F088806FF015021A60002440F2B3
:102C3C000112594B594F0120594D9A81C3E91B443C
:102C4C009C67BB60FEF752FA0220FEF74FFA07F1C1
:102C5C0018034FF42052C7E9063305F15003C5E9B8
:102C6C00143301234FF08071C5E91C244D4A2B739A
:102C7C004D4B22F001094D4AEB6603F50053C3F8A6
:102C8C00F897C3F8E027C3F8E447C3F8E847C3F85C
:102C9C00EC47C3F8FC1703F5FC63AB64BB689046C8
:102CAC00C5E906447D61AC60EC81EC67EC6485F8A9
:102CBC00644003B19B6F3A48AB676C7306F008F93C
:102CCC003B4B4FF4A07103F15002C3E914220122D3
:102CDC001A730F22C3E91C14DA813649364AC3E948
:102CEC000644C2E948174FF08071C2F83891C2F817
:102CFC003C11C2E94A44DA6602F590729A64BA68E9
:102D0C009C60DC67DC6483F8644002B1926F9A6764
:102D1C000022C7E901655A73FB603A74274D44469B
:102D2C0085F309880020264B984720460021002275
:102D3C000023244C204710F1160F18603FF476AF97
:102D4C0098F8002082427FF771AF0E4AC2F89800C3
:102D5C00C2F89800D2F89C00197B60F30401197337
:102D6C00D2F8A010187B490861F347101873D2F8F9
:102D7C009C1021F01F015960D2F8A02022F01F02F4
:102D8C001A6153E700ED00E00003002000F0022080
:102D9C00FFEF022078250020942600201827002021
:102DAC001026002051360000983F00200537000007
:102DBC008C250020D5870000583E00209867002005
:102DCC00E38B00005136000010B590F90D20014640
:102DDC00002A437B04DA03F07F03437305F008FDFC
:102DEC000B4A144654F8183F9068A34200D003B91C
:102DFC00D368884209D0417BC90606D1C1897F2995
:102E0C0003D99969002908BF0346536110BD00BF5F
:102E1C0018270020531C70B50446154633D081602A
:102E2C00EFF31186202383F31288BFF36F8FFFF724
:102E3C0091FA184A013513680544934208BF0023E0
:102E4C00E560556823B9C4E900252C6054600AE09C
:102E5C00D868E168884217DD401A5968D860C4E91F
:102E6C0000310C605C601368934208D09C4206D120
:102E7C00094B1B681BB9FFF783FA03F061FD86F35E
:102E8C001188BFF36F8F70BD091AAB42E160DAD0C5
:102E9C001B68D7E71401002024240020F8B5044651
:102EAC0078B9FFF707FD25464FF47A7447F61120E1
:102EBC00002147F612220023E5FB0401FDF7D8FAA6
:102ECC00F8BD821C23D1FFF7E1FA851EEFF31187C1
:102EDC00202383F31288BFF36F8F0F4EB068FFF778
:102EEC0073FFB0680D4922461830FFF793FFB268A4
:102EFC003846537B43F004035373FFF743FCFFF74F
:102F0C00C5FA631CA5EB0005CED12046D8E76FF0BF
:102F1C0001052D1ADAE700BF18270020418F0000A9
:102F2C002DE9F3410221E420FEF7BEFC904B914DBC
:102F3C00D3F8182722F4403242F40032C3F8182791
:102F4C002A78002A40F0EA80D3F8101521F002010B
:102F5C00C3F81015D3F8101541F00101C3F8101582
:102F6C000521C3F8A4160421C3F8AC160723672166
:102F7C0001F001000244013BD2B24FEA5101F7D1FA
:102F8C00052A40F0CB801A4601277A480024672690
:102F9C005FFA82FE96FAA6F15FFA84FCE645B1FA76
:102FAC0081F100F2B5800132052A017500F10C00A7
:102FBC00ECD10120002470499A0800FA02F212F0B8
:102FCC00670F1CBF5C505A580433302BF4D1E420EB
:102FDC00FEF704FC664B0027D3F8102503F5C073ED
:102FEC0022F00202C3F8902340F6FF72C3F8A82126
:102FFC00624A1F60A3F58071043393420F60F8D1CD
:10300C004FF001085A4C5E4EC4F8608030685D4B3E
:10301C00B0FBF3F05D2358435B4B43EA080398473E
:10302C006B685A4903EA080301A8019385F80080EC
:10303C00FEF7BCF9564B984277D1564B1F726B6812
:10304C0023F001036B60AB6843F00103AB60D4F871
:10305C0010359D0762D4D4F8103543F00203C4F840
:10306C001035D4F8482712F0010202BFD4F84837C3
:10307C0043F00103C4F848373D4BD3F84017D3F85D
:10308C0044174800F9D42AB9D3F8482722F0010292
:10309C00C3F848273B4A3368B3FBF2F3344A03EBDB
:1030AC004313002B3AD0D2F84017D2F844174900FA
:1030BC0039D401223849D1E8EF3FC1E8E02F00288C
:1030CC00F9D133B9354936484B60CB608A6005F08D
:1030DC00FDF8EFF3058414B9324B1B785BBBEFF3AF
:1030EC001184202383F31288BFF36F8F01260027EE
:1030FC002D4DD5F84C24D5F84C34D20321D59B0753
:10310C001FD18EB384F31188BFF36F8F002007E0BB
:10311C0007FA01F126EA010601343BE74FF0FF30D4
:10312C0002B0BDE8F081013BBBE7204B9842F5D1E2
:10313C006FF00B00F4E704221B4B2646C3F8082360
:10314C00D5E76EB172B687F31188BFF36F8FBFF3FB
:10315C004F8F20BF84F31188BFF36F8F62B6C8E71F
:10316C002020FFF79BFEC4E70423C5F80433CDE70A
:10317C0000200E50B400002000210E50B0210E5043
:10318C000402002040420F0080A20000C800002072
:10319C000000AD0B0801002020240020102400208A
:1031AC00402500204E39002000E010500200AD0BED
:1031BC0038B50446EFF31185202383F31288BFF34F
:1031CC006F8F036823B185F31188BFF36F8F38BD00
:1031DC00036A5A1ED11C05D8012B08BF00221B49BB
:1031EC00FFF718FE636A01336362A3696BB185F361
:1031FC001188BFF36F8F2046A3699847EFF31185B1
:10320C00202383F31288BFF36F8F54F8100FA04262
:10321C00D9D00028D7D0EFF31181202383F3128863
:10322C00BFF36F8F83680BB105F048FE81F31188F3
:10323C00BFF36F8F0023C0F8803085F31188BFF384
:10324C006F8FBDE8384005F043BE00BFBD310000B4
:10325C0070B5EFF31186202383F31288BFF36F8FC1
:10326C000368A3B10B4B1D689D4207D1FDF7B0FF5E
:10327C00002086F31188BFF36F8F70BDFDF7A8FF98
:10328C00A842F5D1FFF77CF803F05AFBF0E76FF09A
:10329C001500EEE71401002010B5154C2046FFF781
:1032AC00D7FF90B9E3690BB120469847EFF3118132
:1032BC00202383F31288BFF36F8F0E4B2069984243
:1032CC0008D181F31188BFF36F8FBDE81040002047
:1032DC00FDF746BD0028F4D005F0F0FD81F3118810
:1032EC00BFF36F8F05F0F4FDFFF766FAEDE700BF53
:1032FC00400200205002002070B5EFF3118620230D
:10330C0083F31288BFF36F8F00250B4C2046FFF719
:10331C009FFF2046094A0A49C4E90855FFF77AFD80
:10332C0086F31188BFF36F8F064B186805F02EF8E3
:10333C00054B1D6070BD00BF4002002048E8010035
:10334C00BD310000102500201C250020032808B5E5
:10335C001AD0042813D002281ED100220F4B1A7049
:10336C0001220F4BD3E8EF1F002903D1C3E8E02F54
:10337C000028F7D101D1FDF7C9FB012000E00020A6
:10338C00BDE8084002F038BD064A136801331360EB
:10339C00BDE80840FFF7B0BF08BD00BF4F390020A3
:1033AC001C2500202025002037B53F21194801F0AD
:1033BC0049FA194D194C38B100232B80FDF7BEFD8D
:1033CC000123237003B030BD0C216A461148FDF770
:1033DC0029FC0028F0D1124A019B217893FBF2F3CF
:1033EC00009A03EB82031BB2B5F900200029E4D04C
:1033FC009A1A002AB8BF524212B2012ADDDC094ADD
:10340C000139136821700133136003B0BDE83040FB
:10341C00FFF772BFC4A100003C3100204F390020DF
:10342C0090D003000C2500202DE9F843434D0446B1
:10343C00AB6883420BD1EFF3058343B1404B5A6821
:10344C0042F080525A605A6A22F400425A62EFF3F8
:10345C001187202383F31288BFF36F8F237BD90747
:10346C000DD587F31188BFF36F8F002383F3118879
:10347C00BFF36F8F0423184602DFBDE8F883637B2C
:10348C001A0704D587F31188BFF36F8FF5E7D909B5
:10349C0043F0080232D16273A36813B1204605F0E1
:1034AC000DFD204605F0B5FD266D04F15008B04524
:1034BC000FD04FF0000966B1304605F0FFFC05F067
:1034CC00A8FD3046C6F88090FFF730FA266DB0455F
:1034DC00F1D1AA68AB6994421A4A1BD0934216D117
:1034EC00EB686B61AB689C42CCD1EFF30583002B8E
:1034FC00C8D13846BDE8F843FFF744B903F07F0361
:10350C0043F008032046637305F072F9C4E7002BFF
:10351C00E7D1E5E7EFF305810029DFD0934200D036
:10352C0003B9EB6840F201126B61074B9A810022E0
:10353C00AB60C3E91B229A67D4E700BF18270020B1
:10354C0000ED00E0302700209426002030B53C4BE5
:10355C0000255B688BB0C3F3080385F31188BFF3B8
:10356C006F8F02F07F44B4F17F4F08D102F00C044E
:10357C00082C04D012F0080F0CBF05460D46002293
:10358C00033B8DF80720032B03D8DFE803F0104E24
:10359C00524B00249DF80730002B4ED12946202297
:1035AC0002A805F01FFB204602A905F035FD244BAF
:1035BC00DA6A9107EDD4DA6A002AEADBDA6A520099
:1035CC00E7D55A69A96942F480725A61BFF34F8FEB
:1035DC00BFF36F8F5A6931F8021C22F480725A6162
:1035EC00BFF34F8FBFF36F8F4DF60272914209D02C
:1035FC009A6AD2B242B101200DF1070102F086FCA9
:10360C000446C7E72C68C5E79A6A12F47F4F05D0C9
:10361C0001200DF1070102F043FCF1E79B6AB3F5C1
:10362C00803FB6D302F00EFCEAE700200DF1070153
:10363C00E4E700200DF10701EDE70BB030BD00BF52
:10364C0000ED00E0044608B5084611461A46A047AE
:10365C00014B9868FFF7E8FE1827002008B5204BAF
:10366C00002203F18C01C3E9231103F19401C3E996
:10367C0025110121C3E92122C3F89C104FF480606D
:10368C0003F15001C3E914111649C3E91C02164891
:10369C00D960164920F00100C1F8F8031448C1E9BB
:1036AC00FA22C1E9F8034FF08070C3E906229A6050
:1036BC00DA67DA6483F864200E4AC1F8FC03926876
:1036CC00D96601F57871996402B1926F9A671A7B89
:1036DC0042F001021A73024805F0BAFC002008BD42
:1036EC005C2400200004FF0051360000583A0020F2
:1036FC00D93C00001827002001222DE98048754B89
:10370C0003208DB01A70FDF7F1FC0420FDF7EEFCE0
:10371C004FF0807800214FF0040C6F4B6F4A704DC6
:10372C00704C23F0010EAA425ED3EFF311812023DB
:10373C0083F31288BFF36F8FA268D37B013BD373E3
:10374C0081F31188BFF36F8F644E674FAE42C0F0A8
:10375C008980EFF31181202383F31288BFF36F8FDD
:10376C00A2686248D37B0133D373A369834200D030
:10377C0003B9E368507BC00606D1D0897F2803D9F2
:10378C009869002808BF1346636181F31188BFF361
:10379C006F8FFFF711F8564C60220021204604F081
:1037AC0047FE544B0320636204F1200103F5805360
:1037BC002365FDF7ABFF002862D1062004F14C0114
:1037CC00FDF7A4FF00285BD14FF400750320626A5B
:1037DC0008A9089506F082FA002852D0012384F833
:1037EC0058308DF82730A1E11769D2E90209019709
:1037FC005769073002979769D2E90036039720F092
:10380C00070003F15007D2E907ABC3E91477C3E90A
:10381C001B6037180198C3E90611996083F80CB046
:10382C0083F80DC083F80EA0D973596747F81C0CA8
:10383C00029847F808EC47F8180C039847F8209CB6
:10384C0047F8140C47F8048CA068203F9F64D96794
:10385C00D96483F8641000B1806F98671368DA64D8
:10386C002C3260E7B26A531C03D030681AB905F0E9
:10387C00EFFB2C366AE739461830FFF7CBFAF8E73E
:10388C00FEE7089B0620226D08A9A362089506F0A6
:10389C0025FAB8B1012384F858300021084602F00B
:1038AC0041FF00289AD14FF4C061E36D626A4B432B
:1038BC00A66A656D57685033711E384498421BD206
:1038CC000139FAE7089B6365236AD86805F09BF811
:1038DC00E065E2E74E39002051360000D8A1000027
:1038EC00D8A1000018270020418F000030270020AD
:1038FC008823002088030020AE4205D06B1C9E421A
:10390C0002D08B427FF46AAFB6F5007F3FF666AF0C
:10391C0000231F46216D043204319D4240F08D80FE
:10392C00236AD86805F06FF8E36CD86805F06BF87B
:10393C00AE4206D9636A03EBC5035B68BB427FF4F6
:10394C004DAF0123089303F101230993002304A92C
:10395C00206ACDE90A33FEF7B1FDE06C06A9FEF74B
:10396C00ADFD9DF810209DF81830012A6ED19DF800
:10397C00120003286AD1012B68D0022306A90B93ED
:10398C00FDF7C4FE00287FF429AF069E3378032B85
:10399C0002D0062B7FF422AF3046E56D05F039F8E6
:1039AC0040F2FF535FFA85F94FF4C0684FF0FF35D2
:1039BC0003FB090701233946304604AA05F07EF8BB
:1039CC000028C24608F1FF38FFF608AF0122304646
:1039DC0004A905F0C8F818B9B5F1FF3F08BF554662
:1039EC00A7EB0907B8F1000FE4D16B1C08D0B5F5B3
:1039FC00007F5DDA40F2011301350895ADF82430F3
:103A0C00B1680123203921F00F01304604AA203976
:103A1C0005F054F800287FF4E1AE0122304604A9E9
:103A2C0005F0A1F810B101238DF810309DF810307D
:103A3C0003F00F038DF827300AE052F8337051F879
:103A4C00330087427FF4CAAE013366E700230B9341
:103A5C0008A804F05EFF80F0010008A9C0B202F0D3
:103A6C0061FE00287FF4BAAE08A804F052FF90BBA8
:103A7C0008A804F029FA9DF8273084F85830033B45
:103A8C00012B05D806F08BF910B1FF2384F85830C0
:103A9C009DF82730023B022B05D806F069F910B1CE
:103AAC00FF2384F8583094F85830FF2B0ED1FEE7E2
:103ABC000223A5F500758DF825306B1005F0010576
:103ACC000133013508938DF8245099E700210846FD
:103ADC0002F028FE82E69DF82760012E2BD102F021
:103AEC008FFE831E022B054610D8304608A904F021
:103AFC00A3F8A8B9E8B284F858008DF8270001287B
:103B0C0029D813D0FF2384F858300FE0C0B2042812
:103B1C0084F858008DF82700F1D9052818D0F1E762
:103B2C00012810D184F858008DF8270094F85830EB
:103B3C00FF2B24D1FEE7012008A904F07DF810B971
:103B4C009DF82700E3E7052384F858308DF82730DB
:103B5C0006F025F90DE008A804F0B6F994F85830F1
:103B6C00DA1E012A08D806F01AF90028CAD106F084
:103B7C00FFF80028DAD0C5E7022BD7D1F7E70021F0
:103B8C00012B06910CD10021084604F055F805468E
:103B9C0058B9069B01330693069E012E0BD0FEE707
:103BAC00084602F0BFFD0028EDD01022002108A825
:103BBC0004F03EFCFEE7236A0146102208A85F6869
:103BCC0004F036FC3B4BD3F874250F2A00D0FEE7EB
:103BDC00D3F86C250F2AFAD102F5F91202F6F67217
:103BEC00C3F86855C3F86C254FF4F8424FF0FF3A10
:103BFC00C3F87025304AC620C3F87425B4F8088081
:103C0C002E4C08EB0709C4F808A3FDF7F5FDE66296
:103C1C00C4F85051D4F85031C4F84C51D4F84C314C
:103C2C00C4F82451D4F82431C4F8005504F5783480
:103C3C004FF48270C4F808A3FDF7DEFDE662C4F809
:103C4C005051D4F85031C4F84C51D4F84C31C4F81C
:103C5C002451D4F824311A4BC4F80055C3F808A3E6
:103C6C00BFF36F8F72B6174B05F120020135102D83
:103C7C0043F822A0F8D100234FF0FF30114A03F192
:103C8C0060010133102B42F82100F8D100240E4BB7
:103C9C00C3F80444FCF762FE58F8073083F3088835
:103CAC0084F31488BFF36F8FBFF36F8FD9F8043090
:103CBC009847FEE700B004500530190000600C5026
:103CCC0000E0105000E100E0002008E02DE9F04198
:103CDC0004462027494EEFF3118887F31288BFF36F
:103CEC006F8FD4F88450D4F89C30BDB923F0040203
:103CFC005807C4F89C20C3F380015ED504F19405E9
:103D0C000121284606F0B7F90028F9D14FF0FF320F
:103D1C00404604F18C0102F0D1FDDCE7D4F88810A8
:103D2C002A688D4243F00203C4F8842008BFC4F80B
:103D3C008820C4F89C30EB6823F0040343F00103A3
:103D4C00EB606B6888F31188BFF36F8F2846984738
:103D5C00EFF3118887F31288BFF36F8FEB68D906E6
:103D6C0023F0010233D4EA60EB689A0716D5306869
:103D7C0023F00203EB6088B10021036870B1426844
:103D8C00954232D1036851BB72683360904200D1C6
:103D9C007360002340F8083B05F07CF9D4F89C30A4
:103DAC0023F00203C4F89C3088F31188BFF36F8FA3
:103DBC00DB0590D4FEF77EFD8DE7D006A6D5C4F8C2
:103DCC009C1088F31188BFF36F8FBDE8F08123F04E
:103DDC001103EB6005F1100005F05CF9C4E70B6012
:103DEC007368984208BF7160D3E723B11A68014623
:103DFC0018461346C2E71A46F9E700BF80030020B5
:103E0C002DE9F04F44680669054689B0E06B03F074
:103E1C0087FF00283BDB236C591C01933AD001220D
:103E2C008DF80A2002226C274FF05C0A8DF80C20CA
:103E3C000DF10A02059203AA0692002294F848009A
:103E4C00DFF8D89017FB00A00DF10B014844079246
:103E5C000491FDF7ABFA324A80469042019B04F183
:103E6C00440B02D06FF0120011E01946584605AA17
:103E7C00FDF74EFF40450DD094F848309DF80B10DF
:103E8C0017FB03A04844FCF74FFF6FF0040009B088
:103E9C00BDE8F08F0127636B9847B4680834D6E906
:103EAC00023203EBC203A4F10802934209D8304654
:103EBC0005F017F928461B4909B0BDE8F04F04F08E
:103ECC0033BB54F8080C04F085FA0028CAD054F817
:103EDC00080C14F8041C34F8023CD0F810E0DA0793
:103EEC0054BF43F4B01383F4D013DEF800C023F4B2
:103EFC00801207FA01F8DB074CBF4CEA08032CEAE6
:103F0C000803D0F80890CEF80030D9F80030984764
:103F1C00002804F10804C2DAB9E700BF1C01002034
:103F2C000000AD0B6F8800002DE9F04F056982464B
:103F3C00AA6CD0F804B02B6D85B0002A4CD1002BA4
:103F4C0000F0F680BBF83840696C9C4228BF1C46D8
:103F5C00EF6CEA6C6E6C002A5BD1AC65002E65D1FF
:103F6C00002424239BF80490DFF8C88103FB09F399
:103F7C0008EB0302507F38BB58F803300BB1012318
:103F8C005377242303FB0983186AC3E90316421CE5
:103F9C00C3E9057404D09B7F9D0751D504F0E5FE61
:103FAC00DBF8005021B101F06043B3F1005F06D1A2
:103FBC00002F48D007F06043B3F1005F43D02423B7
:103FCC00002203FB09835A776FF00401504605B0B9
:103FDC00BDE8F04F05F0A7B8686CEF6C0146BBF874
:103FEC00384013B19A4228BF1A46944228BF14464F
:103FFC000028AED000F06043B3F1005FA9D0082CCC
:10400C0028BF082401462246286E04F0EBFD296ED9
:10401C009FE72B6D43B107F06043B3F1005F03D012
:10402C00082C28BF08246F6EAC652EB1AE6C002E28
:10403C0018BF2646002A93D02B6D002B90D090E70A
:10404C0004F09FFEACE70022C5F83C17C5F84067AA
:10405C00C5F80477C5F80847C5F80821D5F8083124
:10406C000723CDE90016CDE90274C5F80035324BB3
:10407C00D3F840331C2B3FD1242303FB09F308EB6B
:10408C000301897F080737D58221C5F8841C58F8AD
:10409C000330002B37D0C5F80021D5F800310123AF
:1040AC00C5F8043301232B60242303FB09F308EB2D
:1040BC00030258F80330002B34D11F49D1F84013B8
:1040CC001C2904D1927F110748BFC5F8843C2423D6
:1040DC0003FB0983186A421C04D09B7F9B071ED5E7
:1040EC0004F04FFE284609EBC90908EB890105B01D
:1040FC00BDE8F04F04F052BB242303FB09F358F83E
:10410C000330002BCED101232B60D5F80831002BC6
:10411C00FBD06A460421284604F002FBC4E704F0F5
:10412C0024FEDFE70423C5F8043305B0BDE8F08FA7
:10413C0019464BE72824002000C0FF000022044B46
:10414C000069C3F80021D3F8003104F0A3BF00BF0D
:10415C0000700D50F8B51D4B054698420E4614469E
:10416C0031D8C0F5BE1303F580539A422BD81AB33D
:10417C004FF0FF31164804F045FB40F20113154F88
:10418C002246C7F80035CEB13146284604F02AFD48
:10419C00BFF35F8FD7F81834DA0705D4230703D0A1
:1041AC000123BB60BFF35F8F4FF48072094B08484B
:1041BC00C3F8002504F06EFF0020F8BDFF2128464F
:1041CC0004F036F9E4E76FF01500F6E7FFCF1700BF
:1041DC004C24002000B004502DE9F04F95B0CDE9EF
:1041EC0008234368074605938B8804699804029159
:1041FC002BD44FF0FF3104F1100004F003FB029BB1
:10420C0063603B697E680393039AB36892F85D2000
:10421C002AB1039A02991268914200F06C81029AB9
:10422C00B2F804B01BF4006F17D06FF0850523684B
:10423C009B8813F4005304D1636004F1100004F064
:10424C0029FF284615B0BDE8F08FA369002BD0D10B
:10425C006368029A9A42CCD1D3E71BF0090F02D0C3
:10426C006FF01505E3E7CBF34512082AF8D1029A53
:10427C00AD4912688A42F3D9934228BF1346F168BC
:10428C00AA4D0E913169AB420C91716996F82D9043
:10429C000D91B16996F82FA00791317F0691B17FEE
:1042AC00119196F826101291B16A0F9196F82C1074
:1042BC00139196F82E10049196F8301010911BD291
:1042CC009B4DAB4218D29B4DAB4215D29A4A9342AE
:1042DC0000F2F081994A934200F2EE81984A93429F
:1042EC0000F2EC81974A934200F2EA819649974D8D
:1042FC00974A8B4288BF15461BF0020F0BF004083F
:10430C0000F0E081B8F1000F14BF4FF003084FF03C
:10431C00020833681BF0020FD3F8000640F0D88176
:10432C0004F02FFD039B93F85D3033B13046FDF75D
:10433C0075FA0023039A82F85D30242233790A93AC
:10434C000A99844B02FB01331B7F002B40F0F68152
:10435C003268814B9A4240F0BE81804BB3FBF5F33F
:10436C007E2B00F2EB8124230A997A4A4B437C483A
:10437C00B9F1000FD05002EB030114BF012300234D
:10438C000B93049B08BF02234F603168724A04935D
:10439C00744B914296F80490D3F8403340F0A781C7
:1043AC006E4A1C2BB2FBF5F514D118F0010F40F03E
:1043BC00A7816B08049A0133DBB2934238BF1346D2
:1043CC002422DBB20493634B02FB09339A7F42F045
:1043DC0008029A7724225F4B02FB0931887F6AF32B
:1043EC0000008877317902FB013306999A7F61F3DB
:1043FC0041029A77BAF1000F23D1B8F1010F94BFA3
:10440C0000230123524601210E9805F01CFE534651
:10441C00524601210C9805F016FE53465146129A4D
:10442C000D9805F010FE069B52460121079883F06B
:10443C00010305F008FE0123524619460F9805F0BA
:10444C0002FE0B9A2423DFF80CA1002A00F06081F5
:10445C004FF0FF3203FB09A31A62069B0B93109BD0
:10446C003268A3B90E9BC2F800360C9BC2F8043616
:10447C000D9BC2F808360F9BC2F80C36079BC2F88E
:10448C0010360B9BC2F8B835049BC2F8B035119BA3
:10449C00B8F1020FC2F8C035C2F82C55CBF300139B
:1044AC0000F04681B8F1030F00F04581B8F1010F1F
:1044BC0001D143F00203C2F85435139BC2F8AC355A
:1044CC002422337953435AF8033023B13068C0F3B4
:1044DC000830FDF783F924230A9A03FB02AA002370
:1044EC008AF81D300123039A8AF81C3082F85D305B
:1044FC001346029A1A60012384F85C30059B1E6CEB
:10450C00721C55D003F1440831464046FCF754FD6B
:10451C00002800F016814046FCF772FD05B2AD0094
:10452C0005F58075ADB21FE047E801000048E801D1
:10453C000024F40000127A00FF083D007F841E0066
:10454C003F420F001FA107008FD0030048E8010075
:10455C0090D003002824002000A004500020A107C4
:10456C005591000000C0FF00002231464046FDF787
:10457C0093FA0022032311463046009203F0AEFB5F
:10458C0004F00BFC8146059B5B6C5B592BB904F06A
:10459C0004FCA0EB0900C728F5D93146404604F0CD
:1045AC00C1FB0022012311463046009203F096FB1A
:1045BC00089B002B40F0C88063630023A36304F1C5
:1045CC00480204F1380104F1340005F074FB099B36
:1045DC006064002B40F0C180E3630023236404F18A
:1045EC00500204F1400104F13C0005F064FB00258D
:1045FC0001212A46E0642563204604F012F838466F
:10460C00FFF792FC2A462B46A06B834240F0AE800B
:10461C0000231946256CA94240F0AF80934238BF65
:10462C00134626464FF4FA524FF0000802FB03F5EE
:10463C0056F8203B47F6122C1B6840F2E730B5FBCE
:10464C00F3F54146C8354FF47A720023E5FB0C01B3
:10465C00FBF70EFF0146304604F0D4F8024620B9B1
:10466C00256B15F1740F40F097800598C4F85880AD
:10467C00FDF7D4F86FF07301384684F85D8004F0D0
:10468C0052FDEFF31187202383F31288BFF36F8F52
:10469C006FF00A08256AAE4276D0002D74D02846F9
:1046AC0004F00CFC04F0B5FC2846C5F8808004F03E
:1046BC000FFCEFE73C4D1FE63C4D1DE63C4D1BE669
:1046CC003C4D19E6B8F1000818BF4FF0010820E680
:1046DC0004F04BFB26E6384AB2FBF5F305FB13223C
:1046EC0093422BD9D90729D4023B7C2B39E6324A89
:1046FC001C2BB2FBF5F57FF46DAE022D3FF655AEDB
:10470C0024222E4B02FB09339A7F6FF3C30260E61F
:10471C0003FB09A9079B069AC9F8203099F81E30AB
:10472C0062F3410389F81E304FF0FF33079396E68E
:10473C0043F00403BFE643F00603BCE66FF0040548
:10474C0075E54FF4A2750FE7089B1B686363002B9C
:10475C003FF433AF089B5B6830E7099B1B68E3634E
:10476C00002B3FF43AAF099B5B6837E7616B01EBB9
:10477C00C301496801330A4447E7E06B00EBC10011
:10478C0040680131034446E700233846A36202F037
:10479C005BF96FF073054AE5002D3FF448AD014617
:1047AC00386903F03EFF42E500093D0080841E009D
:1047BC0040420F0020A107000024F4002824002010
:1047CC0070B583680446A3B31D4A9268934233D1F3
:1047DC00C368012B03D9013BC360002070BDEFF30C
:1047EC001186202383F31288BFF36F8F0169FCF7C6
:1047FC00A1FC2568AC4207D10023C4E9023386F33F
:10480C001188BFF36F8FE8E7002DF5D0284604F030
:10481C0055FB04F0FEFBA56095F90E30284623618C
:10482C000023C5F8803004F053FB304602F00CF93D
:10483C00D3E76FF01500D1E74FF0FF30CEE700BFA4
:10484C00182700207FB50569AB6A43B33F2901D017
:10485C000C2927D105F110064FF0FF313046FDF73A
:10486C0023FF124B0024019303236946A86A029389
:10487C00039403F02BFD4FF0FF31284603F0C2FFE9
:10488C00A86A03F083FD0A4BD3F808256A6201225B
:10489C005A603046FFF794FF204604B070BD6FF0AD
:1048AC000A00FAE76FF08500F7E700BF250C00005F
:1048BC0000700D5010B5034B0A461B6800210446CE
:1048CC00984710BDA800002010B5044610B109B1DE
:1048DC00FFF7F0FF024B2046BDE810401B6818475D
:1048EC00AC00002070B5446A05460E4644B9074B2F
:1048FC0001201B689847686228B12046AE6270BDE3
:10490C006FF08A00FBE76FF08C00F8E7B000002036
:10491C0038B5064C204605F06EF8054B204693F84A
:10492C00805505F06CF8284638BD00BFBC0200204D
:10493C00B02B0020302817D00ED81238C0B219284E
:10494C0007D80123214A83401A40002A3AD1DB07B9
:10495C0020D46FF08600704741282AD04228F8D125
:10496C00FF2928D11A4B2AE0B1F5A07F2AD00BD809
:10497C0021F02003C02B25D0B1F5807F0CBF6FF048
:10498C0085006FF086007047B1F5C07F1AD0B1F585
:10499C00007FF3E7B1F5807F14D003D821F020011C
:1049AC00C029EBE7B1F5C07F0CD040F20923994246
:1049BC00E4E7FF2902D0B1F5E07FDFE7054B0020EB
:1049CC00136070476FF08500704700BF2002210212
:1049DC0070A7000064A7000010B51E4C4368B4EB30
:1049EC00132F4FEA132215D142691B4B9A420CD05C
:1049FC0003F5FF437D331344012B03D80388B3F530
:104A0C00105F1DD06FF0860019E047F21213028878
:104A1C009A42F6E7114B9A42F4D1028802F44F43C2
:104A2C00B3F5824F0ED1438844F212100733824201
:104A3C004FEAD30301D15B00013300200B6010BDA2
:104A4C000223FAE7B2F5885FFAD143880733DB0813
:104A5C00F3E700BF004E800001C0FF7F4B4E80008B
:104A6C000022074BC3F81021C3F80C21C3F8002116
:104A7C00C3F80421C3F80821C3F81421704700BF00
:104A8C000050045008B5FFF7EBFF01230360104BF7
:104A9C000A6832B9D3F80C211AB9D3F80821002AC4
:104AAC00F6D00B687BB90B4B99420ED0A3F58473EF
:104ABC00D3F80831002B0CBF4FF0FF306FF0020021
:104ACC00FFF7CEFF08BD0020FAE74FF0FF30F7E705
:104ADC00005004500851045038B5064D0C46C5F82A
:104AEC00000505490548FFF7CDFF10B9D5F8083585
:104AFC00236038BD00500450105104500C50045029
:104B0C00C36870B57BB9C36900F128021A60C36928
:104B1C00454A9A604368C269DB6843F48063D3609A
:104B2C00C3691033C361836A9B052FD40368C268C1
:104B3C00DD6800F1EC04302D34BF082610261D6909
:104B4C0001366B1E1340EB1AB34238BF5B191C4481
:104B5C00D50004F8015C03F1EB045209044400F1A4
:104B6C00ED05A5425CD1802280F8EC20426AC46934
:104B7C00C4322260C26993604468C269E468D4603C
:104B8C00C2691032C26102691A4402610269C469C5
:104B9C00D31C23F003039B1A54F8042C42EA03227F
:104BAC0044F8042CC26952F8084C234443F00053D7
:104BBC0042F8083C026A0368DB6811600168026A0B
:104BCC00C96803339160026A23F0030302F11001F8
:104BDC0001620168C96899420BD00021116101681A
:104BEC00026AC9685B1A43F080439360036A10330E
:104BFC000362836A13F4806311D102685169D2682D
:104C0C0091420CD0026A13600268016A5369D2683F
:104C1C009B1A43F080438B60036A1033036270BDB0
:104C2C0004F8012D120A9CE70400002010B5154B66
:104C3C00186D28BB1A684FF0010C91690824C1F358
:104C4C000B02482A5A6528BF482211F4003F9A6586
:104C5C0008BF0022DA65CA0358BFC3E9150001F486
:104C6C007002B2F5700F08BF986D0029B8BF002212
:104C7C00C3E919C4B8BFC3E91922012298651A65A2
:104C8C00014810BD402B0020902B0020244B0340EA
:104C9C00B3F5806F2FD017DC402B2ED008DC102BF7
:104CAC002DD0202B2DD0181E18BF0120400070478E
:104CBC00B3F5807F27D0B3F5007F26D0802B08BFBB
:104CCC000B2018BF02207047B3F5804F1FD00ADCB1
:104CDC00B3F5805F1DD0B3F5005F1CD0B3F5006F4A
:104CEC0008BF0620EDE7B3F5004F16D0B3F5803FB3
:104CFC0008BF0320E5E7112070470A2070470C20FD
:104D0C00704709207047082070470720704714200F
:104D1C00704705207047042070470F20704700BF74
:104D2C00F0FF010067230360D0F8DC3110B50446B6
:104D3C003BB14FF0FF318268D2680160D0F8E811C6
:104D4C009847064BC4F80432D4F86832C4F80032E1
:104D5C0004F50073C4F8683210BD00BF43A0000016
:104D6C00F8B54F681646FB68D0F8EC2104469A4219
:104D7C000D4602D26D230360F8BD67230021182273
:104D8C00C0E9003100F5E47003F052FB20460E4BF5
:104D9C004FF4DE71C4F8C8310C4BC4F8CC310C4B59
:104DAC00C4F8D0310B4BC4F8D4310B4BC4F8DC3104
:104DBC0040F8087FFB69984700B12060074BC4E9B5
:104DCC007C56C4F8D831D7E7A19F0000CD9F0000D6
:104DDC00359C0000A99A00009B9C0000314D0000FE
:104DEC0070B51646CB684A685B68D26804461344B3
:104DFC00D0F8EC210D469A4202D26D23036070BDAF
:104E0C001822002100F5E47003F012FB67232360E5
:104E1C00024BC4E97C56C4F8D031F0E76150000075
:104E2C00672370B5154604460E4603601822002110
:104E3C0000F5E47003F0FCFA064BC4F8F061C4F81A
:104E4C00D831C4F8F85173686B60034B2B60F3686E
:104E5C00EB6070BD196E00001CA70000F0B5038854
:104E6C00C76803F44F42B2F5824F08BF1D4603F4E6
:104E7C00E0441F4B18BF002500201A46EDB21E78E7
:104E8C00AE4223D1D3E9026CD1F800E0B4F5804FE7
:104E9C0008BF6646BEF1000F0BD1202E09D114239A
:104EAC0003FB002253680B60137CABB96FF08500D9
:104EBC00F0BDD3F804C0E64508D1202E02D06FF027
:104ECC008600F5E7142303FB0022EDE701301328DD
:104EDC0003F11403D3D1F2E7422D06D1054B9F42C7
:104EEC0003D003F20B139F42E9D10020E0E700BF8F
:104EFC0064A500000008000602480B1A58425841ED
:104F0C00704700BF00080006034BC3F80005D3F838
:104F1C000024D207FBD5704700B00450014608B5F9
:104F2C000120FFF7F1FF064B0648C3F800150649B0
:104F3C00FFF7A8FD01460020FFF7E6FF084608BD75
:104F4C0000500450085004500851045070B588B0FB
:104F5C0001AE182205460C463046002103F068FAD3
:104F6C00012044EA052405900794FFF7CDFFFA23AE
:104F7C0009480A49C0F80035C0F80465FFF782FDFE
:104F8C0001460020FFF7C0FF81420CBF08466FF0BE
:104F9C00920008B070BD00BF005004500051045086
:104FAC00F8B506460F46FFF7B3FC80B300241B4B45
:104FBC0022461D46197FD1B13CB9022905D1196A87
:104FCC0019B91979002918BF1C460132202A03F19E
:104FDC002C03EFD114B96FF08C0006E0204604F0DE
:104FEC0058FB204604F089FC10B100240DE01C464F
:104FFC00237F7BB90123237736B1094B651BAD1099
:10500C005D4305F18045356000203C60F8BD6FF0D4
:10501C008800EAE76FF09600E7E700BFB02B0020AE
:10502C00A38B2EBA10B50446094804F0E4FC18B161
:10503C006FF08F04204610BD204604F081FC04461E
:10504C00034804F0DCFC0028F4D0002CF2D1EFE78C
:10505C00A802002010B5D0F8F03104465B68DB687C
:10506C009A4203D26FF05303236010BD02D96FF044
:10507C003F03F9E7D0F8E80103F0B4FD0023C4F8CE
:10508C00D031024BC4F8D831EFE700BF4FA000007D
:10509C0008B50B4804F0AFFC0A4A1368591C1160A0
:1050AC004BB9094A4820D2F8003443F00703C2F840
:1050BC000034FCF793FBBDE80840014804F09FBCAA
:1050CC006C0200203C2B002000800450B1F5DE7FE8
:1050DC0038B504463CD303681D6815F040053AD139
:1050EC00FFF7D6FF1D4804F086FC01232376BFF39F
:1050FC005F8F4FF0A342D561BFF35F8FBFF35F8F1C
:10510C004FF0FF311163BFF35F8FBFF35F8F34211B
:10511C00D161BFF35F8F124A2846C2F80433114A9B
:10512C001149626022681268C4E90355A26204F155
:10513C002C02226204F128026262E2671322C4E9A3
:10514C00211204F18C02E261084AA360626138BD4D
:10515C006FF02200FBE76FF00200F8E794020020EA
:10516C000080045038A70000040000200D4B000004
:10517C0010B5154804F03FFC144B1C68013C1C6036
:10518C00ECB94820FCF738FB0722114BC3F8082375
:10519C00D3F8002422F00702C3F80024C3F800411E
:1051AC00D3F80021C3F80441D3F804214FF48072E2
:1051BC00C3F80841D3F80831064BC3F888210248DC
:1051CC00BDE8104004F01BBC6C0200203C2B0020FE
:1051DC000080045000E100E010B50378044633B1C0
:1051EC00FFF7C6FF024804F00AFC0023237010BD31
:1051FC00940200200422074B10B5C3F80823044680
:10520C00FFF7B6FF00232361A3640348BDE81040F9
:10521C0004F0F5BB00800450800200202DE9F0471B
:10522C00036904469D681B681746B3F5003F466842
:10523C000BD10023E364FFF7F9FC0369002B48D181
:10524C002046FFF7D7FF122041E0D0F84C80B8F190
:10525C00000FF0D1DFF8DCA0DAF84034012B1AD0C3
:10526C00B723DFF8D49035493548C9F80035FFF736
:10527C0009FC40BBB8233248C9F80035FFF702FCE3
:10528C0008BBB9232E48C9F80035FFF7FBFBD0B992
:10529C000123CAF8403401212A4A136803F58053CC
:1052AC009962002199625968C806FCD488060AD410
:1052BC00D96A012199601960596801F023004907E6
:1052CC0029D40028F8D02046FFF794FF0120BDE830
:1052DC00F0874168E36023691A68236822F0FE02B4
:1052EC00920503F58053920D1A6223691B68D8004E
:1052FC0048BFE368284644BFCB1AF61800230028A1
:10530C00E5D0C20748BF47F823604FEA600048BFAA
:10531C0001330E44F3E7DB6AC3F38123032B02D082
:10532C00094911F90380C2F86080022223689A604F
:10533C0001237FE7008004500050045004510450B6
:10534C0004500450402B002027BE00002DE9F04FE4
:10535C0090469B4642690369D0F84CA09D68044670
:10536C00D0E901730E46D2F86C9085B0BAF1000FFB
:10537C0006D0FFF73FFF1025284605B0BDE8F08F9B
:10538C000193FFF753FC3268019B12F0800F14BF9E
:10539C00C26842687068904204DD2046FFF72AFF1D
:1053AC000D25E9E72269E060B9F1000F02D011691F
:1053BC0048EA0108316812680138114341EA0021BA
:1053CC00226841EA0801516022691268D00002D5B6
:1053DC00E2689A1A17449DBB336813F4700F3AD0E5
:1053EC00B9F1000FC8D023691B69002BC4D0D9F8C0
:1053FC00083048469847D4E901672369CDE9020192
:10540C001B68E26813F0805F06EB07164DD0C1F302
:10541C00076100F03F0341F0010143F020038DF8D8
:10542C000F10B01AA2F108018DF8083004F09DFAA3
:10543C00083E082230460DEB020104F0B3FA9BE75C
:10544C00E90748BF4BF82A704FEA650548BF0AF1D7
:10545C00010A1F44BFE72269B7681268D4E90183C7
:10546C00D20042BF72689A1A9044002FB8D0184AE2
:10547C00974217D0174A974214BF4FF0060A4FF0C5
:10548C00050A4FF0000BD345AAD039464046726846
:10549C00019304F087FA7268019B174498440BF14E
:1054AC00010BF0E74FF0020AEBE7C1F3056141F0A5
:1054BC002001F61B40F001038DF80F1006F10800D7
:1054CC00A2F108018DF8083004F04FFAB1E700BFE3
:1054DC00B7BD00009ABC00002DE9F843164B0646F8
:1054EC001A6A824223D0DA6C904222D101272C22F4
:1054FC00DD6D02FB07374FF4C0634FF000085D43CE
:10550C00BC6A5035013C7B6A304603EBC40253F84D
:10551C003410D2F804901B684A46C91AC84403F0E8
:10552C0003FBA84504F1FF34EDD3BDE8F883002755
:10553C00DDE70120F9E700BF882300202DE9F341C6
:10554C00012804460F460CBF062003206946FCF7D1
:10555C00DDF820B10124204602B0BDE8F0812C23F7
:10556C001B4EDDF8008003FB0466F368358940466A
:10557C001D44042329460DEB030203F09FFA044655
:10558C000028E7D146F60813BDF8042076899A4224
:10559C001AD1BDF806309E4201D00324DBE7042368
:1055AC0040460DEB0302711903F088FA0028D1D1A3
:1055BC0046F60713BDF804209A42EED1BDF806302A
:1055CC0033442B443B60C6E7002EF1D0E5E700BF27
:1055DC00882300201FB5074B6A461C6A1023A1685C
:1055EC002046103903F06AFA002818BF0024204620
:1055FC0004B010BD882300202DE9F84F06460F4655
:10560C00904699460024DDF828A0DFF844B0A24566
:10561C0001D800200FE0AAEB0405B5F5806F28BF78
:10562C004FF4806530462B46094A04EB080103F021
:10563C0045FA10B10120BDE8F88F2B465A46384682
:10564C0004EB090103F05BFA0028F3D12C44DEE7EC
:10565C00382700202DE9F0477C4C7D4804F0CBF92D
:10566C0065787B4804F0CBF97A4804F0C4F9022D34
:10567C00784808D12378072B05D104F0C0F9002510
:10568C002846BDE8F08704F0BAF9724804F0B3F983
:10569C00002843D06FF08F056E4804F0ACF92378E6
:1056AC00580744BF23F0040323702378990719D5B6
:1056BC00694E0027B0464FF0010A4FF003093046FF
:1056CC00C6F820A086F81C90013704F016F9202F9C
:1056DC0006F12C06F3D1002388F88035237823F0CB
:1056EC00020323705B4804F08AF9594804F083F9EB
:1056FC000023042159486370FFF7DCF8544804F088
:10570C007EF9544804F077F923785248DA0744BFFD
:10571C0023F00103237004F072F9B1E7257815F03A
:10572C00010546D04B4804F06AF90028B2D149482B
:10573C0004F061F90028ADD123789F0706D401212C
:10574C00454A43F0020382F880152370414804F067
:10575C0056F900289ED13F4804F04DF9002899D104
:10576C003C48257804F04BF9002893D1384804F0D4
:10577C0042F900288ED163781BB9EE0744BF02238F
:10578C006370334804F03BF9002883D1314804F0AE
:10579C0032F900287FF47EAF23782E485D075CBF7A
:1057AC0043F00403237004F02AF900283FF467AF98
:1057BC0070E72B4E2B4F3368BB422DD0FFF768FCA4
:1057CC00294B9D60C3E90033284B01214820C3E9D4
:1057DC0000339D60FCF768F8254A264B264952F8A1
:1057EC00040B43F8040B8B42F9D10023234DEB66D9
:1057FC00234B2B6003F5C0436B60FFF717FA68B1BE
:10580C006B6DB3F5007FCCBF4FF480634FF4007326
:10581C00AB60FFF7ADFC3760002507E00E2004F00D
:10582C0062F90546FFF7A4FC002DF4D02378094853
:10583C0043F00103237004F0E2F818B1002D7FF45B
:10584C002BAF27E7002D7FF427AF70E73431002012
:10585C00D0020020BC020020B02B002038310020E8
:10586C000802002011736500E4020020F002002001
:10587C007CA7000000C080511CD38051402B00201D
:10588C000020805140292DE9F04104460E4635D8C0
:10589C001C4804F0B0F82378033303F00303012B06
:1058AC0024D86FF0210004F01EF9054640B91649C2
:1058BC003246204603F096F94021134803F0F6FED9
:1058CC00104804F09CF82846BDE8F081637838460F
:1058DC002B44C8F80035FFF7D5F868B901352378A3
:1058EC00C3F382039D42F1D30020DCE70025DFF8EF
:1058FC001C800749074FF2E70220D4E76FF08905B7
:10590C00E1E700BF9402002000000020005004508A
:10591C0004510450045004502DE9F3476946DDE965
:10592C000A6982461446984604F04AF8002849D180
:10593C0003F0BFFF002845D19DF8005015F00F0271
:10594C0040F0AC80BDF80230C3F3C113013BDBB2B5
:10595C00022B00F2A680594905F03005C95C584B62
:10596C00102D43EA010363602FD1564B2360204670
:10597C0001A9FFF731F828BB019BB34200F29A80D2
:10598C0044F212122188914204BF042208F8012B20
:10599C00C9F800309DF8003098F80020C3F30113CB
:1059AC0063F3010288F800209DF8022008BF06F17D
:1059BC00FF36C2F30212042A49D8012A4BD851D01F
:1059CC006FF0980002B0BDE8F0879DF80310134605
:1059DC0010463D4A4908F9B9019001A803F006F8B0
:1059EC009DF80230019A03F00F010A29A2605ED1E2
:1059FC0047F2421112F4A05F44F2421218BF0A4659
:105A0C00C3F302132280314A013BE260032B0FD80F
:105A1C00DFE803F00C16181ACF0704D5062B43D871
:105A2C0052F82370384349080133D4E7802363804C
:105A3C009DF8003013F0300F99D16FF09600C1E74C
:105A4C00C023F4E7FF23F2E74FF48073EFE7052A56
:105A5C00B6D1032206E044F2121322889A4214BFF4
:105A6C0002220422202D00D1023298F8003088F84E
:105A7C0001A062F3840388F80030238803F44F42BA
:105A8C00B2F5824F06D13146404602B0BDE8F04730
:105A9C00FFF7F8BEB3F5885F94D1F4E76FF0880098
:105AAC0090E76FF091008DE76FF083008AE76FF05D
:105ABC00920087E76FF0890084E700BF2ABE0000E0
:105ACC00004B4E800110800148A700000008000622
:105ADC002DE9F3410546DDE908871E462D4853683C
:105AEC001446B0EB132F4FEA132202D02A4B9A42E2
:105AFC004CD155EA010310D06A1E41F1FF33022A42
:105B0C0073F1000324D3334622462846CDE9088797
:105B1C0002B0BDE8F041FFF7FFBE2049204B01A8C1
:105B2C00C4E900131F4BE3604FF47053019302F070
:105B3C005DFF019B2046A36001A9FEF74DFF20B934
:105B4C00019B98451DD26FF0890002B0BDE8F08131
:105B5C00154A134B01A8C4E900234FF00823E36056
:105B6C004FF44043019302F041FF019B2046A36098
:105B7C0001A9FEF731FF0028E7D1019B9845E2D33C
:105B8C00E8B23B60307000207070DEE76FF08B0085
:105B9C00DBE700BF004E80004B4E8000127100010D
:105BAC0003004E8009060006002400010023F0B516
:105BBC000B608DB005460E46FEF7AAFE002800F0DD
:105BCC000681844803F017FF034620B16FF08F0461
:105BDC0020460DB0F0BD05F140421F2A63D82C239E
:105BEC007D4903FB02110B7F022B02D14B699D42B5
:105BFC006CD031460020FFF7D3F9044600287DD144
:105C0C000127336801465D6133681C225F6035688B
:105C1C0005A802F00DFC6B69704903F14042A2F536
:105C2C0080528A42CDE9024400F2C8806C4A934209
:105C3C0068D03A4493426ED0023A934266D0DFB2B7
:105C4C00384604A903F0BCFE0446002840F09180BD
:105C5C00BDF81230C3F3C113013BDBB2022B00F2CF
:105C6C00A780604AD25C604B13436A69069313F0B9
:105C7C00FF030A9200D00A9B0A9300233846194668
:105C8C00CDE9003305AAFFF723FF10F18A0F044674
:105C9C0046D03068002C6CD103F02FFE6FF09604C8
:105CAC00002333602AE0002D1EDD4B4A1146107F85
:105CBC00022802D15069854205D00133202B02F114
:105CCC002C02F4D195E72C2202FB0311084603F0B9
:105CDC00E0FC044670B931603E4803F090FE0028A9
:105CEC007FF474AF002473E73A4803F088FE6FF03A
:105CFC0087046DE710F18C0F3FF47BAF354803F050
:105D0C007EFE65E70A93394B0693B4E70A93374B4B
:105D1C0027460693AFE70A93344B02270693AAE76C
:105D2C00069B33491A0AB1EB132F02D0314B9A421E
:105D3C003ED102A905A8FEF74FFE0446C8B9284675
:105D4C000299FEF7CFFD044698B903AB0193AB6AF9
:105D5C002146009338466B6A05AAFFF7B9FE044644
:105D6C0070B1686A10B1A96AFEF7AEFD0023C5E9EF
:105D7C000933306803F0C1FD14F18C0F90D120E091
:105D8C00039B05ACAB620FCC0FC594E8070085E80C
:105D9C0007003068083002F029FE33681A7F012AA8
:105DAC0012D0306803F075FC0446002894D077E7D5
:105DBC00306803F0A2FD6FF0860471E7284603F00B
:105DCC009CFD6FF087046BE702221A77E9E76FF00E
:105DDC008804FDE6A8020020B02B0020FFDFFF3F67
:105DEC0002C0FF7F2ABE0000004B4E8003004E8095
:105DFC00004E80004B4E80000C22104B014602FBE3
:105E0C000033002030B4D3E90E529863EFF31180C5
:105E1C00202484F31288BFF36F8F1C6C04F0C00431
:105E2C0044F002041C6480F31188BFF36F8F1DB122
:105E3C002B4630BC0248184730BC70472425002044
:105E4C0038A10000154B9A6A12F0007F9A6A14BFB1
:105E5C001E201D2012F0807F9A6A18BF1F2012F49A
:105E6C00801F9A6A18BF202012F4002F9A6A18BF5C
:105E7C00212012F4802F9A6A18BF222012F4003FBE
:105E8C009A6A18BF232012F4803F9A6A18BF242004
:105E9C006FEA02426FEA12429A62704700ED00E02C
:105EAC0010B5194B0246986A9C6A10F4805F14BFB7
:105EBC001720162014F4006F9C6A18BF1820A40534
:105ECC0009D5986B986A000404D51AB19A6A22F421
