:10000000A05600205D210000D979000049210000A0
:100010004921000049210000492100004921000038
:100020000000000000000000000000002D22000081
:100030004921000000000000492100004921000082
:100040008123000081230000812300008123000020
:100050008123000081230000812300008123000010
:100060008123000081230000812300008123000000
:1000700081230000812300008123000081230000F0
:10047C0053B94AB9002908BF00281CBF4FF0FF31FF
:10048C004FF0FF3000F00CB8ADF1080C6DE904CE64
:10049C0000F008F8DDF804E0DDE9022304B0704751
:1004AC00704700BF2DE9F04786468C460846089EEB
:1004BC00154674461946002B40F0C1808542B2FAAD
:1004CC0082F245D94AB1C2F1200300FA02FC9540F0
:1004DC0094402EFA03F343EA0C0C4FEA154EA8B2E3
:1004EC00230CBCFBFEF80EFB18CC08FB00F943EA0E
:1004FC000C43994528D9EB1808F1FF3704D29945DC
:10050C0002D9A8F102072B44A3EB0903A4B2B3FB55
:10051C00FEFC0EFB1C330CFB00F044EA0344A0422F
:10052C0014D92C190CF1FF3304D2A04202D9ACF12E
:10053C0002032C44241A43EA07401EB1D440002382
:10054C0034607360BDE8F0874746DDE76346F1E74A
:10055C0092BB431B01214FEA154EAFB2200CB3FBEB
:10056C00FEFC0EFB1C330CFB07F840EA03439845DA
:10057C0061D9EB180CF1FF3004D2984502D9ACF1DB
:10058C0002002B44A3EB0803A4B2B3FBFEFC0EFB4E
:10059C001C330CFB07F744EA0344A7424DD92C1932
:1005AC000CF1FF3304D2A74202D9ACF102032C4464
:1005BC00E41B43EA0040C0E7C2F12003954094409D
:1005CC0020FA03F12EFA03F34FEA154E9040AFB226
:1005DC000343B1FBFEFC0EFB1C10190C0CFB07F8C3
:1005EC0041EA0041884522D969180CF1FF3004D248
:1005FC00884502D9ACF102002944A1EB08019BB259
:10060C00B1FBFEFC0EFB1C110CFB07F743EA01438C
:10061C009F420ED9EB180CF1FF3104D29F4202D944
:10062C00ACF102012B44DB1B41EA004193E760462D
:10063C00E3E76146F7E76046A4E76346B8E7834221
:10064C0006D916B9002108467CE7C6E900E0F9E7AF
:10065C00B3FA83F78FB9834201D3724508D8BEEB46
:10066C00020460EB030301209C461EB9002169E7DC
:10067C003846FAE7C6E9004CF8E7C7F1200CBB4056
:10068C000EFA07F522FA0CF42EFA0CF1BA401C43C0
:10069C0020FA0CF3B8404FEA144901431FFA84FEC8
:1006AC00B3FBF9F809FB18300B0C08FB0EFA43EA04
:1006BC0000439A4540D9E31808F1FF3004D29A451B
:1006CC0002D9A8F102002344A3EB0A0389B2B3FBBD
:1006DC00F9F809FB183308FB0EFE41EA03418E457D
:1006EC002CD9611808F1FF3304D28E4502D9A8F138
:1006FC000203214443EA0040A1EB0E01A0FB029847
:10070C004145CE46434602D306D14D4504D201386D
:10071C00B9EB020E68EB0403002EA7D0B5EB0E026A
:10072C0061EB030101FA0CFC22FA07F3F9404CEAE5
:10073C000303C6E9003199E74046C5E74346D9E7CC
:10074C0070B54921264886B007F09DF806F086FC66
:10075C0003A800F073FC234B1B68834204D0452193
:10076C00214807F090F8FEE7059A49211F4807F049
:10077C008AF803991E480A7D4B7DC98A009149214C
:10078C0007F081F849211B4807F07DF802A99DF874
:10079C00100000F033F8029B059C1C44039B1D8940
:1007AC0000F0B0FF661900F091FF07F089F901F035
:1007BC00FFFF01F0FDFC002383F30B8883F30A8811
:1007CC00625982F3088883F31488BFF36F8FBFF3E9
:1007DC006F8F736898474521074807F054F8FEE778
:1007EC0072BA0000700200208BBA0000AEBA000092
:1007FC00DDBA0000FBBA000020BB0000024608B5C1
:10080C0038B105480023452107F03DF86FF015007D
:10081C0008BD0860FCE700BF43BB000021B1012903
:10082C0006D06FF015007047044B53F8300070473A
:10083C00024B03EBC0035868704700BF28A20000AE
:10084C0010B5044606F00BFC2046BDE810400149EB
:10085C0007F03FBE0B0000022DE9F04F9B46ADF5B3
:10086C00517D7F4B03903DA8DDE9DB890E46144694
:10087C00DD9F1D68FFF7E4FFB8F1000F07D0B9F159
:10088C00000F04DD4A4641463DA807F042FE4FF0FA
:10089C00000833897289D6F80CA013449A44C245D7
:1008AC006AD8002340222D931DA92DAB3DA807F03B
:1008BC0044FE3DA807F002FE27B1402238461DA990
:1008CC0007F0E7F800232246009331464FF6FF73FA
:1008DC0007A806F0CDFB074600285DD121460398FA
:1008EC000C9E00F05BF9864256D84FF0FF36DFF8CD
:1008FC0074B1DFF874A10DF1120304AA05A907A8BD
:10090C0006F004FC002847DB40F0A380059907A8FB
:10091C0006F048FC50B94FF6FF71BDF81200534A6F
:10092C0032F8023B8B4237D09842F9D1BDF81230E5
:10093C00122B3BD0242B6ED0012BDCD1BDF8103008
:10094C00402B29D8204605990DAA06F0AAFF064689
:10095C0010BB9DF81080B8F1400F0AD8DAF80030BF
:10096C00DFF80C910393039B3DA89E4235DB07F007
:10097C00A5FD4FF0FF36BEE7DA9BAAEB08099945B7
:10098C0028BF99465A464B464146204606F089FFF9
:10099C0028B13DA807F092FD314B1D685BE04A463B
:1009AC0059463DA807F0B5FDC84478E7BDF810706E
:1009BC00402FF1D13B46204605990DAA06F071FF58
:1009CC000028E9D13A460DA91DA806F0F9FBDBF881
:1009DC0000308342E0D101278DE7FFF731FFD9F8D2
:1009EC0004303DA81A6859F8081B07F092FD002343
:1009FC00402206932DA906AB3DA807F09EFD42466A
:100A0C000DA92DA807F035F818B93DA807F056FD2B
:100A1C0071E70136A7E7731C3FF46DAFDAF80030CD
:100A2C00B342A6DDBDF81050402DB5D12B46204663
:100A3C0005990DAA06F035FF0028ADD1F6B229466E
:100A4C00BDF8103000960DAA1DA800F05FF8054601
:100A5C008FE7002FA0D028460DF5517DBDE8F08F13
:100A6C00440000207002002030A2000044BA0000B4
:100A7C0034A20000F0B5214C0E4654F8331004EBB0
:100A8C00C30489B063680091054618681746014491
:100A9C003023684601AA06F08FFD18B1184B186870
:100AAC0009B0F0BDDDE900431C442146684605ABA6
:100ABC0002AA06F0A9FD0028F0D1039A032AEDD171
:100ACC001049049806F0D5FF0028E7D12146684666
:100ADC0001AA06F085FD0028E0D1DDE90032991865
:100AEC008C42DBD1202AD9D13A463146284600F037
:100AFC0097FD0028D2D0044BD1E700BF34A20000F0
:100B0C004400002069BB00007002002010B5064CA8
:100B1C004029246806D1402B04D19DF80830FFF7FA
:100B2C00A9FF0446204610BD44000020094A40009D
:100B3C000B7852F820108B4209D0013052F820006B
:100B4C00834214BF4FF0FF304FF4407070474FF4A6
:100B5C00407070473CA200001FB5582303FB0100F6
:100B6C00046A1023A1686A462046103906F099FEE3
:100B7C00034640B122784521064806F084FE002445
:100B8C00204604B010BD10226846034906F071FFE0
:100B9C00F6E700BF6DBB000062BA000013B5084653
:100BAC000C4606F014FB6A460146204606F03DFA58
:100BBC0030B10448452106F066FE002002B010BD9D
:100BCC000098FBE799BB00002DE9FF412C2707FBA0
:100BDC0001073D6A0446284690460E4606F0AAFEDA
:100BEC007B1EFA1C13F8011F814224D19A42F9D1C1
:100BFC00BEB12946204606F0DCFB98F80730042BE2
:100C0C000AD12046216A06F0D4FB024648B9492194
:100C1C00224806F038FE04E0002002F057FB0428BE
:100C2C00EFD01F4B186804B0BDE8F0811D4B18685D
:100C3C0025E01D4A2FE02C237343E1180869C206F6
:100C4C00D6D4E258194B9A42F0D1CA680B899B183A
:100C5C00ECD24A89D218E9D2AB689A42E6D240F675
:100C6C000C630340E2D1CDE9023301934FF480735E
:100C7C002A460093394620460D4BFFF7EDFD0D4BF0
:100C8C001B688342CFD0002ED3D0AA6800212846FF
:100C9C0006F031FE084A45210848BAE7E6BB0000D9
:100CAC004000002044000020D4BB00003DB8F39667
:100CBC00981D002070020020DCBB000025BC000049
:100CCC0073B50D46002104462846CDE9001106F007
:100CDC002FFB28B323681A4EB34203D1204601AA36
:100CEC0006F09DFAE36AB34204D16A46012120461C
:100CFC0006F095FADDE90032934288BF0193019B1F
:100D0C00AB60019A2946204600F092FB0D4B1A6805
:100D1C00002A03DD57210C4806F0B5FD02B070BD6A
:100D2C0001462046FFF718FF064605F1080106F0BC
:100D3C0059FAAB683046019306F0B2FDE1E700BF0B
:100D4C003DB8F396D41600204DBC00002DE9F04BB5
:100D5C000E46904699460024099FDFF844B0BC42E9
:100D6C0001D300200EE03D1BB5F5806F28BF4FF47A
:100D7C00806530462B460A4A04EB090106F091FDCA
:100D8C0010B10120BDE8F08B08992B465A4640461D
:100D9C00611806F09BFD0028F3D12C44DFE700BF5F
:100DAC0074020020F0B50E4600219B4B04464362B2
:100DBC0003F50063036589B00846FFF72FFD04F1C6
:100DCC0020010546C0B201F027F80346E8B901211D
:100DDC00FFF724FD04F14C010546C0B201F01CF8EC
:100DEC000346E0B9204606F078FA0546C8B9002259
:100DFC002046114606F05BFA054668B300225721DF
:100E0C00864806F040FD01239FE00022CDE9002337
:100E1C00452100232A46824806F035FDFEE70122D3
:100E2C00F4E74FF4807257217E4806F02CFD012325
:100E3C009D4284F85830DAD194F85830042B8DF850
:100E4C00173000F28580012B00F2898000F09C8025
:100E5C00FF2384F8583097E0204600F0F1F9002881
:100E6C00D1D004A806F05BFA0146204606F0EDFA54
:100E7C0018B12A4657216C48C3E704A806F058FA63
:100E8C0080F0010104AA2046C9B206F010FA02460D
:100E9C000028B3D104A806F04BFA054660BB2046E7
:100EAC0004A9FFF70DFF9DF8173084F85830033B69
:100EBC00012B06D8284600F0E7F810B1FF2384F880
:100ECC0058309DF81730023B022B0BD8002000F055
:100EDC00C5F838B1FF2384F858304521534806F043
:100EEC00D2FCFEE794F85830FF2BF6D000222046B7
:100EFC00114606F0DCF986E79DF81770012F18D122
:100F0C00104602F0E3F9831E022B05460ED8394633
:100F1C00204604AAFFF758FE454B1B68984205D0A3
:100F2C00444B1D68A84214BF0525012584F8585070
:100F3C0082E70121204604AAFFF746FE3C4B1B68C2
:100F4C00984214BF05239DF8173084F8583073E786
:100F5C00052B7FF47DAF002000F096F811E02046C1
:100F6C0004A9FFF7ADFE94F85830DA1E012A14D804
:100F7C00002000F089F800287FF46AAF002000F010
:100F8C006DF800287FF464AF94F85830FF2B07D12C
:100F9C004521264806F077FCFEE7022BF4D1EDE75D
:100FAC000022012B244D039214D01146204606F04A
:100FBC007EF978B12D68102200210DEB020006F0AD
:100FCC0073FDE06C06F06CFC206A06F069FC2846A8
:100FDC0009B0F0BD002220461146FFF7F5FD144F75
:100FEC003B689842E6D12B689842E3D0114B1B68C2
:100FFC009842DFD0039B01330393039B012B00D05A
:10100C00FEE7206A06F00FF83071236A5B683460E3
:10101C003D68B360CFE700BF740600200BBD000035
:10102C007CBC0000C9BC000037BD000061BD0000E5
:10103C0070020020400000204400002038B5064D0E
:10104C00044660220021284606F02EFD2146284643
:10105C00FFF7A8FE38BD00BF7416002013B5094B6E
:10106C0001A913F8300000F0D7FE48B9019806F03A
:10107C00B7FF0446019806F013FC204602B010BDE1
:10108C000124FAE744A200001FB50F4B01A913F885
:10109C00300000F0C1FEA8B9019802A902F0C0F816
:1010AC00044668B99DF80B30032B03D1019806F068
:1010BC0065FF0446019806F0F3FB204604B010BD12
:1010CC000124F7E70124F8E744A200002DE9F341DD
:1010DC0006460C4617461D460BB9002121E0184662
:1010EC0006F026F901460028F7D13046FFF734FD0B
:1010FC0018B9012002B0BDE8F08101A906F072F820
:10110C000028F6D10199304606F0EDF9736A59685A
:10111C006B79012B18D1002CDFD12B68834298BF3F
:10112C0000212C2303FB04663A462023306A06F088
:10113C00B8FB0028DDD1002DDCD038680D4BC01A6F
:10114C0018BF4FF0FF30D5E7022BC6D12B68012B0F
:10115C0005D98342C1D8B4FA84F46409BDE7BCD183
:10116C00002CDED0012CB8D12C79023C18BF012404
:10117C00B3E700BF3DB8F3962DE9F04F07460C4698
:10118C0085B0014600201646FFF7D0FC051E51DB4A
:10119C003846E46D06F01BF85FFA84F94FF0000A4C
:1011AC004FF0010B4FF0FF346B1E09FB03089DB988
:1011BC00BAF1010F03DD4521204806F064FB631CE6
:1011CC0006D0FF2C2ADC40F2011301343460B380CA
:1011DC00284605B0BDE8F08F6B1E009341460123F5
:1011EC0038460DF10F0206F05CFB031E019323DB66
:1011FC00012238460DF10F0106F05AFE019B40B159
:10120C005B4501D00AF1010A9B46009DA8EB090839
:10121C00CDE7B4F1FF3F08BF2C46F5E70223A4F558
:10122C0080747371631004F0010401330134336072
:10123C003471CDE70725CBE70125C9E76DBD00006B
:10124C00F8B5866A456D044606F03CF9AE420AD004
:10125C006B1CB34207D0834205D05721174806F0C8
:10126C0012FB0020F8BDB6F5807F19D95721144820
:10127C00F5E7626A02EBC3025768226D02EBC30208
:10128C005268974202D057210E48E8E701339D423D
:10129C00EFD1204606F002FA28B957210A48DEE7BA
:1012AC0000231F46F3E7AE4205D9636A03EBC5037F
:1012BC005B68BB42E7D10120D4E700BF90BD0000C2
:1012CC00C8BD0000F7BD000023BE000010B588B0FB
:1012DC00044604A9006A01F0A3FF9DF81020012A1E
:1012EC0040D0254B2549032A08BF0B469DF81320F7
:1012FC00492102929DF81220214801929DF811205B
:10130C000092204A06F0BFFAE06C06A901F088FFB3
:10131C009DF81820012A27D0174B1849032A08BF1B
:10132C000B469DF81B20492102929DF81A20144867
:10133C0001929DF819200092134A06F0A4FA9DF828
:10134C001030012B12D19DF81230032B0ED19DF8C9
:10135C001830012B0AD00D48492106F094FA0220CE
:10136C0008B010BD0A4BC1E7094BDAE7094849211F
:10137C0006F089FA0020F3E75CBE000065BE0000B1
:10138C0079BE00006BBE0000BABE0000CABE0000F1
:10139C0060BE0000E9BE000070B54B6814461E4AE2
:1013AC0003F0FF23934206460D4686B02FD10B68FF
:1013BC00012B2CD1204604A901F032FF9DF81020FE
:1013CC00012A26D0154B1649032A08BF0B469DF857
:1013DC001320492102929DF81220124801929DF887
:1013EC0011200092104A06F04EFA9DF81030032B93
:1013FC000DD12146304605F0DCFF204606F0BEFD3F
:10140C002046A96805F0FCFE204601F0E9FE06B076
:10141C0070BD064BDBE700BF000100045CBE0000A2
:10142C0065BE000079BE0000BABE000060BE0000C0
:10143C002DE9F04F1646054689B00C4674484921F3
:10144C0006F021FA3146284606F04DF86B6A8246C2
:10145C0020465E6805F06CFFE8B1E86D05F0B2FE61
:10146C000023AF6A013F3344984201D9013FFAE7A8
:10147C00BA4510D35721674806F005FA07FB06F367
:10148C0057210AFB0662644806F0FDF90123E3715B
:10149C0009B0BDE8F08F06A9032000F0BDFC07A938
:1014AC00062000F0B9FC21462846079AFFF774FF86
:1014BC006379012B4BD15746DFF860B141E02268CC
:1014CC00C2F1010353449F423AD86B6A012A19684E
:1014DC0053F8370003EBC70353F8083CA0EB0109A2
:1014EC00A3EB0103049311D1079B0393E368022B35
:1014FC0008D04146284605F05CFF22464146284666
:10150C0005F084FF2846039905F053FF32464946FF
:10151C00404605F04CFF049B424641462846CDE927
:10152C000096FFF713FC2146284605F00EFF2368B2
:10153C000133236020B1DBF800300133CBF80030ED
:10154C00013FDDF81880002FB9D10123236002235D
:10155C0001276371BA45DDF8189006D2484606F0AB
:10156C009FF9079806F09CF992E723689F424DD3A8
:10157C006A6AFB0052F83710083B04911168DDF8D9
:10158C001CB00391D1582A6DD0581368A0EB0308F6
:10159C002379012B38D1039B3246C91A4846059151
:1015AC0005F005FF059943464A46009128465946E1
:1015BC000196FFF7CBFB2146284605F0C6FE022319
:1015CC00237118B1154A1368013313603246414632
:1015DC00584605F0ECFEDDE9032349469B1A2846E4
:1015EC005A46CDE90086FFF7B1FB2146284605F0A7
:1015FC00ACFE2368013323600123237130B1074A09
:10160C0013680133136001E0022BDFD00137A1E72F
:10161C0000BF000029BF000058BF0000D4160020F6
:10162C002DE9F0418AB005460E46174600211C22D2
:10163C0003A81C4606F038FA03F030FD024640B110
:10164C0045211D4806F01FF9002420460AB0BDE8CC
:10165C00F08144F24213ADF80C304FF40063DFF824
:10166C005C802146CDE90538202202AB03A803F0AB
:10167C00E1FB044618B1024645211148E2E740233C
:10168C002A46CDE9007341463346029806F066FFC0
:10169C00024670B145210B4806F0F5F8029803F0AC
:1016AC009BFB02460028D0D05721074806F0EBF8E8
:1016BC00CBE70124F2E700BF89BF00000008000659
:1016CC00A9BF0000CBBF0000F9BF0000BFF36F8FB4
:1016DC0072B600234FF0FF30094A03F120010133A9
:1016EC00102B42F82100F8D100234FF0FF30044AB0
:1016FC0003F160010133102B42F82100F8D170473F
:10170C0000E100E0F8B54FF0FF3600250127184C3A
:10171C00C620C4F8086300F0A3FDE762C4F850517A
:10172C00D4F85031C4F84C51D4F84C31C4F824518D
:10173C00D4F82431C4F8005504F578344FF4827091
:10174C00C4F8086300F08CFDE762C4F85051D4F87B
:10175C005031C4F84C51D4F84C31C4F82451D4F85D
:10176C002431044BC4F80055C3F80863F8BD00BF1E
:10177C0000600C5000E01050014B1B68184700BF74
:10178C0048000020014B1860704700BF4800002043
:10179C0007B50B46002102460091034800F006F8FD
:1017AC0003B05DF804FB00BF851700002DE9F04F76
:1017BC0082464FF000098DB01D46531E01910393D4
:1017CC00039B58785C1C252819D100204FF0FF385A
:1017DC001E46444603460236029031780396392958
:1017EC0055D81F2914D8002900F0EF810199252024
:1017FC00D04701993078D04709F10209E0E7002879
:10180C0000F0E3810199D04709F101090394D7E76E
:10181C00A1F12002192AE9D801A757F822F000BF3C
:10182C0095180000F9170000F91700009518000032
:10183C00F917000015190000F9170000F91700003E
:10184C00F9170000F9170000611900009518000045
:10185C00F91700007519000021190000F917000094
:10186C002F1900004F1900004F1900004F190000EC
:10187C004F1900004F1900004F1900004F190000BC
:10188C004F1900004F19000008460136A5E75829EA
:10189C0000F0EB80A1F16302D7B2172FA6D8172A5C
:1018AC00A4D801A757F822F01D1B00009B190000BB
:1018BC00F9170000F9170000F91700007B19000058
:1018CC009B190000F9170000F91700007B190000A4
:1018DC00F9170000F9170000F9170000511A000061
:1018EC00F9170000F9170000F11A0000F9170000B1
:1018FC009B190000F9170000F9170000511A00009D
:10190C00F91700007B19000025200199D04709F137
:10191C00010955E7029A4FF0000802F0FE0202920C
:10192C00B3E7002C0DDAB8F1000F0DDA029A002A99
:10193C0000F043810A2224EAE47402FB0414303CD4
:10194C00A3E7B8F1000FF5DB0A2202FB0812A2F1A3
:10195C0030089AE7B8F1000F55F8042B80F22F816C
:10196C00002A80F22E815442022202928DE76829CD
:10197C0003D1682B06D1482387E76C2902D16C2B45
:10198C0000F02181002B7FF431AF0B467DE77A2BE1
:10199C0006D1752955F8046B14D14FF0000B0CE0EF
:1019AC006C2BF6D04C2BF4D1073525F00703752999
:1019BC0003F10805D3E9006B06D120283BD1854FF4
:1019CC00013C09E04FEAE67BBBF1000FF5DA764209
:1019DC00814F6BEB4B0B013C0DF12D030593002359
:1019EC000493304659460A220023FEF741FD059B1D
:1019FC00B446303203F8012D5A460593049BBCF1D2
:101A0C000A0F8B4672F1000203F1FF310646049176
:101A1C00E7D2C3F1010B30330DEB0306B8F1000F25
:101A2C00A6F104066DDA029BD9077DD4A8EB0B0353
:101A3C00A4EB0B0413E02B280ABF684F684F04F18A
:101A4C00FF34C9E770290FD155F8042B0023FAB9DC
:101A5C006FF004034FF0050B614F624E053C029A88
:101A6C00920770D4A04666E078216C2B03D100233A
:101A7C0055F8042B08E04C2BF9D1073525F007035A
:101A8C001D465B6855F8082B232825D1880621D5DF
:101A9C00554F023C002601F06001A1F1390B0DF10C
:101AAC002D0E02F00F01092988BF594430310EF870
:101ABC00011D102A4FEA121141EA03714FEA131C5F
:101ACC0073F1000306F1FF3008D2C6F1010B06F1E9
:101ADC003003A1E7454FDCE7414FDBE706460A46FA
:101AEC006346DEE755F8046B304605F0BBFFB8F1F2
:101AFC00000F834602DB4045A8BFC3464FF00008E9
:101B0C00374FA8EB0B03002B92DDA4EB0804A6E7E0
:101B1C0055F8043B4FF0010B8DF81830304F4FF057
:101B2C00FF33013C06AE9AE7A046EAE70293202079
:101B3C000199D047029BB8F10108F7D524EAE47269
:101B4C00013C9144A41AB84606E004930292019910
:101B5C00D047029A049B9046424612F8010B00288B
:101B6C00F3D11A46013A15D5002BACBFC7EB0307CE
:101B7C007F425B46013B15D5BBF1000FA8BF5F440C
:101B8C0026464F44013E14D5002CA8BF3F1907EB45
:101B9C00080915E60493029230200199D047049B62
:101BAC00029ADFE70293019916F8010BD047029BCA
:101BBC00E0E701992020D047E4E70122D5E69046E2
:101BCC0063E6144661E64C235FE648460DB0BDE87B
:101BDC00F08F00BF51C000004FC0000053C0000088
:101BEC00A8BF00005BC0000055C0000058C000003A
:101BFC002DE9F047058B04462807904611D402299D
:101C0C0005F0070540F0CC80204605F064FD78B166
:101C1C000138218B042811D8DFE800F0C2106D8543
:101C2C00950001290CBF45F0100545F020052583D2
:101C3C0088F31188BFF36F8FBDE8F08701F0070AB6
:101C4C00AA4500F0A5800027B9463E46A368002BA4
:101C5C0000F0BC8041F00801218388F31188BFF3A8
:101C6C006F8FA168002900F0BA800D68002900F080
:101C7C00B680334652462046D1F80480C047002D2A
:101C8C0076D02B6829461D46F0E701F007035A1F52
:101C9C00012A1BD8002221F00701062B276889B2E4
:101CAC00C4E9002209D13B4603E0628B0132628316
:101CBC001B68002BF9D141F002012046218305F06D
:101CCC000AFD00287AD041F0200176E0042B0AD1DD
:101CDC0021F0070189B22046218305F0FCFC10B1EC
:101CEC0041F020012183218B01F0070AAA454FD036
:101CFC000027B946AAE7236921F0070141F0060144
:101D0C00062DD3F8009021832DD1B9F1000F3FD0CF
:101D1C0041F00801218388F31188BFF36F8F2046AF
:101D2C003949C84729E021F00701236941F0040132
:101D3C0089B2042DD3F804902183E6D000274FF00C
:101D4C00040A3E4682E721F00701236941F00501B0
:101D5C0089B2052DD3F808902183D6D000274FF0F7
:101D6C00050A3E4672E700274FF0060A3E466DE72D
:101D7C002B4687E7B9F1000FD1D1EFF3118820235F
:101D8C0083F31288BFF36F8F238B23F00803238315
:101D9C00258BEA062ED525F01003238305F00705C5
:101DAC006669218B002EBFF670AF00232768C4E94B
:101DBC00003321F0070141F001012183218B4FF009
:101DCC00000901F0070AAA457FF440AF002F9CD010
:101DDC0041F00801218388F31188BFF36F8F002F26
:101DEC00C8D03D68394633465246204605F09FFC24
:101DFC002F46F4E7AB067FF51BAF25F020032383BA
:101E0C0005F0070500E700BF67770000014B036092
:101E1C000020704750A2000070B5104B0D461C6896
:101E2C00B4B10F4B196800238B4202DB6FF0010039
:101E3C0070BD224612F8106B864202D01446013354
:101E4C00F2E7E06806F0A8F928B100202C60EFE773
:101E5C006FF00C00ECE76FF01200E9E74C0000208B
:101E6C0050A2000010B5436888B0029383680C46FA
:101E7C00CDE9033200230A68C068CDE90623054981
:101E8C0001AA059305F0D8FE079808B9059B2360B5
:101E9C0008B010BD4F79000008B5054805F00EFCE0
:101EAC00044805F00BFCBDE80840034805F006BCEF
:101EBC0061C0000092C00000C5C0000030BFFFF739
:101ECC00FDBF00BF154B9A6A12F0007F9A6A14BFCF
:101EDC001E201D2012F0807F9A6A18BF1F2012F45A
:101EEC00801F9A6A18BF022012F4002F9A6A18BF3A
:101EFC00212012F4802F9A6A18BF222012F4003F7E
:101F0C009A6A18BF232012F4803F9A6A18BF2420C3
:101F1C006FEA02426FEA12429A62704700ED00E0EB
:101F2C0010B5194B0246986A9C6A10F4805F14BF76
:101F3C001720162014F4006F9C6A18BF1820A405F3
:101F4C0009D5986B986A000404D51AB19A6A22F4E0
:101F5C0000429A6219200C4B9A6A12F4806F9A6AAA
:101F6C0018BF1A20D2050CD49B6A13F4005F18BF5B
:101F7C001C20054A936A43F47F43936200230B7041
:101F8C0010BD1B20F5E700BF00ED00E010B51C4BA9
:101F9C000246986A9C6A10F0100F14BF1120102092
:101FAC0014F0080F9C6A18BF1220A40709D5586BAF
:101FBC00986A000604D51AB19A6A22F080029A62D5
:101FCC0013200F4B9A6A12F0010F9A6A18BF142053
:101FDC0012F0200F9A6A18BF1520D40658BF9B6ABE
:101FEC00074B9A6A920642BF5A6A22F400525A620E
:101FFC009A6A42F0FF029A6200230B7010BD00BF78
:10200C0000ED00E070B5444B06465B6800258AB0D5
:10201C00C3F3080385F31188BFF36F8F02F07F4081
:10202C00B0F17F4F11D102F00C0008280DD0100731
:10203C004CBF0E4601250022033B8DF80720032BD5
:10204C0005D8DFE803F01E5C60592E46F3E7002448
:10205C009DF807309BB92022314602A805F019FDE6
:10206C00099B002D53D0C3F3080222B96FEA532306
:10207C006FEA43230993204602A905F09DFC0AB0A0
:10208C0070BD254BDA6A9107E1D4DA6A002ADEDBEF
:10209C00DA6A5200DBD55A69B16942F480725A612E
:1020AC00BFF34F8FBFF36F8F5A6931F8021C22F4C4
:1020BC0080725A61BFF34F8FBFF36F8F4DF6027270
:1020CC00914209D09A6AD2B242B101200DF10701B6
:1020DC00FFF75CFF0446BBE73468B9E79A6A12F471
:1020EC007F4F05D001200DF10701FFF719FFF1E734
:1020FC009B6AB3F5803FAAD3FFF7E4FEEAE7002022
:10210C000DF10701E4E700200DF10701EDE723F4E1
:10211C00FF7323F00103ADE700ED00E0064B5A69B5
:10212C0042F010025A615A6942F480625A615A694B
:10213C0022F008025A61704700ED00E0EFF30880CE
:10214C00EFF3098101B57246FFF75CFF01BD00BFDB
:10215C00002080F31488BFF36F8F002080F30A886F
:10216C0080F30B880F4880F3088801F059F90020A0
:10217C000D490860BFF34F8F00F02CF8202080F33E
:10218C0011880A484FF40061401880F30988EFF376
:10219C0014800221084380F31488BFF36F8F00F082
:1021AC0097F80000A056002094ED00E0A026002037
:1021BC00002318460649D1F89020C2F30722934217
:1021CC0000DB7047C1F89830C1F8A0000133F6E786
:1021DC0000ED00E010B572B6002484F31388FFF70D
:1021EC00E7FF23464FF0FF300C4A03F12001013387
:1021FC00102B42F82100F8D100234FF0FF30074A92
:10220C0003F160010133102B42F82100F8D162B6C2
:10221C00BFF34F8FBFF36F8F10BD00BF00E100E025
:10222C001EF0040F0CBFEFF30880EFF309808169F7
:10223C0011F8021C0229FFD001B5724605F0C2FB51
:10224C0001BD00BF00B2002807DB01234109034A8E
:10225C0000F01F00834042F82130704700E100E09D
:10226C0000B200280CDB01220649430900F01F00D4
:10227C008240203341F82320BFF34F8FBFF36F8F81
:10228C00704700BF00E100E0054B420953F82220E3
:10229C00012300F01F0003FA00F01040704700BF4C
:1022AC0000E100E000B2002801F10101ACBF00F137
:1022BC006040064B4FEA4111C9B2ABBF00F561401B
:1022CC0000F00F0080F800131954704714ED00E073
:1022DC000B4A08B50B4B22F07F029A60BFF34F8F6D
:1022EC00BFF36F8FD3F8882022F47002C3F88820D4
:1022FC0002F034F902F078F900F02CF802F03AF917
:10230C000000000000ED00E0154680B506460C46C6
:10231C00002282F30B88094FA7F5205888F30B880D
:10232C0087F309884FF00000054988472046294665
:10233C001A46B04703488047FEE700BFA05600206E
:10234C00F1790000FF7900001022014B1A617047EF
:10235C0000ED00E00023202040F20F1210B5044CD9
:10236C00E1180133934281F80003F9D110BD00BF8D
:10237C0000E100E008B5EFF30583064A103B02EBE1
:10238C00C30152F8330049688847BDE8084005F09E
:10239C0024BB00BFFC9800000121024B024A0348F9
:1023AC0000F0ECB800F0022000000020E4A20000D5
:1023BC0010B50C7A0B6804F01F0223F01F031A43AC
:1023CC00CB68640923F01F03054943EA440343F037
:1023DC000103C1F89800C1F89C20C1F8A03010BDD1
:1023EC0000ED00E010B5074BD3F89030C3F3072392
:1023FC00013B984202D8FFF7DBFF10BD6FF01500D0
:10240C00FBE700BF00ED00E02DE9F04F0F4614464E
:10241C0006464FF000084D4D85B0B84580F29280CD
:10242C00D6F80490B9F1000F36D0B9F11F0F40F275
:10243C00878019F01F0F40F08380D6F800A01AF0A7
:10244C001F0F7DD1504605F0EBFA834609EB0A00CD
:10245C00013805F0E5FA834572D11BF1160F6FD0E8
:10246C005C456DDDC5F898B0D5F89C10C5F898B0F2
:10247C00D5F8A03021F01F0143F01F0AD6E9003235
:10248C001A44994202F1FF391ED1CA4508D131468E
:10249C005FFA8BF005F0CDFA08F101080C36BCE7B9
:1024AC003146C5F898B0D5F89C3022F01F0203F0E5
:1024BC001F031343C5F89C30E0B205F0BAFA10F1D3
:1024CC00160F3DD0441CE7E7C5F898B0D5F8A0200E
:1024DC00013B23F01F0302F01F021343CA45314690
:1024EC00E0B2C5F8A030E8D005F0A3FA10F1160F51
:1024FC0026D0C5F898B0D5F89C209DF808300AF184
:10250C00FF3A62F304038DF80830D5F8A0309DF83B
:10251C0008205B0863F347128DF80820D6E90032D7
:10252C001344009323F01F035344A3EB090301301E
:10253C0023F01F036946C0B20393FFF753FFBEE7B6
:10254C006FF01504204605B0BDE8F08F00ED00E0FB
:10255C000522044BC3F89420BFF34F8FBFF36F8F4A
:10256C00704700BF00ED00E0BFF35F8F0022024B0D
:10257C00C3F89420704700BF00ED00E010B5034C89
:10258C002278FFF741FF207010BD00BF981E00207D
:10259C00F0B54149414CD1F890302568C3F307237D
:1025AC009D4287B075D80020FFF7DEFF3C4BC1F889
:1025BC00C030854216D13B4C01A82570FFF726FC94
:1025CC0000250646384FAE4213D1002023783249FD
:1025DC00D1F89020C2F30722934254DBFFF7B8FFE7
:1025EC0000202FE0616801EB0011FFF7E1FE0130E4
:1025FC00DFE70199280101EB0513DA683A40B2F5DF
:10260C00001F21D0B2F5800F2BD0B2F5801F38D12E
:10261C005A689B680958013B22F01F0003440120B3
:10262C00844623F01F0340EA4C10CDE902218DF8BB
:10263C00100002A920780593FFF7D4FE00281DDABC
:10264C006FF0150007B0F0BD5A689B680958013B44
:10265C0022F01F0003444FF0020C012023F01F0353
:10266C00E1E75A689B680958013B22F01F000344BC
:10267C004FF0000C022023F01F03D4E72378013322
:10268C00237001359FE7C1F89830C1F8A0000133E1
:10269C009EE74FF0FF30D5E700ED00E0F0A2000020
:1026AC00AAFF4400981E00200000F0FF08B5024865
:1026BC0005F004F8FEE700BF02C10000014B1860F2
:1026CC00704700BF5000002008B5284A284B1A60FC
:1026DC0000F066F841F6F8732648D0F82416C1F3DA
:1026EC00080203EA5133132182F48072883201FB11
:1026FC000233214A590ADB0548BF0131C2F80419DB
:10270C00D0F820364FF47A60C3F30801C3F30943C1
:10271C00434342F21C5081F4807101F2172100FBFB
:10272C0001334FF47A701B0AB3FBF0F100FB113349
:10273C00B3F5FA7F28BF01310E4BC2F81C17D3F842
:10274C0040131C290CD1D3F84433012B08D134236A
:10275C00C2F82436D2F83C3623F40023C2F83C36B7
:10276C000122054B0020C3F8002608BD0020A1075C
:10277C006000002000C0FF000000125048B1054B63
:10278C00054A1B68B3FBF2F35843044B43F00103B7
:10279C00184770476000002040420F0010A2000054
:1027AC000122024BC3F80424704700BF002008E04C
:1027BC000022024BC3F80424704700BF002008E03D
:1027CC00084B70B5C31A0D4607499B100446594374
:1027DC004022064805F080F92B4601462046BDE80C
:1027EC0070401847EC160020B76DDBB684980000DB
:1027FC00402373B50B4C0093041B0B460D460A4942
:10280C00A41061430646094A094805F090F9011ED7
:10281C0005DA30462B4602B0BDE87040184702B0CE
:10282C0070BD00BFEC160020B76DDBB6A97B0000B5
:10283C008498000010B5EFF31184202383F31288E1
:10284C00BFF36F8F074A136823F00201DB07116097
:10285C0002D4012005F0CFFB84F31188BFF36F8FF6
:10286C0010BD00BF3C17002070B5002201210446AA
:10287C0040F20510FFF716FD0F4800F0F5FE0F4B68
:10288C00984215D100F002FF26690D49304604F03C
:10289C0071FF00280BDB012535642469084904F11C
:1028AC001C0004F067FF002801DB0020E56470BD0C
:1028BC006FF00400FBE700BFC77B00000000AD0B0E
:1028CC0018A300000C22104B014602FB0033002021
:1028DC0030B4D3E90E529863EFF31180202484F3C3
:1028EC001288BFF36F8F1C6C04F0C00444F0020418
:1028FC001C6480F31188BFF36F8F1DB12B4630BC65
:10290C000248184730BC7047EC1600208498000031
:10291C0010B4EFF31182202383F31288BFF36F8F6F
:10292C001648016841F002040460C80707D482F31A
:10293C001188BFF36F8F012010BC00F0BDBE104991
:10294C00D1F80C14C903F2D5EFF3118083F312887C
:10295C00BFF36F8F0B490B6C03F0C00343F0020302
:10296C000B6480F31188BFF36F8F82F31188BFF370
:10297C006F8F002010BCFFF7A5BF00BF3C170020D5
:10298C0000E01050EC160020F8B501220646204954
:10299C00D1E8EF3FC1E8E02F0028F9D133B91D4948
:1029AC001D484B60CB608A6004F0F7FE731E012B50
:1029BC001BD805F033FC0446C0B9184B1B78ABB1DF
:1029CC0004220546164BC3F80823154FD7F84C24A0
:1029DC00D7F84C34D20312D59B0701D0012E0ED15F
:1029EC008CB185F31188BFF36F8FF8BDEFF31185B0
:1029FC00202383F31288BFF36F8F0124E5E7284669
:102A0C0004F0FFFFE2E70422054BC3F80423ECE7D4
:102A1C00E8160020D8160020081700209B2600205E
:102A2C0000E0105008B5074805F0B6FB38B1064871
:102A3C00FFF744FE0448FEF7A5FE002008BD6FF02A
:102A4C001200FBE7D4980000592A00000A2838B578
:102A5C000446074D04D1AB680D2128465B689847A6
:102A6C00AB6803485B68E1B29847204638BD00BFAD
:102A7C00D49800000023024A0020C1E900237047CB
:102A8C0000501600004870473CA30000024B0B603E
:102A9C0001231360704700BF44A30000024B034A9C
:102AAC000020C3F80C25704700B004508000008053
:102ABC0070B5174D1446A84226D8C0F5B21303F5CD
:102ACC0080539A4220D8CAB142F20103114DC5F885
:102ADC000035A9B104F0DDFFBFF35F8FD5F81834D2
:102AEC00DB0706D4C4F308041CB10123AB60BFF3AD
:102AFC005F8F4FF40052074BC3F80025002070BDC8
:102B0C00FF2104F0D1FFE7E76FF01500F7E700BFF6
:102B1C00FF4F160000B0045010461A46084B10B573
:102B2C00994209D8C1F5B21404F58054A24203D8D5
:102B3C0004F0AFFF002010BD6FF01500FBE700BFE5
:102B4C00FF4F160038B545682B69E3B110352846A0
:102B5C0001F024FA0446B0B90146284601F0E0F928
:102B6C000B4B984211D1224628460A4901F0ACF988
:102B7C0022460121DB20FFF795FB2246012140F282
:102B8C000D10FFF78FFB002038BD6FF00400FBE742
:102B9C000000AD0B292D00002DE9F04340F2063565
:102BAC004668D00648BF0320337B02EA050558BFB0
:102BBC00C2F3401087B001F01F07B5F5837F1446B0
:102BCC0047EA43178DF8030046D00FD8062D45D0A1
:102BDC0007D8B5B1022D14D06FF0150007B0BDE8C1
:102BEC00F083B5F5807FF7D101250AE040F202228F
:102BFC00954235D0B5F5407F34D0B5F5007FEBD19B
:102C0C0004250123220303FA01F12DD573685960C1
:102C1C00326972BB5F2F07F01F034FEA571175D84B
:102C2C003C4A52F8212084F4803102EB8302D2F822
:102C3C008030C1F30041C4F3404423F4706344EA90
:102C4C00410423F00F031C4344EA800444EA0524A6
:102C5C00C2F880400020C1E70925D2E70825D0E75B
:102C6C000625CEE70525CCE7630344BF736899605E
:102C7C00CEE71036394630460DF1020201F032F93A
:102C8C0014F4403F80460CD13946304605F078FAB2
:102C9C00214B9845DED130469DF8021001F08CF99D
:102CAC00D8E74FF0000901AB3946304603AACDE90D
:102CBC000439CDE90199CDF80C9000F07BFF164B4F
:102CCC00984289D114F4003315D09DF8033084F464
:102CDC008034C4F300448DF80E3039464B463046F0
:102CEC0003AA8DF80C508DF80D4001F059F80A4BE1
:102CFC009842CDD070E7CDE9043339460DF103038A
:102D0C00304603AA039300F055FFF0E7203352F846
:102D1C002330FFDE4CA300000000AD0B4209022A59
:102D2C00034670B503D0012A18D0CAB170BD0E4E3F
:102D3C00326951680029F9D0012503F01F030C6892
:102D4C009D400029F2D08A682A4002D030464B6858
:102D5C0098473CB1236821461C46F2E7034EE7E74F
:102D6C00034EE5E72346F6E7C0980000AC98000058
:102D7C0098980000F0B5406801F01F04057B87B0FF
:102D8C0044EA45140569002D63D0B2F5001F00F12B
:102D9C00100506D12146284605F0F4F9002007B0AD
:102DAC00F0BD0027B2F5800F01AE019777603BD1E3
:102DBC00B3F1007F14BF052304238DF804300023E6
:102DCC00CDE904630393836823FA01F111F0010147
:102DDC001CD1B2F1A07F19D104F01F035F2C4FEA74
:102DEC00541003F120033AD81E4A52F8202052F80E
:102DFC002330DB070AD40DF1030632462146284660
:102E0C0001F070F8184B984219D0029621462846CA
:102E1C0003AA00F0CFFE154B98421DD1012221468A
:102E2C00284601F0E1F8B9E7B3F1C06F05D0B3F172
:102E3C00007F14BF01230223BFE70323BDE7314604
:102E4C00284601F0C5F8094B9842DED06FF00B0014
:102E5C00A5E76FF08500A2E76FF015009FE751F82A
:102E6C002330FFDE4CA300000400AD0B0000AD0BC3
:102E7C00036803F01F025F2B02604FEA53129ABFE4
:102E8C00024B53F822000020704700BFA0A30000A3
:102E9C002DE9F04F1546064640F2FF18DFF83C913D
:102EAC00DFF83CA185B000EB8101B14203D10020D9
:102EBC0005B0BDE8F08F3368C3F3C322082AC3F30F
:102ECC00080400F284801B0E444508BF4FF0FF3409
:102EDC0019F80270192B7DD8DFE803F00D1C476040
:102EEC004A50607C7C7C7C7C7C7C7C7C7C7C7C7C90
:102EFC007C7C636D7073C5F80446621C3CD04FF04B
:102F0C00010B03A80394FFF7B3FF039B0BFA03F326
:102F1C00436005E0C5F80C46601C2DD04FF0000B4B
:102F2C005A463368039403F40040002818BF00226B
:102F3C0003A818BF4FF0010B01930092FFF798FF05
:102F4C00039C019B00EB8400D0F88040C3F3412C20
:102F5C00009A3B0243EA8C03134304EA0A0423431A
:102F6C0043EA4B03C0F8803006E0C5F81046C4E7CE
:102F7C00631CC5F8004627D1043696E7601CC5F8DB
:102F8C000446F9D04FF0010B03A80394FFF770FF30
:102F9C000122039B02FA03F38360C2E7C5F80846DB
:102FAC00BAE7C5F86045621C3368E5D0C3F300434B
:102FBC00002BE7D0A3E7C5F86445F4E7C5F86845EE
:102FCC00F1E7C5F86C45EEE74FF0000BDCE76FF06E
:102FDC0015006DE76FF085006AE700BF5CC100006B
:102FEC00F0F0FCFF2DE9F04104460D46476805F072
:102FFC0015F980B9254B1B786BB14FF0200864266E
:10300C0063681B68D3F830316BBB012004F0F1FF0F
:10301C00013EF5D1F3E72021EFF311831A4681F33A
:10302C001288BFF36F8F60680068D0F8300120B948
:10303C0083F31188BFF36F8FEEE77B6A00201D705E
:10304C006368796A1B68C3F83C170121C3F8401701
:10305C00C3F83001D3F83001196582F31188BFF33E
:10306C006F8FBDE8F081EFF311831A4688F3128855
:10307C00BFF36F8F61680968D1F830110029DCD17A
:10308C0083F31188BFF36F8FB9E700BF9B26002035
:10309C0073B514461D46684601F06EF8009BA342BA
:1030AC00019BAB4114D30B4AD2E90061A41B24F061
:1030BC001F0365EB010064099B1941EB000144EA15
:1030CC00C060C2E9003102B0BDE8704001F0D6BA70
:1030DC0002B070BDE001002010B500220121E420F7
:1030EC00FFF7E0F8134A0020D2F8183723F44033E6
:1030FC0043F40033C2F8183701F070F80E4B044655
:10310C00984208D101200D4901F0F6F8A04205D0F3
:10311C000B4B98420AD04FF0FF3010BD6722094B81
:10312C0002201A60FFF730FC0020F6E76FF00B006E
:10313C00F3E700BF00200E500000AD0B5C00002038
:10314C000200AD0B6C17002007B5684601F014F8AF
:10315C000098074AD2E90032C01A019B4FEA50107E
:10316C0063EB020340EAC36003B05DF804FB00BFED
:10317C00E00100207FB5431C18BF20EAE07502A8CF
:10318C0008BF6FF0004500F0F7FF02990E4B2020AE
:10319C00D3E900268C1A039961EB06032146C5FB83
:1031AC000013402973F1000436BF014621F01F01C2
:1031BC00002352184FF0010146EB03030091034822
:1031CC0001F0FEF804B070BDE001002054000020B6
:1031DC004FF40061014801F0DFBB00BF9B1E0020D3
:1031EC0030B5816885B0103921F00F04054604F024
:1031FC00A1FB10220146684604F056FC10226846DA
:10320C00064904F046FC10236A462146284604F081
:10321C005DFB003818BF012005B030BD62BA00005C
:10322C0030B50D46816887B0102302AA10390446C8
:10323C0004F037FB002802DA012007B030BD102261
:10324C00204602A904F034FE00283AD110221E496F
:10325C0002A804F00EFC00280CBF012302232B70E3
:10326C00204604F011FE012301460DF10702204611
:10327C0004F017FB0028DFDB9DF80730204603F035
:10328C000F021B096A702B7101220DF1070104F06A
:10329C000FFE10B96B78042B03D901236B7000233C
:1032AC002B71A2682046203A22F00F02103AA91C7A
:1032BC0004F011FE0028BFD12046E91C04F065FE85
:1032CC00BBE70323CBE700BF62BA0000F0B5354F74
:1032DC0085B046000546694657F8260004F05BFEAB
:1032EC00044610B1FF2005B0F0BD013657F826009A
:1032FC0002A904F050FE012837D12A4649212A4858
:10330C0004F0C1FA294B8DF80C40029300229DF871
:10331C0000609DF80870264C3146207804F0BAFD08
:10332C0050B33946607804F0B5FD28B3A378042B6C
:10333C0003D09DF8031099421ED1E378042B03D0DF
:10334C009DF80B10994217D12379042B10D1627977
:10335C00022A1DD1174B18482A46492104F093FA2A
:10336C006079831E022BBED9BCE70028CED0B9E70A
:10337C009DF802109942EAD00132032A04F10604A6
:10338C00CAD10E482A46492104F07DFA0120AAE749
:10339C00032A05D00A4B0B49042A08BF0B46DAE76F
:1033AC00094BD8E7FCA3000093C100000301030301
:1033BC0028C2000075C10000DEC1000002C200007E
:1033CC007AC100008CC1000070C10000064BD3F81C
:1033DC0040231C2A05D1D3F84403431E58425841BC
:1033EC0070470020704700BF00C0FF0003689A07B9
:1033FC000CD50368DB070DD50922074BC3F80C2548
:10340C000F22C3F8042501221A60FEE7034B036068
:10341C00EF3B0360704700BF00801050F000FA5083
:10342C00012208B5334B3448C3F80028FFF7DEFF00
:10343C000830FFF7DBFF0830FFF7D8FF0830FFF745
:10344C00D5FF00F5F470FFF7D1FF2C4AD2F88C3081
:10345C0043F44063C2F88C300022D30003F57F03A1
:10346C0003F54043D3F8001401310AD0D3F800140B
:10347C0039B1D3F800140132D3F80434402A0B606C
:10348C00EBD11C4BD3F840247AB3FFF79FFF48B124
:10349C001B4BD3F834231B4B9A429EBF154B1A4A35
:1034AC00C3F84026FFF792FF18B1184B184AC3F81F
:1034BC00AC27FFF78BFF48B134220E4BC3F8242600
:1034CC00D3F83C2622F40022C3F83C260323114AED
:1034DC000A49C2F81835D1F88C3043F44063C1F86E
:1034EC008C300023C2F8A03508BDC822C3F8402494
:1034FC00CBE700BF0000125000C50D5000ED00E0FE
:10350C0000C0FF00001D0A1840E0A91E00A00850D2
:10351C0078000A0400B0045030B50468ACB1B4FAB9
:10352C0084F30122C3F11F03DBB29A4024EA0202A6
:10353C00D0E8EF5FA54204D1C0E8EC2FBCF1000F3E
:10354C00F6D1EAD102480B7030BD0248FCE700BF4F
:10355C000000AD0B0200AD0B10B50368CB40DB07D0
:10356C0010D401238B40026843EA0201D0E8EF4FEC
:10357C00944204D1C0E8EC1FBCF1000FF6D1F2D19B
:10358C00014810BD0148FCE70000AD0B0400AD0B79
:10359C00F7B5064648B3012825D104224FF48073B1
:1035AC0071202F490024C1F80803012002F1A04228
:1035BC0003F1A04303F5871302F5871210601C601A
:1035CC001B68284BD3F840331C2B13D0864201D1F7
:1035DC000DF10704002342F21075214F8DF80730CE
:1035EC0066B1012E28D003B0F0BD14224FF48473C1
:1035FC000420D6E7012EEDD1CE60E9E7D7F84C34A4
:10360C0003F480333CB9002BEDD0012004F0F1FC25
:10361C00013DF3D1E7E7D7F84C2402F00302227006
:10362C00002BE0D09DF80730002BDCD1012004F0FA
:10363C00E0FC013DD4D1D6E7D7F80C3403F4803349
:10364C003CB9002BCFD0012004F0D3FC013DF3D1C9
:10365C00C9E7002B0CBF012300232370E2D1C2E782
:10366C0000E0105000C0FF00054B1A792AB95A71BE
:10367C00012218601A71034870470348704700BF55
:10368C00701700200000AD0B0C00AD0B08B5084BFB
:10369C001B6843B140F20510FEF7F6FD18B940F275
:1036AC000510FEF7CFFD0022024BC3F8402408BDE5
:1036BC007017002000E0105010B510B1012842D056
:1036CC0010BD314BD3F84C14D3F84C24CC0321D57A
:1036DC00900702D00020FFF75BFF00222A4B04204A
:1036EC00C3F8402410224FF48473002103F1A0434B
:1036FC0003F5871319601C68012402F1A04202F53E
:10370C0087121460214A1268002A36D01E4BC3F867
:10371C000403D5E7D3F84824D107DED5D3F85024D9
:10372C009207D7D1194A12681AB10422C3F804239C
:10373C00C6E7D3F80821002AFBD00022C3F80821E1
:10374C00D3F80831BCE700220F4BC3F81021D3F893
:10375C001011C3F81821D3F81811C3F81421D3F899
:10376C0014210B4AD2F840231C2A04D000224FF417
:10377C0080737120B9E79860F8E71A68002AFCD0CA
:10378C0019601B689CE700BF00E010507017002008
:10379C0000C0FF0070B50025184C194ED4F80C234E
:1037AC0002B970BDB2FA82F2C2F11F02930003F5A6
:1037BC0080739BB203F1A04303F587131D601B6854
:1037CC0001239340DBB2102BD0B2C4F8083309D0DC
:1037DC00402B10D0082B00D1757133689847D4F862
:1037EC000C23DDE7B571C4F81451D4F8143120233F
:1037FC00C4F80433F1E7B571EFE700BF00E01050F7
:10380C0070170020036803F01F025F2B02604FEA61
:10381C0053129ABF024B53F822000020704700BF8E
:10382C0004A40000034A4309D35C00F01F001844B1
:10383C00C0B270473AC2000070B505460846FFF7A3
:10384C00F1FF36212A79174B01FB0202083233F8BB
:10385C001200C10525D56C240026C0F3432120F4A9
:10386C00F85023F812002A7904FB02340E3434F891
:10387C00020F10F4807F03D0C0F34320814210D09C
:10388C000136232EF3D16C200024424302EBC102FB
:10389C009C502A79BDE8704000FB02306030FFF785
:1038AC005BBE70BD64000020F0B50646002487B0F6
:1038BC00114F019117F8012B06AB03EBD20313F850
:1038CC00143C02F00702D34013F0010306D101347B
:1038DC00032CEFD10023184607B0F0BD074A03AD07
:1038EC0007CA85E8070055F824100A6A46F8242010
:1038FC000A62002AEBD0EEE74AC20000F0A10000F9
:10390C0010B504460846FFF78DFF362303FB040071
:10391C00024B083033F81000400B10BD640000203F
:10392C0010B504460846FFF77DFF362303FB040061
:10393C00034B083033F81000C0F3400010BD00BF3B
:10394C006400002010B504460846FFF76BFF3623D1
:10395C0003FB0400034B083033F81000C0F3401095
:10396C0010BD00BF640000202DE9F04F0D46D0F8CB
:10397C00141387B0C9B241F40031AA6D009004F061
:10398C00B3FB810306462ED50023696E03A8CDE94F
:10399C0003330593FFF788FFDFF868A1DFF868B100
:1039AC000DF10C091AF8013B05EBD30292F86420D7
:1039BC0003F0070322FA03F3DA076AD4534B09F135
:1039CC00040953450BF1010BECD14FF40031AA6DF6
:1039DC00009804F089FB696E03A8FFF765FF0028C7
:1039EC00DAD126F400360124002E73D107B0BDE8DD
:1039FC00F08F91FAA1F1B1FA81F19BF8004041EA04
:103A0C0044142046FFF70EFF083035F81080C80824
:103A1C004FEA98030193012319F8002001F00701E4
:103A2C0003FA01F122EA010209F8002002A802942B
:103A3C00FFF7E8FE029A019B203250F82220C8F3CF
:103A4C0082075B07B846C2F3014227D52846D7B296
:103A5C002146424604F029FB02A80294FFF7D2FE4D
:103A6C00029B203350F82330C3F301439F4207D10C
:103A7C000021204604F00AFB3946204604F006FBE0
:103A8C0002A80294FFF7BEFE0122029B02FA03F386
:103A9C000362D9F800100029ABD18FE7022A0DD1AF
:103AAC000321204604F0F2FA07F00503012BE7D1BD
:103ABC0042462146284604F0F8FAE1E70221204666
:103ACC00019204F0E3FA032FF2D0019A032AD7D122
:103ADC00022FECE796FAA6F3B3FA83F304FA03F297
:103AEC0026EA0206009A284602EB8303D3F8101547
:103AFC00D3F81025C1F30811C2F3014204F0D5FA32
:103B0C0072E700BF4AC200004AC200004DC200006A
:103B1C002DE9F74305460846FFF784FE36222B793C
:103B2C00204F02FB0303083337F813300E46DB0734
:103B3C00044635D5284604F0FEFA95F80490314633
:103B4C004846FFF7FFFE60B14846FFF7D9FE00225A
:103B5C00D5F8008000B208EB8003C3F81025C3F839
:103B6C00102528463146FFF767FE36222B7901A82F
:103B7C0002FB03440023083427F814300196FFF7A6
:103B8C0041FE019B00EB8300D0F88020064B1340D4
:103B9C0043F00203C0F88030044803B0BDE8F08362
:103BAC000348FAE764000020F0F0FCFF0000AD0BC6
:103BBC000400AD0B2DE9FF47174604460846FFF7F6
:103BCC0031FE3E688846054676B394F80490484624
:103BDC00FFF7A6FE18B14846FFF7B4FEA0BB0023C2
:103BEC004046CDE900338DF80E308DF80F300DF1D5
:103BFC000F0233460DF10E0104F0FFF93620237944
:103C0C00644A00FB0353083332F8131021F002010D
:103C1C0022F81310237900FB0353083332F81310E6
:103C2C0041F0010122F813107B68002B45D0267956
:103C3C004146304693F80090D3F804A0FFF770FE8D
:103C4C0020B1BAF1000F22D0534839E04FF0360CB6
:103C5C000CFB06564F49083631F8163023F46043F6
:103C6C0023F0200321F81630BAF1000F0FD0B9F170
:103C7C00030FE9D87B6826685B68187806EB80062A
:103C8C00B9F1000F1FD1C6F81095C6F81095362063
:103C9C002379404A00FB0353083332F8131021F008
:103CAC001C0122F81310237900FB0353083332F85C
:103CBC00131041EA890122F81310BB6863BB374823
:103CCC0004B0BDE8F087D6F8102522F00302C6F840
:103CDC001025226802EB8003D3F8102522F447321A
:103CEC0022F47C72C3F8102541F6F072D3F81065FB
:103CFC0002EA081242EA09423243C3F8102523793A
:103D0C000CFB0353083331F8132042EA403242F0E3
:103D1C00200221F81320BAE74146D3E90097204648
:103D2C00FFF78AFDB9F1000FC9D06C232079194E29
:103D3C004343F218F358994504D153689F4201D17B
:103D4C0000210CE06C2303FB00600DF10F016030CF
:103D5C00FFF7E2FB114B9842B2D19DF80F106C2289
:103D6C002379534303EBC10346F803902379534360
:103D7C00362203EBC10333445F60237902FB035308
:103D8C00083336F8132042EA412242F4807226F8B6
:103D9C00132094E7640000200400AD0B0000AD0B71
:103DAC002DE9FF470546084617461E46FFF73AFD24
:103DBC008946044687B395F804804046FFF7B0FD6A
:103DCC0018B94046FFF7BEFD68BB362303FB084815
:103DDC00DFF8E4A008F108083AF8183013F01C0FCB
:103DEC0002D07B78012B1ED001238DF80F300023DD
:103DFC007A1CCDE900734846BB1C0DF10F0104F091
:103E0C00FCF836222B7902FB034308333AF81320D3
:103E1C0042F003022AF81320002E4BD04946287991
:103E2C00FFF77EFD18B9254804B0BDE8F0870021E6
:103E3C004FF0360C30782B68820003EB8003C3F80C
:103E4C001015C3F810152B791B490CFB03430833D1
:103E5C0031F8137027F4604727F0200721F813700E
:103E6C0077783FB32B68B6781A44D2F810E5144B28
:103E7C003F040EEA0303C2F8103541F6F07307F461
:103E8C00403703EA09133605D2F810E53B4306F434
:103E9C008016334343EA0E03C2F810352B790CFB22
:103EAC000344083431F8143043EA403343F0200320
:103EBC0021F814300348B7E7640000200400AD0B70
:103ECC000FE0ECFF0000AD0B30B56C250479044B12
:103EDC0005FB0434A160017905FB0133DA6030BDC8
:103EEC006400002070B5067914463046FFF72AFDB1
:103EFC0068B10846FFF796FC362303FB0600054B1A
:103F0C00083033F8103004485B0B237070BD034845
:103F1C00FCE700BF640000200000AD0B0400AD0BFB
:103F2C002DE9F041064607796C20194D00FB075826
:103F3C0098F868404CBB404621464622103003F0AE
:103F4C00B3FD21463068D8F858608E4213D1002357
:103F5C00C0F84431D0F84431C0F308300130FEF7DA
:103F6C0071F96C2303FB075501230A4885F8683067
:103F7C002B66BDE8F081CBB29B0003F58072442B1D
:103F8C0004BF845083580131DFE70348F1E700BFD9
:103F9C00640000200000AD0B0C00AD0B6C2102790D
:103FAC00044B01FB023393F86800003818BF012062
:103FBC00704700BF640000206C235C22007913FB67
:103FCC00002302481844FFF7C7BA00BF6400002062
:103FDC006C235C22007913FB002302481844FFF782
:103FEC009BBA00BF640000202DE9F341036817461B
:103FFC00D3F81423044692035CBF4FF40032C3F889
:10400C00142306790D463046FFF79CFC08B3304666
:10401C00FFF786FC8046E0B93046FFF771FC05B22D
:10402C002168AD0005F5807241F802808A5821683C
:10403C002944D1F8102542F00102C1F810252FB106
:10404C000122216802FA00F3C1F8143302B0BDE872
:10405C00F0812846FFF7E6FB362303FB06000F4BE7
:10406C00083033F81030C3F38203042B11D0052B26
:10407C0011D001A80195FFF7C5FB019AC368D34085
:10408C0003F00103991C284602B0BDE8F04103F08F
:10409C00FDBF0321F7E70221F5E700BF6400002014
:1040AC0001490248FFF760BC6400002000A00D50DD
:1040BC0001490248FFF758BCD000002000C0105046
:1040CC0070B5002367240126027A94FAA4F1B1FAA0
:1040DC0081F1914203F1010518D100210C24120148
:1040EC0002F1A04202F56222C2F82C150A4ADBB298
:1040FC0004FB03230168D960416819610121007A2E
:10410C001875936881400B43936070BD06FA01F1FA
:10411C002B4624EA0104D8E73C010020074B027A25
:10412C00D3F8101521F001010A43C3F810250268D9
:10413C00C3F8A4264268C3F8AC26704700200E5082
:10414C00012303FA00F010F0670F0AD0064B5B68EE
:10415C00DB4303F067030342044B054818BF1846C2
:10416C0070470448704700BF3C0100200000AD0BB5
:10417C000400AD0B0800AD0B002300222DE9F04824
:10418C00C0E90023114BD3F810359B071CD5EFF376
:10419C001181202383F31288BFF36F8F4FF0FF350B
:1041AC006FF040440A4ED6E900BC5D4574EB0C0739
:1041BC00F9D3CCF31303C0E900B381F31188BFF337
:1041CC006F8F0448BDE8F0880348FBE700200E50D1
:1041DC0040270E500000AD0B0100AD0BF0B53B4D70
:1041EC0085B02C78002C6DD1394A01AB07CA83E815
:1041FC00070038491846D1F8102522F00202C1F800
:10420C001025FFF78BFF0723672202F001012144E1
:10421C00013BCCB24FEA5202F7D1052C54D11A46CD
:10422C0001272A48002467265FFA82FC96FAA6F139
:10423C005FFA84FEE645B1FA81F13DD30132052ADD
:10424C00017500F10C00EDD10120002422499A08DF
:10425C0000FA02F212F0670F1CBF5C505A5804337C
:10426C00302BF4D1E420FDF7EDFF1A4B1B49D3F8AA
:10427C00102503F5C07322F00202C3F8902340F618
:10428C00FF72C3F8A82100221A60A3F580700433D2
:10429C008B420260F8D101240E4B114A1C66114B63
:1042AC005D201B68B3FBF2F358430F4B2343984735
:1042BC000E482C7005B0F0BD07FA01F126EA010694
:1042CC000134B3E70A48F5E70A48F3E73C0100205C
:1042DC00FCA1000000200E5000210E50B0210E5009
:1042EC0040420F006000002020A200000000AD0B37
:1042FC000C00AD0B0100AD0B73B52A4C0546636881
:10430C000E4603F0010304F1140101A80193FFF719
:10431C0003F9254B98423DD100233370636823F099
:10432C0001036360A36843F00103A3601F4BD3F840
:10433C001025960732D4D3F8102542F00202C3F8A8
:10434C001025C5B1D3F8482712F0010202BFD3F8EB
:10435C00481741F00101C3F84817144BD3F8401724
:10436C00D3F844174C00F9D42AB9D3F8482722F0D3
:10437C000102C3F848270E4B0E4A1B68B3FBF2F33D
:10438C000A4A03EB43135BB1D2F84017D2F8441737
:10439C00490001D402B070BD013BF4E70648F9E7CF
:1043AC000648F7E73C0100200000AD0B00200E5042
:1043BC006000002040420F000C00AD0B0700AD0B5D
:1043CC002DE9F0410446007A1D46FFF7B9FE1A4B61
:1043DC001746984206469DF8188029D12046FFF7CB
:1043EC006FFEEFF31180202383F31288BFF36F8FDE
:1043FC00227A124B9200134400221A60217AC5F3E0
:10440C001305090101F1A04101F562211B68C1F8F6
:10441C002075C1F8245580F31188BFF36F8FB8F164
:10442C00000F05D00123227A9340054AC2F82433A9
:10443C003046BDE8F08100BF0000AD0B00210E50EE
:10444C0000200E50F7B5254A002053689268DB43D4
:10445C0003F0670313401C46012607460CBB0127DB
:10446C001F4B1E4DD3F820630640287D07FA00F33E
:10447C0033420FD0E96869B10201D5F810C002F1DE
:10448C00A04202F56222D2F82435D2F82025CDF8CC
:10449C0000C088470134052C05F10C05E5D103B0AB
:1044AC00F0BD94FAA4F5B5FA85F5AA0002F5807171
:1044BC00920806FA02F213420BD001F1A04101F569
:1044CC006221D1F800C0BCF1000F02D00F60096866
:1044DC00104306FA05F524EA0504BFE73C01002069
:1044EC0000200E50044B40EA0120C3F80005D3F81D
:1044FC000024D207FBD5704700B0045038B5094BE7
:10450C0053F82040013053F82050A54200D838BD54
:10451C00636823B1204603F064FE0834F5E7236892
:10452C009847FAE710A40000012208B5094B0320B4
:10453C001A70FFF7E3FFFDF7AFFC03F06EFE0420EB
:10454C00FFF7DCFFFCF7FCF8034A137B23F00103B5
:10455C00137308BD9B260020E801002008B5034812
:10456C00034A0021121A03F054FE08BDE00100209A
:10457C00A026002008B50020FFF7C0FF174B03F55D
:10458C00006282F3088883F30A880025E023144C28
:10459C0084F82230E57725766576A576636A43F450
:1045AC00E023636284F82350FDF7B8FDFDF7CCFEE1
:1045BC004FF0FF33A362E362FDF7EAFFFDF7ECFE79
:1045CC0003F0E9FD0120FFF799FF0220FFF796FFAA
:1045DC002B462A4629460348FDF796FEA0260020C6
:1045EC0000ED00E035450000074808B5074A0849CA
:1045FC00121A03F010FEBDE808400648064A0749A7
:10460C00121A03F008BE00BF40000020DE0100209B
:10461C00F4C400004000002040000020F4C400005E
:10462C00024B1868984208BF002070479001002088
:10463C00034B1B680BB9FEF787BD0020704700BF0A
:10464C007817002030B570B10B4B5B6898420AD0DC
:10465C00036843B1D3E90421D0E90445121941EBB5
:10466C000501C3E90421D0E9003213605A6000232C
:10467C00C0E9003330BD00BF900100202DE9F047A8
:10468C00EFF31185202383F31288BFF36F8FDFF8CC
:10469C009C900026C9F800000027FFF7C1FFDFF847
:1046AC009080D9F80030D8E900ECD91750B1D0E996
:1046BC000442A34271EB020A18DAE41A62EB01021B
:1046CC00C0E90442002413EB0E034CEB0101C8E9D2
:1046DC000031C9F8004003F0A7FD2146FEF74AFD62
:1046EC0085F31188BFF36F8FBDE8F08714EB0E02D2
:1046FC004CEBE473C0E90467C8E90023FFF7A2FFA1
:10470C0085F31188BFF36F8F83689847EFF311859A
:10471C00202383F31288BFF36F8FD9F800301B1B53
:10472C00C9F80030FFF77CFFBBE700BF781700200B
:10473C006802002001680E4A0346914215D1C169F6
:10474C00A2F11022A2F1EF1291420ED18268012A3D
:10475C000BD8C26812B101698A4206D0586928B1D7
:10476C009B691B1A5842584170470120704700BF83
:10477C0055AA00FF70B50D4B9E68A6B13046FFF7E9
:10478C00D9FF044678B9F3686BB935690DB9204681
:10479C0070BD2846FFF7CEFF28B9EB68B34202D1B3
:1047AC002E462D69F2E70124F1E700BF7C170020AB
:1047BC00F8B5384E3468F368D4B1B468C4B1002885
:1047CC0060D000295ED001FB00F5B5FBF0F088420B
:1047DC0058D1291D56D8AA070CD025F00302043253
:1047EC001C4603E0616891424ED2A469002CF9D1B9
:1047FC002046F8BD2A46F3E7891A232904F120073D
:10480C001CD80123A360D4E90523AAB19361A36941
:10481C000BB162695A610023C4E905333369DB07C4
:10482C0003D5FFF7A7FF002831D12A4600213846CF
:10483C003C4603F039F9DBE7F360E8E702F1200CC2
:10484C0004EB0C032039C3E90110DC602169124828
:10485C00196144F80C00A0F11020A0F1EF10D86100
:10486C0001B1CB6061695961A069986141B18B61FB
:10487C00996901B14B6101212361C4E90121CAE7A6
:10488C00F360F5E70024B3E7A0680028B4D001205A
:10489C00FDF70CFF7C17002055AA00FF70B50546EC
:1048AC00002840D03B4E3368002B3CD0B268002A25
:1048BC0039D0834203D872681344984202D3012042
:1048CC00FDF7F4FEA0F120042046FFF733FF00288B
:1048DC00F5D155F8183C012BF1D155F8143C45F89D
:1048EC00180C0BB39A68FAB955F81C2C02F120017C
:1048FC005A680A445A6055E905321A6155F8145C35
:10490C002B6903B1DD6020220021204603F0CCF896
:10491C00286908B183684BB333699B0703D5FFF74C
:10492C0029FF0028CBD170BD55F8100C00282AD0D7
:10493C00836843BB42686368134420336360036934
:10494C002361D4E905239AB9CBB9436963618269C0
:10495C00A261B3B19C61A36903B15C61236903B12A
:10496C00DC602022002103F09FF8D5E72C46E1E71C
:10497C009361A369002BE8D062695A61E5E7F360A3
:10498C00F7E7F460E7E7F36845F8083C03B15C61CE
:10499C00F460C1E77C17002038B50C4614220021C6
:1049AC000546134803F080F81249134800F034F818
:1049BC00232C1CD915F003031FBF043CE418C3F1CE
:1049CC000403ED1822460021284603F06DF8084B2D
:1049DC000A49C3E90054203C9D606C609A681160E0
:1049EC009A68A1F11021A1F1EF11D161DA6038BD03
:1049FC007C170020A9480000BD47000055AA00FF05
:104A0C00014B1B68184700BF9C010020014B1B6821
:104A1C00184700BF98010020024B1860024B002081
:104A2C00196070479C0100209801002010B50A46BF
:104A3C00044619B1024B00211B68984710BD00BFFA
:104A4C00A00100200E4B0340B3F1607F06D1B1F5FD
:104A5C00885F14BF6FF0860000207047B3F1707F41
:104A6C000BD101F4E043B3F5005F06D111F4E06F14
:104A7C000CBF6FF08600002070476FF08600704707
:104A8C000000C07F8A42F8B506460C4600F0DB8079
:104A9C006F4922F4FF7323F001038B420ED06D4B50
:104AAC0022F0FF01994209D06B4822F47F7323F066
:104ABC000303834202D0694B994228D1684B24F0FE
:104ACC00FF0199420FD114F0FF000BD0654B40F061
:104ADC000070984240F0B98082EA0400FF288CBF35
:104AEC0000200120F8BD5B4B9942ECD0A3F5885314
:104AFC009942E8D024F4FF7323F00103B3F1062F9D
:104B0C00E1D056488142DED053498B42DBD004F0D1
:104B1C00FE43B3F1A06F14D102F0FE43B3F1A06FCA
:104B2C0040F0938082EA040333F47E1340F08D80CE
:104B3C0014F40040D6D0C4F30540C2F305429042B1
:104B4C00CDE7B3F1407F6AD102F0FE43B3F1407F71
:104B5C007BD182EA040535F47E1576D131462046A8
:104B6C00FFF770FF002870D13F4B12F47C1703EA5B
:104B7C0002031BD0B3F1607FC2F305473FD13B4921
:104B8C00D3B243F000738B423DD003F17E43043B20
:104B9C00112B01D83649CD5C14F47C1FC4F30543AA
:104BAC0033D1BD4214BF002001209BE7B3F1607FDD
:104BBC000DD12E49D3B243F000738B421DD003F1BB
:104BCC007E43043B112BDAD82A49CF5CD7E7B3F1EB
:104BDC00707FE1D106F4E043B3F5005F03D1012708
:104BEC00C6F302239F4006F4E043B3F5005FD3D134
:104BFC000125C6F302218D40CEE71027BFE7B3F1A4
:104C0C00707FC9D1EFE71025C6E712F47C1F01D1E4
:104C1C00AB4218D022047FF565AFBB425FE7B3F11E
:104C2C00106F12D124F01F6020F4702068B902F0CC
:104C3C00FE43B3F1106F7FF455AF0F48104040F0B6
:104C4C001060A042AEE701204CE700204AE700BF0D
:104C5C00000200060013000600040006000900060E
:104C6C0000030006FF0000020000C07F03000002EA
:104C7C004DC200004DC200000000FFF621F4FF728F
:104C8C0010B521F0FF031A4C22F00102F8B121F407
:104C9C00BF6020F00700A04212D0164883420FD00C
:104CAC00A0F5206083420BD0134B9A4208D003F539
:104CBC008063994208BF002018BF6FF0860005E0A2
:104CCC00C9B2002914BF00206FF0860010BDA242AB
:104CDC00FCD0084A9342F9D021F47F7121F00301F2
:104CEC00A2F570629142F1D002F5A0629342E3E723
:104CFC000002000600130006000400062DE9F8432C
:104D0C00884617461C4600F0A1FA054688BBD8F821
:104D1C000060B6F8009009F4E043B3F5804FB36837
:104D2C0008BF27F0010737EA03031AD10CB3254B50
:104D3C0024F0FF029A421FD114F0FF0304D0224A40
:104D4C0043F00073934232D022464846F168FFF795
:104D5C0099FE074668B9224648463169FFF792FE2C
:104D6C0070BB6FF0840500233046C8F8003003F0A8
:104D7C004FFC2846BDE8F883144B9A42DCD0A3F5CF
:104D8C0088539A42D8D024F4FF7323F00103B3F173
:104D9C00062FD1D00E498A42CED00E4A9342CBD0A8
:104DAC0004F0FE43B3F1407F04D12304CCD56FF063
:104DBC008605D8E7B3F1A06FF7D0034B9C42C2E74E
:104DCC003D46D6E700030006FF0000020013000674
:104DDC00000900060004000613B50446F0B101A951
:104DEC0000F034FA0446C8B90198037F022B18D19D
:104DFC00032303770379FF2B16D043690C4A03F185
:104E0C004043A3F58053934202D800F0DDFB0446E7
:104E1C00019803F0E8FB002818BF0446204602B0B6
:104E2C0010BD6FF09604F3E76FF08404F0E700BF59
:104E3C00FFDFFF3F2DE9F04116469846002288B06F
:104E4C00038805460F46CDE904220796C8F80020D2
:104E5C00002E62D0B6F1005F80F0A68023F0FF0335
:104E6C00B3F5E24F02D0B3F5824F21D1284603F0BF
:104E7C0001FA0446002840F09080EB686BB16B8817
:104E8C005BB1288800F44F42B2F5824F05D1C0B215
:104E9C00222837D02ED8122839D03A460023F119BF
:104EAC0012F8010B914243EA0003F9D1002B34D0E4
:104EBC00284605AA04A903F039FA0446A0B9049BB4
:104ECC009B6A6BB3049B39465A882846069206AAFD
:104EDC00029203F1280201929A6A00925B6A3246AE
:104EEC0000F0EEFA044680B30498002855D003F085
:104EFC00C8FA52E02738C0B21B28CED82C4AC24080
:104F0C00D207CAD50733B6EBD30FC6D205E040F2B1
:104F1C0009229342F6D1402EBFD86FF086043CE0B4
:104F2C006B681B0A07D10799049803F06AFA0446C8
:104F3C000028C7D0D8E732463946284607AB00F0E0
:104F4C008FFA04460028EED0CEE70499069B4A88D7
:104F5C00E2B94B804FF6F8720699049B914220D827
:104F6C002A8812B11988914212D16A8812B15988D3
:104F7C0091420DD15A69C8F800201A7F012A0AD033
:104F8C0000236FF09604C8F80030ADE79A42E1D0E8
:104F9C006FF08604A8E702221A77204608B0BDE815
:104FAC00F0816FF085049FE76FF08504F5E700BF93
:104FBC000102000C2DE9F04117461C461E4A23F451
:104FCC00FF7323F00103934205460E4696B00ED0B4
:104FDC001A4B24F0FF029A4209D0194924F47F732A
:104FEC0023F003038B4202D0164B9A4220D1DDE909
:104FFC001C1205AB0193402314F0FF000DF11808AF
:10500C0018BF40F000700093434600F0BDFA60B941
:10501C001F9B3A4603931E9B31460293059B2846E1
:10502C00CDE90083234600F0F9F916B0BDE8F08114
:10503C006FF08500F9E700BF0002000600130006C0
:10504C00000400060009000610B5124C237859071D
:10505C0044BF23F00403237023789A0705D500F08E
:10506C0099F8237823F002032370637813B10A486C
:10507C0003F0FEFA0023042107486370FFF7D6FC07
:10508C002378DB0705D503F0D0FA237823F001034E
:10509C00237010BD901700209417002038B51C4DBC
:1050AC006A782B78022A01D1072B12D0D80713D596
:1050BC002B78990707D400F065F82B78044643F059
:1050CC0002032B7088B96A782B788AB12B785A072F
:1050DC0019D50024204638BD03F0A5FA2B780446D8
:1050EC0043F001032B700028E2D0FFF7ADFFF1E78E
:1050FC00DB07EBD5074803F0B9FA022304466B70C3
:10510C000028F2D1E2E743F004032B70E1E700BF83
:10511C00901700209417002000F140431F2B70B50E
:10512C0005460E460CD82C22154C02FB0344237F5B
:10513C00022B02D16369834218D06FF08B001AE006
:10514C00012103F03FFAB8B10D4B00221C46197F28
:10515C00022902D15969A94205D00132202A03F152
:10516C002C03F4D1E9E72C2303FB0244204603F083
:10517C001CFA00B9346070BD6FF08700FBE700BF0C
:10518C00981700200122024B002083F880257047DD
:10519C00981700202DE9F0410A4C002526464FF0C7
:1051AC00010803272046C4F820802777013503F037
:1051BC0068F9202D04F12C04F4D1002386F88035F5
:1051CC00BDE8F08198170020F8B51E4D064695F8FD
:1051DC0080350F467BB300242B462246197FD1B174
:1051EC003CB9022905D1196A19B91979002918BFD6
:1051FC001C460132202A03F12C03EFD114B96FF0B5
:10520C008C0006E0204603F0D0F9204603F039F973
:10521C0010B100240DE01C46237F7BB901232377BA
:10522C0036B1094B651BAD105D4305F1804535600A
:10523C0000203C60F8BD6FF08800EAE76FF0960044
:10524C00E7E700BF98170020A38B2EBAF0B5002714
:10525C00544B0F6093F8803505460E4691B0002BE9
:10526C0000F09C80FFF758FF10F18C0F044640F0C3
:10527C008E8031463846FFF7A7FF0446002840F0E1
:10528C0086800122336801465D61336809A85A6043
:10529C001C22356802F008FC002200236869CDE965
:1052AC000623414A00F14043A3F580539342CDE9D4
:1052BC000444039405D9284603F0E3F86FF08704FF
:1052CC0020E006AA03A900F023FF0446002837D1EA
:1052DC00039B6A690A93DBB2002B08BF00220346CA
:1052EC00CDE90000DDE906010E9209AA00F030F9C3
:1052FC0010F18A0F044608D030680CBB03F0C1F8DB
:10530C006FF096040023336041E004A909A800F073
:10531C00BFF80446A0B92846049903F072F8044675
:10532C0070B9DDE9060105AB0193AB6A09AA0093DC
:10533C006B6A00F00DF9044648B1284603F096F864
:10534C00306803F09EF814F18C0FDBD1B6E72C46D5
:10535C00059BAB6209AD0FCD0FC495E8070084E83F
:10536C00070033689A68D00414D49A68910444BF37
:10537C0042F400629A6033681A7F012A04BF022249
:10538C001A77306803F011F904460028BAD1204688
:10539C0011B0F0BD42F480629A60E6E76FF08804C9
:1053AC00F5E700BF98170020FFDFFF3F2DE9F04F16
:1053BC000D4616461749426885B0B1EB122F1F46B1
:1053CC00DDE90E89DDE910AB04464FEA122303D068
:1053DC00114A934200D063B93B46324629462046D7
:1053EC00CDE902ABCDE9008903F049FA10F1860F43
:1053FC000CD13B46324629462046CDE910ABCDE9CF
:10540C000E8905B0BDE8F04FFFF7D4BD05B0BDE87F
:10541C00F08F00BF004E80004B4E80002DE9F04114
:10542C00DFF834804568DDE90667B8EB152F4FEAE5
:10543C001524DDE908CE03D0084DAC4200D03CB9B0
:10544C00CDE908CECDE90667BDE8F04103F033BAEB
:10545C006FF08600BDE8F081004E80004B4E80005E
:10546C00194610B4002443680C60074C1A0AB4EBBC
:10547C00132F02D0054B9A4202D110BC00F01ABA7D
:10548C006FF0860010BC7047004E80004B4E8000C1
:10549C0010B4002443680C60074C1A0AB4EB132FA9
:1054AC0002D0064B9A4202D110BC00F003BA6FF046
:1054BC00860010BC704700BF004E80004B4E800031
:1054CC002DE9F04FDFF880B0D0F804E085B0BBEBED
:1054DC001E2F0446DDE90E890D4616461F46DDF8E3
:1054EC0040A04FEA1E2C1CD0DFF860E0F44518D029
:1054FC00BCF1000F22D1CDE9019ACDF8008000F06B
:10550C00EFFC10F1860F1BD13B4632462946204654
:10551C00CDE90F9ACDF8388005B0BDE8F04F02F018
:10552C0083BF3B46324629462046CDE90F9ACDF83B
:10553C00388005B0BDE8F04F00F0D2BC6FF08600AB
:10554C0005B0BDE8F08F00BF004E80004B4E8000D0
:10555C00F0B4DFF82CC05468DDE90456BCEB142F12
:10556C004FEA142702D0074CA74204D1CDE90456C8
:10557C00F0BC00F07BBD6FF08B00F0BC704700BF3F
:10558C00004E80004B4E800010B4054CA04202D05F
:10559C0010BC03F0FEB96FF0850010BC704700BF63
:1055AC0005000002074B10B59942044606D00430A2
:1055BC0003F02CFA08B90523236010BD6FF08500A9
:1055CC00FBE700BF050000024268044BB3EB122F4F
:1055DC0001D103F0D7BA6FF0850070474B4E8000B5
:1055EC0010B50C4C207804F0FCF80B4A1368591CCD
:1055FC0011604BB9094A4820D2F8003443F0070334
:10560C00C2F80034FCF71EFE2078BDE8104004F010
:10561C00EAB800BF9C2600201C1D0020008004500E
:10562C0038B5164D287804F0DCF8154B1C68013C95
:10563C001C60ECB94820FCF713FE0722114BC3F891
:10564C000823D3F8002422F00702C3F80024C3F87F
:10565C000041D3F80021C3F80441D3F804214FF4DE
:10566C008072C3F80841D3F80831074BC3F888217E
:10567C002878BDE8384004F0B6B800BF9C2600205E
:10568C001C1D00200080045000E100E070B5114D9D
:10569C00114E2B68B34212D0FFF7A2FF01F01AF99A
:1056AC000E4A0F4B0F4952F8040B43F8040B8B4274
:1056BC00F9D101F0D3F920B9FFF7B2FF2E60002425
:1056CC0006E002F0D7FF0446FFF7AAFF002CF5D046
:1056DC00204670BDA40100201173650028A40000B1
:1056EC0000C080511CD380511FB5114CD4F84034EC
:1056FC00012B14D0B72000F07BF918B16FF021000A
:10570C0004B010BDB82000F073F90028F6D1B92010
:10571C0000F06EF90028F1D10123C4F840341022B6
:10572C000021684602F0C0F9684603F027FDE7E760
:10573C000080045000230B6010F0FF0310B519D04B
:10574C0043F0007303F17E43053B0E2B12D801226C
:10575C0047F629049A40224205D1062B08D0042B87
:10576C0008D1094B0B600B6863B96FF0850008E03A
:10577C00064BF7E700F0FE40B0F1007FF5D06FF07C
:10578C00860010BD0020FCE71CB90000DCB800004E
:10579C00302817D00ED81238C0B2192807D80123D8
:1057AC00214A83401A40002A3AD1DB0720D46FF0FB
:1057BC008600704741282AD04228F8D1FF2928D1E9
:1057CC001A4B2AE0B1F5A07F2AD00BD821F0200388
:1057DC00C02B25D0B1F5807F0CBF6FF085006FF02A
:1057EC0086007047B1F5C07F1AD0B1F5007FF3E7A2
:1057FC00B1F5807F14D003D821F02001C029EBE74C
:10580C00B1F5C07F0CD040F209239942E4E7FF299F
:10581C0002D0B1F5E07FDFE7054B00201360704745
:10582C006FF08500704700BF20022102A0B9000074
:10583C0094B900002DE9F0411D4B94B0D0F80480D0
:10584C0006460F4601A8196801F026F9DDE9015456
:10585C00DCB922463146284603AB03F090FD0446E2
:10586C0098B9284603F049FDDDE903120346384692
:10587C0003F017FB284603F00CFC284603F0D4FB7E
:10588C000446284601F032F92CB1204614B0BDE88C
:10589C00F04102F0EFBE414603A802F0A8FF03A8B6
:1058AC00414602F0A4FF204614B0BDE8F08100BFD1
:1058BC00DCB9000010B51E4C4368B4EB132F4FEA53
:1058CC00132215D142691B4B9A420CD003F5FF43AE
:1058DC007D331344012B03D80388B3F5105F24D018
:1058EC006FF0860019E047F2121302889A42F6E72D
:1058FC00114B9A42F4D1028802F44F43B3F5824F14
:10590C000CD1438844F21210073382424FEAD3037E
:10591C0001D15B00013300200B6010BDB2F5885F34
:10592C0003D143880733DB08F5E70223F3E700BF15
:10593C00004E800001C0FF7F4B4E80000022074BC1
:10594C00C3F81021C3F80C21C3F80021C3F80421BB
:10595C00C3F80821C3F81421704700BF005004504D
:10596C0008B5FFF7EBFF01230360104B0A6832B94F
:10597C00D3F80C211AB9D3F80821002AF6D00B68F9
:10598C007BB90B4B99420ED0A3F58473D3F8083135
:10599C00002B0CBF4FF0FF306FF00200FFF7CEFF73
:1059AC0008BD0020FAE74FF0FF30F7E70050045035
:1059BC000851045038B505460C4691B10021012020
:1059CC0002F0E2FB08480949C0F80055C0F804454C
:1059DC00FFF7C6FF00210446084602F0D5FB20461F
:1059EC0038BD6FF00104FAE7005004500051045028
:1059FC00034B0449C3F800050348FFF7B1BF00BFD0
:105A0C0000500450045104500450045010B5044686
:105A1C000021012002F0B8FB064B0749C3F80045F2
:105A2C000648FFF79DFF00210446084602F0ACFB38
:105A3C00204610BD0050045008510450085004502A
:105A4C0038B50C4659B1074D0749C5F8000507484C
:105A5C00FFF786FF10B9D5F80835236038BD6FF015
:105A6C000100FBE700500450105104500C5004503E
:105A7C002DE9F04F8FB0B1F8008002AF3B6028F0F9
:105A8C00FF03B3F5824F0C469246BE6D786008D08A
:105A9C00B3F5E24F05D06FF085003437BD46BDE855
:105AAC00F08F26F4FF7B2BF0010BBBF1062F0BD0F4
:105ABC007B4B9E4208D003F20B139E4204D026F07F
:105ACC00FF020B3B9A42E6D17A68A368EAB913F459
:105ADC00005F00F0DE8044F2010328F4405228F409
:105AEC0043599A4229F03F0912D16388DB081033DD
:105AFC000020073323F00703ADEB030DB9F5824FFC
:105B0C00618802ADB8601CD150E013F4006FE0E77F
:105B1C00B9F5844F04D163880733DB08E8D1BAE7C1
:105B2C00B9F5884F23D16A4661880020CB1DDB086C
:105B3C0003EB43030833DB08A2EBC3039D46B860B9
:105B4C0002AD07F10802C0B2FFF722FE60B962682D
:105B5C00544BB3EB122F2ED12B465046BA683968F2
:105B6C0002F05BFE002838D002F084FD95E7B9F511
:105B7C008E4FD0D0B9F5824F8DD15FFA88F2422A80
:105B8C00618804D101F10803DB08073306E0CB1D63
:105B9C00412A4FEAD3030BD05B0008336A46DB087B
:105BAC00A2EBC3039D46002302ADBB604046C8E791
:105BBC00002BEAD16FE73A4B9E4203D003F20B1352
:105BCC009E4221D1238823F0FF03B3F5824F16D1D7
:105BDC00514628463A6801F05CFFBB685A68BB6EB8
:105BEC00B3EB420F58D1304B9E4210D17B68284604
:105BFC000093F96DD7E9182300F0D2F8B4E72946E1
:105C0C00504600F0F3F8ADE76FF00200ACE7244B20
:105C1C009E4206D1D7E918232846F96D02F09FFE63
:105C2C00A2E7BBF1062F7FF436AF07F11003202259
:105C3C000021184601F038FFB9F5824F18BF4FF01C
:105C4C000008F860618807F108025FFA88F0FFF736
:105C5C009FFD00287FF421AF304607F10C01FFF7C0
:105C6C0069FD00287FF419AFD7E901234AB17A6E98
:105C7C002846CDE90032F968D7E9172302F04AFE2D
:105C8C0072E77A6E28460092D7E9171200F00EF8E8
:105C9C006AE76FF0860000E76FF09400FDE600BF46
:105CAC0000080006004E80000B0900062DE9F04F9D
:105CBC001E46D3F804B0224B89B00746884601A88B
:105CCC0019689146DDF848A000F0E6FEDDE90154C4
:105CDC0034B1284600F00AFF204609B0BDE8F08F29
:105CEC0022463146284603AB03F049FB0446002804
:105CFC00EFD17468049E22463946039803F04BF9A1
:105D0C0022463046391903F046F9069E2246514682
:105D1C00059803F040F9224630460AEB0B0103F0DC
:105D2C003AF923464946079A404602F0E0FD2846D8
:105D3C0003F0AFF9284603F077F90446C9E700BF32
:105D4C00F4B90000F0B51E46134B9BB0CDE904012D
:105D5C00CDE90236222120239DF88040CDE906139F
:105D6C0084F0010405460AAF06A902A8CDE9083261
:105D7C0000970A4BC4F1040201EB840100EB840090
:105D8C0002F0FEFC30B933462946384606F12002B3
:105D9C0003F0CEF81BB0F0BDB0010020DCB8000061
:105DAC00F0B593B09DF860C004460E4617461D46EC
:105DBC00BCF1000F10D0394630460B4A02AB02F052
:105DCC00ECFC38B901234022009320462B4602A953
:105DDC00FFF7B8FF13B0F0BD0124189413B0BDE861
:105DEC00F040FFF7AFBF00BFDCB8000030B591B09A
:105DFC000D466B462021114A02F0CFFC0446C8B96F
:105E0C00684603F0EBFB2023224619460DEB0300FA
:105E1C0002F0E2FC684608A903F076F8044648B99B
:105E2C00202228460DEB020101F033FE402168468A
:105E3C0002F0DDFC204611B030BD00BFDCB8000024
:105E4C002DE9F0410388C76803F44F44B4F5824F41
:105E5C0008BF1D4603F4E0441F4B18BF002500206B
:105E6C009E46EDB21E78AE4224D1D3E9026CD2F834
:105E7C000080B4F5804F08BF6646B8F1000F0CD116
:105E8C008E420AD1142303FB00E3596811601B7C7A
:105E9C00B3B96FF08500BDE8F081D3F804C0E045DC
:105EAC0008D18E4202D06FF08600F4E7142303FB76
:105EBC0000E3ECE70130132803F11403D2D1F2E72D
:105ECC00422D06D1054B9F4203D003F20B139F4288
